{"abi":[{"inputs":[{"internalType":"address","name":"_manufacturer","type":"address"},{"internalType":"string","name":"_name","type":"string"},{"internalType":"uint256","name":"_quantity","type":"uint256"},{"internalType":"string","name":"_expiry","type":"string"},{"internalType":"uint256","name":"_price","type":"uint256"},{"internalType":"string","name":"_timestamp","type":"string"}],"stateMutability":"nonpayable","type":"constructor"},{"inputs":[],"name":"getInfo","outputs":[{"internalType":"string","name":"","type":"string"},{"internalType":"uint256","name":"","type":"uint256"},{"internalType":"uint256","name":"","type":"uint256"},{"internalType":"address[4]","name":"","type":"address[4]"},{"internalType":"string","name":"","type":"string"},{"internalType":"address","name":"","type":"address"},{"internalType":"uint256","name":"","type":"uint256"},{"internalType":"string","name":"","type":"string"}],"stateMutability":"view","type":"function"},{"inputs":[{"internalType":"address","name":"_shipper","type":"address"},{"internalType":"uint256","name":"senderType","type":"uint256"}],"name":"pickPackage","outputs":[],"stateMutability":"nonpayable","type":"function"},{"inputs":[{"internalType":"address","name":"_receiver","type":"address"},{"internalType":"uint256","name":"receiverType","type":"uint256"},{"internalType":"uint256","name":"_condition","type":"uint256"}],"name":"receivePackage","outputs":[],"stateMutability":"nonpayable","type":"function"},{"inputs":[{"internalType":"address","name":"_sender","type":"address"},{"internalType":"address","name":"_shipper","type":"address"},{"internalType":"address","name":"_receiver","type":"address"},{"internalType":"uint256","name":"senderType","type":"uint256"}],"name":"sendPackage","outputs":[],"stateMutability":"nonpayable","type":"function"}],"evm":{"bytecode":{"linkReferences":{},"object":"60806040523480156200001157600080fd5b50604051620012ee380380620012ee833981810160405281019062000037919062000465565b85600260006004811062000050576200004f6200055e565b5b0160006101000a81548173ffffffffffffffffffffffffffffffffffffffff021916908373ffffffffffffffffffffffffffffffffffffffff16021790555085600760006101000a81548173ffffffffffffffffffffffffffffffffffffffff021916908373ffffffffffffffffffffffffffffffffffffffff1602179055508460009080519060200190620000e892919062000178565b508360018190555082600890805190602001906200010892919062000178565b508160098190555080600a90805190602001906200012892919062000178565b506000600781111562000140576200013f6200058d565b5b600660146101000a81548160ff021916908360078111156200016757620001666200058d565b5b021790555050505050505062000621565b8280546200018690620005eb565b90600052602060002090601f016020900481019282620001aa5760008555620001f6565b82601f10620001c557805160ff1916838001178555620001f6565b82800160010185558215620001f6579182015b82811115620001f5578251825591602001919060010190620001d8565b5b50905062000205919062000209565b5090565b5b80821115620002245760008160009055506001016200020a565b5090565b6000604051905090565b600080fd5b600080fd5b600073ffffffffffffffffffffffffffffffffffffffff82169050919050565b600062000269826200023c565b9050919050565b6200027b816200025c565b81146200028757600080fd5b50565b6000815190506200029b8162000270565b92915050565b600080fd5b600080fd5b6000601f19601f8301169050919050565b7f4e487b7100000000000000000000000000000000000000000000000000000000600052604160045260246000fd5b620002f682620002ab565b810181811067ffffffffffffffff82111715620003185762000317620002bc565b5b80604052505050565b60006200032d62000228565b90506200033b8282620002eb565b919050565b600067ffffffffffffffff8211156200035e576200035d620002bc565b5b6200036982620002ab565b9050602081019050919050565b60005b838110156200039657808201518184015260208101905062000379565b83811115620003a6576000848401525b50505050565b6000620003c3620003bd8462000340565b62000321565b905082815260208101848484011115620003e257620003e1620002a6565b5b620003ef84828562000376565b509392505050565b600082601f8301126200040f576200040e620002a1565b5b815162000421848260208601620003ac565b91505092915050565b6000819050919050565b6200043f816200042a565b81146200044b57600080fd5b50565b6000815190506200045f8162000434565b92915050565b60008060008060008060c0878903121562000485576200048462000232565b5b60006200049589828a016200028a565b965050602087015167ffffffffffffffff811115620004b957620004b862000237565b5b620004c789828a01620003f7565b9550506040620004da89828a016200044e565b945050606087015167ffffffffffffffff811115620004fe57620004fd62000237565b5b6200050c89828a01620003f7565b93505060806200051f89828a016200044e565b92505060a087015167ffffffffffffffff81111562000543576200054262000237565b5b6200055189828a01620003f7565b9150509295509295509295565b7f4e487b7100000000000000000000000000000000000000000000000000000000600052603260045260246000fd5b7f4e487b7100000000000000000000000000000000000000000000000000000000600052602160045260246000fd5b7f4e487b7100000000000000000000000000000000000000000000000000000000600052602260045260246000fd5b600060028204905060018216806200060457607f821691505b602082108114156200061b576200061a620005bc565b5b50919050565b610cbd80620006316000396000f3fe608060405234801561001057600080fd5b506004361061004c5760003560e01c80632040a8de146100515780635a9b0b891461006d578063a0c741b014610092578063d074892d146100ae575b600080fd5b61006b6004803603810190610066919061081d565b6100ca565b005b6100756101c1565b6040516100899897969594939291906109bf565b60405180910390f35b6100ac60048036038101906100a79190610a55565b61045b565b005b6100c860048036038101906100c39190610aa8565b610661565b005b8173ffffffffffffffffffffffffffffffffffffffff16600660009054906101000a900473ffffffffffffffffffffffffffffffffffffffff1673ffffffffffffffffffffffffffffffffffffffff161461012457600080fd5b80600781111561013757610136610b0f565b5b600781111561014957610148610b0f565b5b600660149054906101000a900460ff16600781111561016b5761016a610b0f565b5b1461017557600080fd5b6005816101829190610b6d565b600781111561019457610193610b0f565b5b600660146101000a81548160ff021916908360078111156101b8576101b7610b0f565b5b02179055505050565b60606000806101ce610762565b606060008060606000600154600660149054906101000a900460ff1660078111156101fc576101fb610b0f565b5b60026008600760009054906101000a900473ffffffffffffffffffffffffffffffffffffffff16600954600a87805461023490610bf2565b80601f016020809104026020016040519081016040528092919081815260200182805461026090610bf2565b80156102ad5780601f10610282576101008083540402835291602001916102ad565b820191906000526020600020905b81548152906001019060200180831161029057829003601f168201915b5050505050975084600480602002604051908101604052809291908260048015610322576020028201915b8160009054906101000a900473ffffffffffffffffffffffffffffffffffffffff1673ffffffffffffffffffffffffffffffffffffffff16815260200190600101908083116102d8575b5050505050945083805461033590610bf2565b80601f016020809104026020016040519081016040528092919081815260200182805461036190610bf2565b80156103ae5780601f10610383576101008083540402835291602001916103ae565b820191906000526020600020905b81548152906001019060200180831161039157829003601f168201915b505050505093508080546103c190610bf2565b80601f01602080910402602001604051908101604052809291908181526020018280546103ed90610bf2565b801561043a5780601f1061040f5761010080835404028352916020019161043a565b820191906000526020600020905b81548152906001019060200180831161041d57829003601f168201915b50505050509050975097509750975097509750975097509091929394959697565b8273ffffffffffffffffffffffffffffffffffffffff166002836004811061048657610485610c24565b5b0160009054906101000a900473ffffffffffffffffffffffffffffffffffffffff1673ffffffffffffffffffffffffffffffffffffffff16146104c857600080fd5b6004826104d59190610b6d565b60078111156104e7576104e6610b0f565b5b60078111156104f9576104f8610b0f565b5b600660149054906101000a900460ff16600781111561051b5761051a610b0f565b5b1461052557600080fd5b600181141561059c576001600660149054906101000a900460ff16600781111561055257610551610b0f565b5b61055c9190610c53565b600781111561056e5761056d610b0f565b5b600660146101000a81548160ff0219169083600781111561059257610591610b0f565b5b021790555061065c565b8160078111156105af576105ae610b0f565b5b600660146101000a81548160ff021916908360078111156105d3576105d2610b0f565b5b021790555082600760006101000a81548173ffffffffffffffffffffffffffffffffffffffff021916908373ffffffffffffffffffffffffffffffffffffffff1602179055506000600660006101000a81548173ffffffffffffffffffffffffffffffffffffffff021916908373ffffffffffffffffffffffffffffffffffffffff1602179055505b505050565b8373ffffffffffffffffffffffffffffffffffffffff16600760009054906101000a900473ffffffffffffffffffffffffffffffffffffffff1673ffffffffffffffffffffffffffffffffffffffff16146106bb57600080fd5b82600660006101000a81548173ffffffffffffffffffffffffffffffffffffffff021916908373ffffffffffffffffffffffffffffffffffffffff16021790555081600260018361070c9190610b6d565b6004811061071d5761071c610c24565b5b0160006101000a81548173ffffffffffffffffffffffffffffffffffffffff021916908373ffffffffffffffffffffffffffffffffffffffff16021790555050505050565b6040518060800160405280600490602082028036833780820191505090505090565b600080fd5b600073ffffffffffffffffffffffffffffffffffffffff82169050919050565b60006107b482610789565b9050919050565b6107c4816107a9565b81146107cf57600080fd5b50565b6000813590506107e1816107bb565b92915050565b6000819050919050565b6107fa816107e7565b811461080557600080fd5b50565b600081359050610817816107f1565b92915050565b6000806040838503121561083457610833610784565b5b6000610842858286016107d2565b925050602061085385828601610808565b9150509250929050565b600081519050919050565b600082825260208201905092915050565b60005b8381101561089757808201518184015260208101905061087c565b838111156108a6576000848401525b50505050565b6000601f19601f8301169050919050565b60006108c88261085d565b6108d28185610868565b93506108e2818560208601610879565b6108eb816108ac565b840191505092915050565b6108ff816107e7565b82525050565b600060049050919050565b600081905092915050565b6000819050919050565b61092e816107a9565b82525050565b60006109408383610925565b60208301905092915050565b6000602082019050919050565b61096281610905565b61096c8184610910565b92506109778261091b565b8060005b838110156109a857815161098f8782610934565b965061099a8361094c565b92505060018101905061097b565b505050505050565b6109b9816107a9565b82525050565b60006101608201905081810360008301526109da818b6108bd565b90506109e9602083018a6108f6565b6109f660408301896108f6565b610a036060830188610959565b81810360e0830152610a1581876108bd565b9050610a256101008301866109b0565b610a336101208301856108f6565b818103610140830152610a4681846108bd565b90509998505050505050505050565b600080600060608486031215610a6e57610a6d610784565b5b6000610a7c868287016107d2565b9350506020610a8d86828701610808565b9250506040610a9e86828701610808565b9150509250925092565b60008060008060808587031215610ac257610ac1610784565b5b6000610ad0878288016107d2565b9450506020610ae1878288016107d2565b9350506040610af2878288016107d2565b9250506060610b0387828801610808565b91505092959194509250565b7f4e487b7100000000000000000000000000000000000000000000000000000000600052602160045260246000fd5b7f4e487b7100000000000000000000000000000000000000000000000000000000600052601160045260246000fd5b6000610b78826107e7565b9150610b83836107e7565b9250827fffffffffffffffffffffffffffffffffffffffffffffffffffffffffffffffff03821115610bb857610bb7610b3e565b5b828201905092915050565b7f4e487b7100000000000000000000000000000000000000000000000000000000600052602260045260246000fd5b60006002820490506001821680610c0a57607f821691505b60208210811415610c1e57610c1d610bc3565b5b50919050565b7f4e487b7100000000000000000000000000000000000000000000000000000000600052603260045260246000fd5b6000610c5e826107e7565b9150610c69836107e7565b925082821015610c7c57610c7b610b3e565b5b82820390509291505056fea264697066735822122066b274b1ff0cf9c6235f9cbd66fcb9f94d02a06cea85f759a50bf47257b29ca064736f6c634300080c0033","opcodes":"PUSH1 0x80 PUSH1 0x40 MSTORE CALLVALUE DUP1 ISZERO PUSH3 0x11 JUMPI PUSH1 0x0 DUP1 REVERT JUMPDEST POP PUSH1 0x40 MLOAD PUSH3 0x12EE CODESIZE SUB DUP1 PUSH3 0x12EE DUP4 CODECOPY DUP2 DUP2 ADD PUSH1 0x40 MSTORE DUP2 ADD SWAP1 PUSH3 0x37 SWAP2 SWAP1 PUSH3 0x465 JUMP JUMPDEST DUP6 PUSH1 0x2 PUSH1 0x0 PUSH1 0x4 DUP2 LT PUSH3 0x50 JUMPI PUSH3 0x4F PUSH3 0x55E JUMP JUMPDEST JUMPDEST ADD PUSH1 0x0 PUSH2 0x100 EXP DUP2 SLOAD DUP2 PUSH20 0xFFFFFFFFFFFFFFFFFFFFFFFFFFFFFFFFFFFFFFFF MUL NOT AND SWAP1 DUP4 PUSH20 0xFFFFFFFFFFFFFFFFFFFFFFFFFFFFFFFFFFFFFFFF AND MUL OR SWAP1 SSTORE POP DUP6 PUSH1 0x7 PUSH1 0x0 PUSH2 0x100 EXP DUP2 SLOAD DUP2 PUSH20 0xFFFFFFFFFFFFFFFFFFFFFFFFFFFFFFFFFFFFFFFF MUL NOT AND SWAP1 DUP4 PUSH20 0xFFFFFFFFFFFFFFFFFFFFFFFFFFFFFFFFFFFFFFFF AND MUL OR SWAP1 SSTORE POP DUP5 PUSH1 0x0 SWAP1 DUP1 MLOAD SWAP1 PUSH1 0x20 ADD SWAP1 PUSH3 0xE8 SWAP3 SWAP2 SWAP1 PUSH3 0x178 JUMP JUMPDEST POP DUP4 PUSH1 0x1 DUP2 SWAP1 SSTORE POP DUP3 PUSH1 0x8 SWAP1 DUP1 MLOAD SWAP1 PUSH1 0x20 ADD SWAP1 PUSH3 0x108 SWAP3 SWAP2 SWAP1 PUSH3 0x178 JUMP JUMPDEST POP DUP2 PUSH1 0x9 DUP2 SWAP1 SSTORE POP DUP1 PUSH1 0xA SWAP1 DUP1 MLOAD SWAP1 PUSH1 0x20 ADD SWAP1 PUSH3 0x128 SWAP3 SWAP2 SWAP1 PUSH3 0x178 JUMP JUMPDEST POP PUSH1 0x0 PUSH1 0x7 DUP2 GT ISZERO PUSH3 0x140 JUMPI PUSH3 0x13F PUSH3 0x58D JUMP JUMPDEST JUMPDEST PUSH1 0x6 PUSH1 0x14 PUSH2 0x100 EXP DUP2 SLOAD DUP2 PUSH1 0xFF MUL NOT AND SWAP1 DUP4 PUSH1 0x7 DUP2 GT ISZERO PUSH3 0x167 JUMPI PUSH3 0x166 PUSH3 0x58D JUMP JUMPDEST JUMPDEST MUL OR SWAP1 SSTORE POP POP POP POP POP POP POP PUSH3 0x621 JUMP JUMPDEST DUP3 DUP1 SLOAD PUSH3 0x186 SWAP1 PUSH3 0x5EB JUMP JUMPDEST SWAP1 PUSH1 0x0 MSTORE PUSH1 0x20 PUSH1 0x0 KECCAK256 SWAP1 PUSH1 0x1F ADD PUSH1 0x20 SWAP1 DIV DUP2 ADD SWAP3 DUP3 PUSH3 0x1AA JUMPI PUSH1 0x0 DUP6 SSTORE PUSH3 0x1F6 JUMP JUMPDEST DUP3 PUSH1 0x1F LT PUSH3 0x1C5 JUMPI DUP1 MLOAD PUSH1 0xFF NOT AND DUP4 DUP1 ADD OR DUP6 SSTORE PUSH3 0x1F6 JUMP JUMPDEST DUP3 DUP1 ADD PUSH1 0x1 ADD DUP6 SSTORE DUP3 ISZERO PUSH3 0x1F6 JUMPI SWAP2 DUP3 ADD JUMPDEST DUP3 DUP2 GT ISZERO PUSH3 0x1F5 JUMPI DUP3 MLOAD DUP3 SSTORE SWAP2 PUSH1 0x20 ADD SWAP2 SWAP1 PUSH1 0x1 ADD SWAP1 PUSH3 0x1D8 JUMP JUMPDEST JUMPDEST POP SWAP1 POP PUSH3 0x205 SWAP2 SWAP1 PUSH3 0x209 JUMP JUMPDEST POP SWAP1 JUMP JUMPDEST JUMPDEST DUP1 DUP3 GT ISZERO PUSH3 0x224 JUMPI PUSH1 0x0 DUP2 PUSH1 0x0 SWAP1 SSTORE POP PUSH1 0x1 ADD PUSH3 0x20A JUMP JUMPDEST POP SWAP1 JUMP JUMPDEST PUSH1 0x0 PUSH1 0x40 MLOAD SWAP1 POP SWAP1 JUMP JUMPDEST PUSH1 0x0 DUP1 REVERT JUMPDEST PUSH1 0x0 DUP1 REVERT JUMPDEST PUSH1 0x0 PUSH20 0xFFFFFFFFFFFFFFFFFFFFFFFFFFFFFFFFFFFFFFFF DUP3 AND SWAP1 POP SWAP2 SWAP1 POP JUMP JUMPDEST PUSH1 0x0 PUSH3 0x269 DUP3 PUSH3 0x23C JUMP JUMPDEST SWAP1 POP SWAP2 SWAP1 POP JUMP JUMPDEST PUSH3 0x27B DUP2 PUSH3 0x25C JUMP JUMPDEST DUP2 EQ PUSH3 0x287 JUMPI PUSH1 0x0 DUP1 REVERT JUMPDEST POP JUMP JUMPDEST PUSH1 0x0 DUP2 MLOAD SWAP1 POP PUSH3 0x29B DUP2 PUSH3 0x270 JUMP JUMPDEST SWAP3 SWAP2 POP POP JUMP JUMPDEST PUSH1 0x0 DUP1 REVERT JUMPDEST PUSH1 0x0 DUP1 REVERT JUMPDEST PUSH1 0x0 PUSH1 0x1F NOT PUSH1 0x1F DUP4 ADD AND SWAP1 POP SWAP2 SWAP1 POP JUMP JUMPDEST PUSH32 0x4E487B7100000000000000000000000000000000000000000000000000000000 PUSH1 0x0 MSTORE PUSH1 0x41 PUSH1 0x4 MSTORE PUSH1 0x24 PUSH1 0x0 REVERT JUMPDEST PUSH3 0x2F6 DUP3 PUSH3 0x2AB JUMP JUMPDEST DUP2 ADD DUP2 DUP2 LT PUSH8 0xFFFFFFFFFFFFFFFF DUP3 GT OR ISZERO PUSH3 0x318 JUMPI PUSH3 0x317 PUSH3 0x2BC JUMP JUMPDEST JUMPDEST DUP1 PUSH1 0x40 MSTORE POP POP POP JUMP JUMPDEST PUSH1 0x0 PUSH3 0x32D PUSH3 0x228 JUMP JUMPDEST SWAP1 POP PUSH3 0x33B DUP3 DUP3 PUSH3 0x2EB JUMP JUMPDEST SWAP2 SWAP1 POP JUMP JUMPDEST PUSH1 0x0 PUSH8 0xFFFFFFFFFFFFFFFF DUP3 GT ISZERO PUSH3 0x35E JUMPI PUSH3 0x35D PUSH3 0x2BC JUMP JUMPDEST JUMPDEST PUSH3 0x369 DUP3 PUSH3 0x2AB JUMP JUMPDEST SWAP1 POP PUSH1 0x20 DUP2 ADD SWAP1 POP SWAP2 SWAP1 POP JUMP JUMPDEST PUSH1 0x0 JUMPDEST DUP4 DUP2 LT ISZERO PUSH3 0x396 JUMPI DUP1 DUP3 ADD MLOAD DUP2 DUP5 ADD MSTORE PUSH1 0x20 DUP2 ADD SWAP1 POP PUSH3 0x379 JUMP JUMPDEST DUP4 DUP2 GT ISZERO PUSH3 0x3A6 JUMPI PUSH1 0x0 DUP5 DUP5 ADD MSTORE JUMPDEST POP POP POP POP JUMP JUMPDEST PUSH1 0x0 PUSH3 0x3C3 PUSH3 0x3BD DUP5 PUSH3 0x340 JUMP JUMPDEST PUSH3 0x321 JUMP JUMPDEST SWAP1 POP DUP3 DUP2 MSTORE PUSH1 0x20 DUP2 ADD DUP5 DUP5 DUP5 ADD GT ISZERO PUSH3 0x3E2 JUMPI PUSH3 0x3E1 PUSH3 0x2A6 JUMP JUMPDEST JUMPDEST PUSH3 0x3EF DUP5 DUP3 DUP6 PUSH3 0x376 JUMP JUMPDEST POP SWAP4 SWAP3 POP POP POP JUMP JUMPDEST PUSH1 0x0 DUP3 PUSH1 0x1F DUP4 ADD SLT PUSH3 0x40F JUMPI PUSH3 0x40E PUSH3 0x2A1 JUMP JUMPDEST JUMPDEST DUP2 MLOAD PUSH3 0x421 DUP5 DUP3 PUSH1 0x20 DUP7 ADD PUSH3 0x3AC JUMP JUMPDEST SWAP2 POP POP SWAP3 SWAP2 POP POP JUMP JUMPDEST PUSH1 0x0 DUP2 SWAP1 POP SWAP2 SWAP1 POP JUMP JUMPDEST PUSH3 0x43F DUP2 PUSH3 0x42A JUMP JUMPDEST DUP2 EQ PUSH3 0x44B JUMPI PUSH1 0x0 DUP1 REVERT JUMPDEST POP JUMP JUMPDEST PUSH1 0x0 DUP2 MLOAD SWAP1 POP PUSH3 0x45F DUP2 PUSH3 0x434 JUMP JUMPDEST SWAP3 SWAP2 POP POP JUMP JUMPDEST PUSH1 0x0 DUP1 PUSH1 0x0 DUP1 PUSH1 0x0 DUP1 PUSH1 0xC0 DUP8 DUP10 SUB SLT ISZERO PUSH3 0x485 JUMPI PUSH3 0x484 PUSH3 0x232 JUMP JUMPDEST JUMPDEST PUSH1 0x0 PUSH3 0x495 DUP10 DUP3 DUP11 ADD PUSH3 0x28A JUMP JUMPDEST SWAP7 POP POP PUSH1 0x20 DUP8 ADD MLOAD PUSH8 0xFFFFFFFFFFFFFFFF DUP2 GT ISZERO PUSH3 0x4B9 JUMPI PUSH3 0x4B8 PUSH3 0x237 JUMP JUMPDEST JUMPDEST PUSH3 0x4C7 DUP10 DUP3 DUP11 ADD PUSH3 0x3F7 JUMP JUMPDEST SWAP6 POP POP PUSH1 0x40 PUSH3 0x4DA DUP10 DUP3 DUP11 ADD PUSH3 0x44E JUMP JUMPDEST SWAP5 POP POP PUSH1 0x60 DUP8 ADD MLOAD PUSH8 0xFFFFFFFFFFFFFFFF DUP2 GT ISZERO PUSH3 0x4FE JUMPI PUSH3 0x4FD PUSH3 0x237 JUMP JUMPDEST JUMPDEST PUSH3 0x50C DUP10 DUP3 DUP11 ADD PUSH3 0x3F7 JUMP JUMPDEST SWAP4 POP POP PUSH1 0x80 PUSH3 0x51F DUP10 DUP3 DUP11 ADD PUSH3 0x44E JUMP JUMPDEST SWAP3 POP POP PUSH1 0xA0 DUP8 ADD MLOAD PUSH8 0xFFFFFFFFFFFFFFFF DUP2 GT ISZERO PUSH3 0x543 JUMPI PUSH3 0x542 PUSH3 0x237 JUMP JUMPDEST JUMPDEST PUSH3 0x551 DUP10 DUP3 DUP11 ADD PUSH3 0x3F7 JUMP JUMPDEST SWAP2 POP POP SWAP3 SWAP6 POP SWAP3 SWAP6 POP SWAP3 SWAP6 JUMP JUMPDEST PUSH32 0x4E487B7100000000000000000000000000000000000000000000000000000000 PUSH1 0x0 MSTORE PUSH1 0x32 PUSH1 0x4 MSTORE PUSH1 0x24 PUSH1 0x0 REVERT JUMPDEST PUSH32 0x4E487B7100000000000000000000000000000000000000000000000000000000 PUSH1 0x0 MSTORE PUSH1 0x21 PUSH1 0x4 MSTORE PUSH1 0x24 PUSH1 0x0 REVERT JUMPDEST PUSH32 0x4E487B7100000000000000000000000000000000000000000000000000000000 PUSH1 0x0 MSTORE PUSH1 0x22 PUSH1 0x4 MSTORE PUSH1 0x24 PUSH1 0x0 REVERT JUMPDEST PUSH1 0x0 PUSH1 0x2 DUP3 DIV SWAP1 POP PUSH1 0x1 DUP3 AND DUP1 PUSH3 0x604 JUMPI PUSH1 0x7F DUP3 AND SWAP2 POP JUMPDEST PUSH1 0x20 DUP3 LT DUP2 EQ ISZERO PUSH3 0x61B JUMPI PUSH3 0x61A PUSH3 0x5BC JUMP JUMPDEST JUMPDEST POP SWAP2 SWAP1 POP JUMP JUMPDEST PUSH2 0xCBD DUP1 PUSH3 0x631 PUSH1 0x0 CODECOPY PUSH1 0x0 RETURN INVALID PUSH1 0x80 PUSH1 0x40 MSTORE CALLVALUE DUP1 ISZERO PUSH2 0x10 JUMPI PUSH1 0x0 DUP1 REVERT JUMPDEST POP PUSH1 0x4 CALLDATASIZE LT PUSH2 0x4C JUMPI PUSH1 0x0 CALLDATALOAD PUSH1 0xE0 SHR DUP1 PUSH4 0x2040A8DE EQ PUSH2 0x51 JUMPI DUP1 PUSH4 0x5A9B0B89 EQ PUSH2 0x6D JUMPI DUP1 PUSH4 0xA0C741B0 EQ PUSH2 0x92 JUMPI DUP1 PUSH4 0xD074892D EQ PUSH2 0xAE JUMPI JUMPDEST PUSH1 0x0 DUP1 REVERT JUMPDEST PUSH2 0x6B PUSH1 0x4 DUP1 CALLDATASIZE SUB DUP2 ADD SWAP1 PUSH2 0x66 SWAP2 SWAP1 PUSH2 0x81D JUMP JUMPDEST PUSH2 0xCA JUMP JUMPDEST STOP JUMPDEST PUSH2 0x75 PUSH2 0x1C1 JUMP JUMPDEST PUSH1 0x40 MLOAD PUSH2 0x89 SWAP9 SWAP8 SWAP7 SWAP6 SWAP5 SWAP4 SWAP3 SWAP2 SWAP1 PUSH2 0x9BF JUMP JUMPDEST PUSH1 0x40 MLOAD DUP1 SWAP2 SUB SWAP1 RETURN JUMPDEST PUSH2 0xAC PUSH1 0x4 DUP1 CALLDATASIZE SUB DUP2 ADD SWAP1 PUSH2 0xA7 SWAP2 SWAP1 PUSH2 0xA55 JUMP JUMPDEST PUSH2 0x45B JUMP JUMPDEST STOP JUMPDEST PUSH2 0xC8 PUSH1 0x4 DUP1 CALLDATASIZE SUB DUP2 ADD SWAP1 PUSH2 0xC3 SWAP2 SWAP1 PUSH2 0xAA8 JUMP JUMPDEST PUSH2 0x661 JUMP JUMPDEST STOP JUMPDEST DUP2 PUSH20 0xFFFFFFFFFFFFFFFFFFFFFFFFFFFFFFFFFFFFFFFF AND PUSH1 0x6 PUSH1 0x0 SWAP1 SLOAD SWAP1 PUSH2 0x100 EXP SWAP1 DIV PUSH20 0xFFFFFFFFFFFFFFFFFFFFFFFFFFFFFFFFFFFFFFFF AND PUSH20 0xFFFFFFFFFFFFFFFFFFFFFFFFFFFFFFFFFFFFFFFF AND EQ PUSH2 0x124 JUMPI PUSH1 0x0 DUP1 REVERT JUMPDEST DUP1 PUSH1 0x7 DUP2 GT ISZERO PUSH2 0x137 JUMPI PUSH2 0x136 PUSH2 0xB0F JUMP JUMPDEST JUMPDEST PUSH1 0x7 DUP2 GT ISZERO PUSH2 0x149 JUMPI PUSH2 0x148 PUSH2 0xB0F JUMP JUMPDEST JUMPDEST PUSH1 0x6 PUSH1 0x14 SWAP1 SLOAD SWAP1 PUSH2 0x100 EXP SWAP1 DIV PUSH1 0xFF AND PUSH1 0x7 DUP2 GT ISZERO PUSH2 0x16B JUMPI PUSH2 0x16A PUSH2 0xB0F JUMP JUMPDEST JUMPDEST EQ PUSH2 0x175 JUMPI PUSH1 0x0 DUP1 REVERT JUMPDEST PUSH1 0x5 DUP2 PUSH2 0x182 SWAP2 SWAP1 PUSH2 0xB6D JUMP JUMPDEST PUSH1 0x7 DUP2 GT ISZERO PUSH2 0x194 JUMPI PUSH2 0x193 PUSH2 0xB0F JUMP JUMPDEST JUMPDEST PUSH1 0x6 PUSH1 0x14 PUSH2 0x100 EXP DUP2 SLOAD DUP2 PUSH1 0xFF MUL NOT AND SWAP1 DUP4 PUSH1 0x7 DUP2 GT ISZERO PUSH2 0x1B8 JUMPI PUSH2 0x1B7 PUSH2 0xB0F JUMP JUMPDEST JUMPDEST MUL OR SWAP1 SSTORE POP POP POP JUMP JUMPDEST PUSH1 0x60 PUSH1 0x0 DUP1 PUSH2 0x1CE PUSH2 0x762 JUMP JUMPDEST PUSH1 0x60 PUSH1 0x0 DUP1 PUSH1 0x60 PUSH1 0x0 PUSH1 0x1 SLOAD PUSH1 0x6 PUSH1 0x14 SWAP1 SLOAD SWAP1 PUSH2 0x100 EXP SWAP1 DIV PUSH1 0xFF AND PUSH1 0x7 DUP2 GT ISZERO PUSH2 0x1FC JUMPI PUSH2 0x1FB PUSH2 0xB0F JUMP JUMPDEST JUMPDEST PUSH1 0x2 PUSH1 0x8 PUSH1 0x7 PUSH1 0x0 SWAP1 SLOAD SWAP1 PUSH2 0x100 EXP SWAP1 DIV PUSH20 0xFFFFFFFFFFFFFFFFFFFFFFFFFFFFFFFFFFFFFFFF AND PUSH1 0x9 SLOAD PUSH1 0xA DUP8 DUP1 SLOAD PUSH2 0x234 SWAP1 PUSH2 0xBF2 JUMP JUMPDEST DUP1 PUSH1 0x1F ADD PUSH1 0x20 DUP1 SWAP2 DIV MUL PUSH1 0x20 ADD PUSH1 0x40 MLOAD SWAP1 DUP2 ADD PUSH1 0x40 MSTORE DUP1 SWAP3 SWAP2 SWAP1 DUP2 DUP2 MSTORE PUSH1 0x20 ADD DUP3 DUP1 SLOAD PUSH2 0x260 SWAP1 PUSH2 0xBF2 JUMP JUMPDEST DUP1 ISZERO PUSH2 0x2AD JUMPI DUP1 PUSH1 0x1F LT PUSH2 0x282 JUMPI PUSH2 0x100 DUP1 DUP4 SLOAD DIV MUL DUP4 MSTORE SWAP2 PUSH1 0x20 ADD SWAP2 PUSH2 0x2AD JUMP JUMPDEST DUP3 ADD SWAP2 SWAP1 PUSH1 0x0 MSTORE PUSH1 0x20 PUSH1 0x0 KECCAK256 SWAP1 JUMPDEST DUP2 SLOAD DUP2 MSTORE SWAP1 PUSH1 0x1 ADD SWAP1 PUSH1 0x20 ADD DUP1 DUP4 GT PUSH2 0x290 JUMPI DUP3 SWAP1 SUB PUSH1 0x1F AND DUP3 ADD SWAP2 JUMPDEST POP POP POP POP POP SWAP8 POP DUP5 PUSH1 0x4 DUP1 PUSH1 0x20 MUL PUSH1 0x40 MLOAD SWAP1 DUP2 ADD PUSH1 0x40 MSTORE DUP1 SWAP3 SWAP2 SWAP1 DUP3 PUSH1 0x4 DUP1 ISZERO PUSH2 0x322 JUMPI PUSH1 0x20 MUL DUP3 ADD SWAP2 JUMPDEST DUP2 PUSH1 0x0 SWAP1 SLOAD SWAP1 PUSH2 0x100 EXP SWAP1 DIV PUSH20 0xFFFFFFFFFFFFFFFFFFFFFFFFFFFFFFFFFFFFFFFF AND PUSH20 0xFFFFFFFFFFFFFFFFFFFFFFFFFFFFFFFFFFFFFFFF AND DUP2 MSTORE PUSH1 0x20 ADD SWAP1 PUSH1 0x1 ADD SWAP1 DUP1 DUP4 GT PUSH2 0x2D8 JUMPI JUMPDEST POP POP POP POP POP SWAP5 POP DUP4 DUP1 SLOAD PUSH2 0x335 SWAP1 PUSH2 0xBF2 JUMP JUMPDEST DUP1 PUSH1 0x1F ADD PUSH1 0x20 DUP1 SWAP2 DIV MUL PUSH1 0x20 ADD PUSH1 0x40 MLOAD SWAP1 DUP2 ADD PUSH1 0x40 MSTORE DUP1 SWAP3 SWAP2 SWAP1 DUP2 DUP2 MSTORE PUSH1 0x20 ADD DUP3 DUP1 SLOAD PUSH2 0x361 SWAP1 PUSH2 0xBF2 JUMP JUMPDEST DUP1 ISZERO PUSH2 0x3AE JUMPI DUP1 PUSH1 0x1F LT PUSH2 0x383 JUMPI PUSH2 0x100 DUP1 DUP4 SLOAD DIV MUL DUP4 MSTORE SWAP2 PUSH1 0x20 ADD SWAP2 PUSH2 0x3AE JUMP JUMPDEST DUP3 ADD SWAP2 SWAP1 PUSH1 0x0 MSTORE PUSH1 0x20 PUSH1 0x0 KECCAK256 SWAP1 JUMPDEST DUP2 SLOAD DUP2 MSTORE SWAP1 PUSH1 0x1 ADD SWAP1 PUSH1 0x20 ADD DUP1 DUP4 GT PUSH2 0x391 JUMPI DUP3 SWAP1 SUB PUSH1 0x1F AND DUP3 ADD SWAP2 JUMPDEST POP POP POP POP POP SWAP4 POP DUP1 DUP1 SLOAD PUSH2 0x3C1 SWAP1 PUSH2 0xBF2 JUMP JUMPDEST DUP1 PUSH1 0x1F ADD PUSH1 0x20 DUP1 SWAP2 DIV MUL PUSH1 0x20 ADD PUSH1 0x40 MLOAD SWAP1 DUP2 ADD PUSH1 0x40 MSTORE DUP1 SWAP3 SWAP2 SWAP1 DUP2 DUP2 MSTORE PUSH1 0x20 ADD DUP3 DUP1 SLOAD PUSH2 0x3ED SWAP1 PUSH2 0xBF2 JUMP JUMPDEST DUP1 ISZERO PUSH2 0x43A JUMPI DUP1 PUSH1 0x1F LT PUSH2 0x40F JUMPI PUSH2 0x100 DUP1 DUP4 SLOAD DIV MUL DUP4 MSTORE SWAP2 PUSH1 0x20 ADD SWAP2 PUSH2 0x43A JUMP JUMPDEST DUP3 ADD SWAP2 SWAP1 PUSH1 0x0 MSTORE PUSH1 0x20 PUSH1 0x0 KECCAK256 SWAP1 JUMPDEST DUP2 SLOAD DUP2 MSTORE SWAP1 PUSH1 0x1 ADD SWAP1 PUSH1 0x20 ADD DUP1 DUP4 GT PUSH2 0x41D JUMPI DUP3 SWAP1 SUB PUSH1 0x1F AND DUP3 ADD SWAP2 JUMPDEST POP POP POP POP POP SWAP1 POP SWAP8 POP SWAP8 POP SWAP8 POP SWAP8 POP SWAP8 POP SWAP8 POP SWAP8 POP SWAP8 POP SWAP1 SWAP2 SWAP3 SWAP4 SWAP5 SWAP6 SWAP7 SWAP8 JUMP JUMPDEST DUP3 PUSH20 0xFFFFFFFFFFFFFFFFFFFFFFFFFFFFFFFFFFFFFFFF AND PUSH1 0x2 DUP4 PUSH1 0x4 DUP2 LT PUSH2 0x486 JUMPI PUSH2 0x485 PUSH2 0xC24 JUMP JUMPDEST JUMPDEST ADD PUSH1 0x0 SWAP1 SLOAD SWAP1 PUSH2 0x100 EXP SWAP1 DIV PUSH20 0xFFFFFFFFFFFFFFFFFFFFFFFFFFFFFFFFFFFFFFFF AND PUSH20 0xFFFFFFFFFFFFFFFFFFFFFFFFFFFFFFFFFFFFFFFF AND EQ PUSH2 0x4C8 JUMPI PUSH1 0x0 DUP1 REVERT JUMPDEST PUSH1 0x4 DUP3 PUSH2 0x4D5 SWAP2 SWAP1 PUSH2 0xB6D JUMP JUMPDEST PUSH1 0x7 DUP2 GT ISZERO PUSH2 0x4E7 JUMPI PUSH2 0x4E6 PUSH2 0xB0F JUMP JUMPDEST JUMPDEST PUSH1 0x7 DUP2 GT ISZERO PUSH2 0x4F9 JUMPI PUSH2 0x4F8 PUSH2 0xB0F JUMP JUMPDEST JUMPDEST PUSH1 0x6 PUSH1 0x14 SWAP1 SLOAD SWAP1 PUSH2 0x100 EXP SWAP1 DIV PUSH1 0xFF AND PUSH1 0x7 DUP2 GT ISZERO PUSH2 0x51B JUMPI PUSH2 0x51A PUSH2 0xB0F JUMP JUMPDEST JUMPDEST EQ PUSH2 0x525 JUMPI PUSH1 0x0 DUP1 REVERT JUMPDEST PUSH1 0x1 DUP2 EQ ISZERO PUSH2 0x59C JUMPI PUSH1 0x1 PUSH1 0x6 PUSH1 0x14 SWAP1 SLOAD SWAP1 PUSH2 0x100 EXP SWAP1 DIV PUSH1 0xFF AND PUSH1 0x7 DUP2 GT ISZERO PUSH2 0x552 JUMPI PUSH2 0x551 PUSH2 0xB0F JUMP JUMPDEST JUMPDEST PUSH2 0x55C SWAP2 SWAP1 PUSH2 0xC53 JUMP JUMPDEST PUSH1 0x7 DUP2 GT ISZERO PUSH2 0x56E JUMPI PUSH2 0x56D PUSH2 0xB0F JUMP JUMPDEST JUMPDEST PUSH1 0x6 PUSH1 0x14 PUSH2 0x100 EXP DUP2 SLOAD DUP2 PUSH1 0xFF MUL NOT AND SWAP1 DUP4 PUSH1 0x7 DUP2 GT ISZERO PUSH2 0x592 JUMPI PUSH2 0x591 PUSH2 0xB0F JUMP JUMPDEST JUMPDEST MUL OR SWAP1 SSTORE POP PUSH2 0x65C JUMP JUMPDEST DUP2 PUSH1 0x7 DUP2 GT ISZERO PUSH2 0x5AF JUMPI PUSH2 0x5AE PUSH2 0xB0F JUMP JUMPDEST JUMPDEST PUSH1 0x6 PUSH1 0x14 PUSH2 0x100 EXP DUP2 SLOAD DUP2 PUSH1 0xFF MUL NOT AND SWAP1 DUP4 PUSH1 0x7 DUP2 GT ISZERO PUSH2 0x5D3 JUMPI PUSH2 0x5D2 PUSH2 0xB0F JUMP JUMPDEST JUMPDEST MUL OR SWAP1 SSTORE POP DUP3 PUSH1 0x7 PUSH1 0x0 PUSH2 0x100 EXP DUP2 SLOAD DUP2 PUSH20 0xFFFFFFFFFFFFFFFFFFFFFFFFFFFFFFFFFFFFFFFF MUL NOT AND SWAP1 DUP4 PUSH20 0xFFFFFFFFFFFFFFFFFFFFFFFFFFFFFFFFFFFFFFFF AND MUL OR SWAP1 SSTORE POP PUSH1 0x0 PUSH1 0x6 PUSH1 0x0 PUSH2 0x100 EXP DUP2 SLOAD DUP2 PUSH20 0xFFFFFFFFFFFFFFFFFFFFFFFFFFFFFFFFFFFFFFFF MUL NOT AND SWAP1 DUP4 PUSH20 0xFFFFFFFFFFFFFFFFFFFFFFFFFFFFFFFFFFFFFFFF AND MUL OR SWAP1 SSTORE POP JUMPDEST POP POP POP JUMP JUMPDEST DUP4 PUSH20 0xFFFFFFFFFFFFFFFFFFFFFFFFFFFFFFFFFFFFFFFF AND PUSH1 0x7 PUSH1 0x0 SWAP1 SLOAD SWAP1 PUSH2 0x100 EXP SWAP1 DIV PUSH20 0xFFFFFFFFFFFFFFFFFFFFFFFFFFFFFFFFFFFFFFFF AND PUSH20 0xFFFFFFFFFFFFFFFFFFFFFFFFFFFFFFFFFFFFFFFF AND EQ PUSH2 0x6BB JUMPI PUSH1 0x0 DUP1 REVERT JUMPDEST DUP3 PUSH1 0x6 PUSH1 0x0 PUSH2 0x100 EXP DUP2 SLOAD DUP2 PUSH20 0xFFFFFFFFFFFFFFFFFFFFFFFFFFFFFFFFFFFFFFFF MUL NOT AND SWAP1 DUP4 PUSH20 0xFFFFFFFFFFFFFFFFFFFFFFFFFFFFFFFFFFFFFFFF AND MUL OR SWAP1 SSTORE POP DUP2 PUSH1 0x2 PUSH1 0x1 DUP4 PUSH2 0x70C SWAP2 SWAP1 PUSH2 0xB6D JUMP JUMPDEST PUSH1 0x4 DUP2 LT PUSH2 0x71D JUMPI PUSH2 0x71C PUSH2 0xC24 JUMP JUMPDEST JUMPDEST ADD PUSH1 0x0 PUSH2 0x100 EXP DUP2 SLOAD DUP2 PUSH20 0xFFFFFFFFFFFFFFFFFFFFFFFFFFFFFFFFFFFFFFFF MUL NOT AND SWAP1 DUP4 PUSH20 0xFFFFFFFFFFFFFFFFFFFFFFFFFFFFFFFFFFFFFFFF AND MUL OR SWAP1 SSTORE POP POP POP POP POP JUMP JUMPDEST PUSH1 0x40 MLOAD DUP1 PUSH1 0x80 ADD PUSH1 0x40 MSTORE DUP1 PUSH1 0x4 SWAP1 PUSH1 0x20 DUP3 MUL DUP1 CALLDATASIZE DUP4 CALLDATACOPY DUP1 DUP3 ADD SWAP2 POP POP SWAP1 POP POP SWAP1 JUMP JUMPDEST PUSH1 0x0 DUP1 REVERT JUMPDEST PUSH1 0x0 PUSH20 0xFFFFFFFFFFFFFFFFFFFFFFFFFFFFFFFFFFFFFFFF DUP3 AND SWAP1 POP SWAP2 SWAP1 POP JUMP JUMPDEST PUSH1 0x0 PUSH2 0x7B4 DUP3 PUSH2 0x789 JUMP JUMPDEST SWAP1 POP SWAP2 SWAP1 POP JUMP JUMPDEST PUSH2 0x7C4 DUP2 PUSH2 0x7A9 JUMP JUMPDEST DUP2 EQ PUSH2 0x7CF JUMPI PUSH1 0x0 DUP1 REVERT JUMPDEST POP JUMP JUMPDEST PUSH1 0x0 DUP2 CALLDATALOAD SWAP1 POP PUSH2 0x7E1 DUP2 PUSH2 0x7BB JUMP JUMPDEST SWAP3 SWAP2 POP POP JUMP JUMPDEST PUSH1 0x0 DUP2 SWAP1 POP SWAP2 SWAP1 POP JUMP JUMPDEST PUSH2 0x7FA DUP2 PUSH2 0x7E7 JUMP JUMPDEST DUP2 EQ PUSH2 0x805 JUMPI PUSH1 0x0 DUP1 REVERT JUMPDEST POP JUMP JUMPDEST PUSH1 0x0 DUP2 CALLDATALOAD SWAP1 POP PUSH2 0x817 DUP2 PUSH2 0x7F1 JUMP JUMPDEST SWAP3 SWAP2 POP POP JUMP JUMPDEST PUSH1 0x0 DUP1 PUSH1 0x40 DUP4 DUP6 SUB SLT ISZERO PUSH2 0x834 JUMPI PUSH2 0x833 PUSH2 0x784 JUMP JUMPDEST JUMPDEST PUSH1 0x0 PUSH2 0x842 DUP6 DUP3 DUP7 ADD PUSH2 0x7D2 JUMP JUMPDEST SWAP3 POP POP PUSH1 0x20 PUSH2 0x853 DUP6 DUP3 DUP7 ADD PUSH2 0x808 JUMP JUMPDEST SWAP2 POP POP SWAP3 POP SWAP3 SWAP1 POP JUMP JUMPDEST PUSH1 0x0 DUP2 MLOAD SWAP1 POP SWAP2 SWAP1 POP JUMP JUMPDEST PUSH1 0x0 DUP3 DUP3 MSTORE PUSH1 0x20 DUP3 ADD SWAP1 POP SWAP3 SWAP2 POP POP JUMP JUMPDEST PUSH1 0x0 JUMPDEST DUP4 DUP2 LT ISZERO PUSH2 0x897 JUMPI DUP1 DUP3 ADD MLOAD DUP2 DUP5 ADD MSTORE PUSH1 0x20 DUP2 ADD SWAP1 POP PUSH2 0x87C JUMP JUMPDEST DUP4 DUP2 GT ISZERO PUSH2 0x8A6 JUMPI PUSH1 0x0 DUP5 DUP5 ADD MSTORE JUMPDEST POP POP POP POP JUMP JUMPDEST PUSH1 0x0 PUSH1 0x1F NOT PUSH1 0x1F DUP4 ADD AND SWAP1 POP SWAP2 SWAP1 POP JUMP JUMPDEST PUSH1 0x0 PUSH2 0x8C8 DUP3 PUSH2 0x85D JUMP JUMPDEST PUSH2 0x8D2 DUP2 DUP6 PUSH2 0x868 JUMP JUMPDEST SWAP4 POP PUSH2 0x8E2 DUP2 DUP6 PUSH1 0x20 DUP7 ADD PUSH2 0x879 JUMP JUMPDEST PUSH2 0x8EB DUP2 PUSH2 0x8AC JUMP JUMPDEST DUP5 ADD SWAP2 POP POP SWAP3 SWAP2 POP POP JUMP JUMPDEST PUSH2 0x8FF DUP2 PUSH2 0x7E7 JUMP JUMPDEST DUP3 MSTORE POP POP JUMP JUMPDEST PUSH1 0x0 PUSH1 0x4 SWAP1 POP SWAP2 SWAP1 POP JUMP JUMPDEST PUSH1 0x0 DUP2 SWAP1 POP SWAP3 SWAP2 POP POP JUMP JUMPDEST PUSH1 0x0 DUP2 SWAP1 POP SWAP2 SWAP1 POP JUMP JUMPDEST PUSH2 0x92E DUP2 PUSH2 0x7A9 JUMP JUMPDEST DUP3 MSTORE POP POP JUMP JUMPDEST PUSH1 0x0 PUSH2 0x940 DUP4 DUP4 PUSH2 0x925 JUMP JUMPDEST PUSH1 0x20 DUP4 ADD SWAP1 POP SWAP3 SWAP2 POP POP JUMP JUMPDEST PUSH1 0x0 PUSH1 0x20 DUP3 ADD SWAP1 POP SWAP2 SWAP1 POP JUMP JUMPDEST PUSH2 0x962 DUP2 PUSH2 0x905 JUMP JUMPDEST PUSH2 0x96C DUP2 DUP5 PUSH2 0x910 JUMP JUMPDEST SWAP3 POP PUSH2 0x977 DUP3 PUSH2 0x91B JUMP JUMPDEST DUP1 PUSH1 0x0 JUMPDEST DUP4 DUP2 LT ISZERO PUSH2 0x9A8 JUMPI DUP2 MLOAD PUSH2 0x98F DUP8 DUP3 PUSH2 0x934 JUMP JUMPDEST SWAP7 POP PUSH2 0x99A DUP4 PUSH2 0x94C JUMP JUMPDEST SWAP3 POP POP PUSH1 0x1 DUP2 ADD SWAP1 POP PUSH2 0x97B JUMP JUMPDEST POP POP POP POP POP POP JUMP JUMPDEST PUSH2 0x9B9 DUP2 PUSH2 0x7A9 JUMP JUMPDEST DUP3 MSTORE POP POP JUMP JUMPDEST PUSH1 0x0 PUSH2 0x160 DUP3 ADD SWAP1 POP DUP2 DUP2 SUB PUSH1 0x0 DUP4 ADD MSTORE PUSH2 0x9DA DUP2 DUP12 PUSH2 0x8BD JUMP JUMPDEST SWAP1 POP PUSH2 0x9E9 PUSH1 0x20 DUP4 ADD DUP11 PUSH2 0x8F6 JUMP JUMPDEST PUSH2 0x9F6 PUSH1 0x40 DUP4 ADD DUP10 PUSH2 0x8F6 JUMP JUMPDEST PUSH2 0xA03 PUSH1 0x60 DUP4 ADD DUP9 PUSH2 0x959 JUMP JUMPDEST DUP2 DUP2 SUB PUSH1 0xE0 DUP4 ADD MSTORE PUSH2 0xA15 DUP2 DUP8 PUSH2 0x8BD JUMP JUMPDEST SWAP1 POP PUSH2 0xA25 PUSH2 0x100 DUP4 ADD DUP7 PUSH2 0x9B0 JUMP JUMPDEST PUSH2 0xA33 PUSH2 0x120 DUP4 ADD DUP6 PUSH2 0x8F6 JUMP JUMPDEST DUP2 DUP2 SUB PUSH2 0x140 DUP4 ADD MSTORE PUSH2 0xA46 DUP2 DUP5 PUSH2 0x8BD JUMP JUMPDEST SWAP1 POP SWAP10 SWAP9 POP POP POP POP POP POP POP POP POP JUMP JUMPDEST PUSH1 0x0 DUP1 PUSH1 0x0 PUSH1 0x60 DUP5 DUP7 SUB SLT ISZERO PUSH2 0xA6E JUMPI PUSH2 0xA6D PUSH2 0x784 JUMP JUMPDEST JUMPDEST PUSH1 0x0 PUSH2 0xA7C DUP7 DUP3 DUP8 ADD PUSH2 0x7D2 JUMP JUMPDEST SWAP4 POP POP PUSH1 0x20 PUSH2 0xA8D DUP7 DUP3 DUP8 ADD PUSH2 0x808 JUMP JUMPDEST SWAP3 POP POP PUSH1 0x40 PUSH2 0xA9E DUP7 DUP3 DUP8 ADD PUSH2 0x808 JUMP JUMPDEST SWAP2 POP POP SWAP3 POP SWAP3 POP SWAP3 JUMP JUMPDEST PUSH1 0x0 DUP1 PUSH1 0x0 DUP1 PUSH1 0x80 DUP6 DUP8 SUB SLT ISZERO PUSH2 0xAC2 JUMPI PUSH2 0xAC1 PUSH2 0x784 JUMP JUMPDEST JUMPDEST PUSH1 0x0 PUSH2 0xAD0 DUP8 DUP3 DUP9 ADD PUSH2 0x7D2 JUMP JUMPDEST SWAP5 POP POP PUSH1 0x20 PUSH2 0xAE1 DUP8 DUP3 DUP9 ADD PUSH2 0x7D2 JUMP JUMPDEST SWAP4 POP POP PUSH1 0x40 PUSH2 0xAF2 DUP8 DUP3 DUP9 ADD PUSH2 0x7D2 JUMP JUMPDEST SWAP3 POP POP PUSH1 0x60 PUSH2 0xB03 DUP8 DUP3 DUP9 ADD PUSH2 0x808 JUMP JUMPDEST SWAP2 POP POP SWAP3 SWAP6 SWAP2 SWAP5 POP SWAP3 POP JUMP JUMPDEST PUSH32 0x4E487B7100000000000000000000000000000000000000000000000000000000 PUSH1 0x0 MSTORE PUSH1 0x21 PUSH1 0x4 MSTORE PUSH1 0x24 PUSH1 0x0 REVERT JUMPDEST PUSH32 0x4E487B7100000000000000000000000000000000000000000000000000000000 PUSH1 0x0 MSTORE PUSH1 0x11 PUSH1 0x4 MSTORE PUSH1 0x24 PUSH1 0x0 REVERT JUMPDEST PUSH1 0x0 PUSH2 0xB78 DUP3 PUSH2 0x7E7 JUMP JUMPDEST SWAP2 POP PUSH2 0xB83 DUP4 PUSH2 0x7E7 JUMP JUMPDEST SWAP3 POP DUP3 PUSH32 0xFFFFFFFFFFFFFFFFFFFFFFFFFFFFFFFFFFFFFFFFFFFFFFFFFFFFFFFFFFFFFFFF SUB DUP3 GT ISZERO PUSH2 0xBB8 JUMPI PUSH2 0xBB7 PUSH2 0xB3E JUMP JUMPDEST JUMPDEST DUP3 DUP3 ADD SWAP1 POP SWAP3 SWAP2 POP POP JUMP JUMPDEST PUSH32 0x4E487B7100000000000000000000000000000000000000000000000000000000 PUSH1 0x0 MSTORE PUSH1 0x22 PUSH1 0x4 MSTORE PUSH1 0x24 PUSH1 0x0 REVERT JUMPDEST PUSH1 0x0 PUSH1 0x2 DUP3 DIV SWAP1 POP PUSH1 0x1 DUP3 AND DUP1 PUSH2 0xC0A JUMPI PUSH1 0x7F DUP3 AND SWAP2 POP JUMPDEST PUSH1 0x20 DUP3 LT DUP2 EQ ISZERO PUSH2 0xC1E JUMPI PUSH2 0xC1D PUSH2 0xBC3 JUMP JUMPDEST JUMPDEST POP SWAP2 SWAP1 POP JUMP JUMPDEST PUSH32 0x4E487B7100000000000000000000000000000000000000000000000000000000 PUSH1 0x0 MSTORE PUSH1 0x32 PUSH1 0x4 MSTORE PUSH1 0x24 PUSH1 0x0 REVERT JUMPDEST PUSH1 0x0 PUSH2 0xC5E DUP3 PUSH2 0x7E7 JUMP JUMPDEST SWAP2 POP PUSH2 0xC69 DUP4 PUSH2 0x7E7 JUMP JUMPDEST SWAP3 POP DUP3 DUP3 LT ISZERO PUSH2 0xC7C JUMPI PUSH2 0xC7B PUSH2 0xB3E JUMP JUMPDEST JUMPDEST DUP3 DUP3 SUB SWAP1 POP SWAP3 SWAP2 POP POP JUMP INVALID LOG2 PUSH5 0x6970667358 0x22 SLT KECCAK256 PUSH7 0xB274B1FF0CF9C6 0x23 0x5F SWAP13 0xBD PUSH7 0xFCB9F94D02A06C 0xEA DUP6 0xF7 MSIZE 0xA5 SIGNEXTEND DELEGATECALL PUSH19 0x57B29CA064736F6C634300080C003300000000 "}}}