{
  "abi": [
    {
      "inputs": [
        {
          "internalType": "address",
          "name": "_manufacturer",
          "type": "address"
        },
        {
          "internalType": "string",
          "name": "_name",
          "type": "string"
        },
        {
          "internalType": "uint256",
          "name": "_quantity",
          "type": "uint256"
        },
        {
          "internalType": "address",
          "name": "_shipper",
          "type": "address"
        },
        {
          "internalType": "address",
          "name": "_receiver",
          "type": "address"
        },
        {
          "internalType": "string",
          "name": "_expiry",
          "type": "string"
        }
      ],
      "stateMutability": "nonpayable",
      "type": "constructor"
    },
    {
      "inputs": [],
      "name": "getInfo",
      "outputs": [
        {
          "internalType": "string",
          "name": "",
          "type": "string"
        },
        {
          "internalType": "uint256",
          "name": "",
          "type": "uint256"
        },
        {
          "internalType": "uint256",
          "name": "",
          "type": "uint256"
        },
        {
          "internalType": "uint256",
          "name": "",
          "type": "uint256"
        },
        {
          "internalType": "address[4]",
          "name": "",
          "type": "address[4]"
        }
      ],
      "stateMutability": "view",
      "type": "function"
    },
    {
      "inputs": [
        {
          "internalType": "address",
          "name": "_shipper",
          "type": "address"
        },
        {
          "internalType": "uint256",
          "name": "senderType",
          "type": "uint256"
        }
      ],
      "name": "pickPackage",
      "outputs": [],
      "stateMutability": "nonpayable",
      "type": "function"
    },
    {
      "inputs": [
        {
          "internalType": "address",
          "name": "_receiver",
          "type": "address"
        },
        {
          "internalType": "uint256",
          "name": "receiverType",
          "type": "uint256"
        },
        {
          "internalType": "uint256",
          "name": "_condition",
          "type": "uint256"
        }
      ],
      "name": "receivePackage",
      "outputs": [],
      "stateMutability": "nonpayable",
      "type": "function"
    },
    {
      "inputs": [
        {
          "internalType": "address",
          "name": "_sender",
          "type": "address"
        },
        {
          "internalType": "address",
          "name": "_shipper",
          "type": "address"
        },
        {
          "internalType": "address",
          "name": "_receiver",
          "type": "address"
        },
        {
          "internalType": "uint256",
          "name": "senderType",
          "type": "uint256"
        }
      ],
      "name": "sendPackage",
      "outputs": [],
      "stateMutability": "nonpayable",
      "type": "function"
    }
  ],
  "evm": {
    "bytecode": {
      "linkReferences": {},
      "object": "60806040523480156200001157600080fd5b50604051620012b5380380620012b5833981810160405281019062000037919062000521565b85600260006004811062000050576200004f620005fb565b5b0160006101000a81548173ffffffffffffffffffffffffffffffffffffffff021916908373ffffffffffffffffffffffffffffffffffffffff16021790555085600760006101000a81548173ffffffffffffffffffffffffffffffffffffffff021916908373ffffffffffffffffffffffffffffffffffffffff1602179055508460009080519060200190620000e892919062000234565b508360018190555082600660006101000a81548173ffffffffffffffffffffffffffffffffffffffff021916908373ffffffffffffffffffffffffffffffffffffffff1602179055508160026001600481106200014a5762000149620005fb565b5b0160006101000a81548173ffffffffffffffffffffffffffffffffffffffff021916908373ffffffffffffffffffffffffffffffffffffffff1602179055508060089080519060200190620001a192919062000234565b5060006007811115620001b957620001b86200062a565b5b600660146101000a81548160ff02191690836007811115620001e057620001df6200062a565b5b021790555060006001811115620001fc57620001fb6200062a565b5b600660156101000a81548160ff021916908360018111156200022357620002226200062a565b5b0217905550505050505050620006be565b828054620002429062000688565b90600052602060002090601f016020900481019282620002665760008555620002b2565b82601f106200028157805160ff1916838001178555620002b2565b82800160010185558215620002b2579182015b82811115620002b157825182559160200191906001019062000294565b5b509050620002c19190620002c5565b5090565b5b80821115620002e0576000816000905550600101620002c6565b5090565b6000604051905090565b600080fd5b600080fd5b600073ffffffffffffffffffffffffffffffffffffffff82169050919050565b60006200032582620002f8565b9050919050565b620003378162000318565b81146200034357600080fd5b50565b60008151905062000357816200032c565b92915050565b600080fd5b600080fd5b6000601f19601f8301169050919050565b7f4e487b7100000000000000000000000000000000000000000000000000000000600052604160045260246000fd5b620003b28262000367565b810181811067ffffffffffffffff82111715620003d457620003d362000378565b5b80604052505050565b6000620003e9620002e4565b9050620003f78282620003a7565b919050565b600067ffffffffffffffff8211156200041a576200041962000378565b5b620004258262000367565b9050602081019050919050565b60005b838110156200045257808201518184015260208101905062000435565b8381111562000462576000848401525b50505050565b60006200047f6200047984620003fc565b620003dd565b9050828152602081018484840111156200049e576200049d62000362565b5b620004ab84828562000432565b509392505050565b600082601f830112620004cb57620004ca6200035d565b5b8151620004dd84826020860162000468565b91505092915050565b6000819050919050565b620004fb81620004e6565b81146200050757600080fd5b50565b6000815190506200051b81620004f0565b92915050565b60008060008060008060c08789031215620005415762000540620002ee565b5b60006200055189828a0162000346565b965050602087015167ffffffffffffffff811115620005755762000574620002f3565b5b6200058389828a01620004b3565b95505060406200059689828a016200050a565b9450506060620005a989828a0162000346565b9350506080620005bc89828a0162000346565b92505060a087015167ffffffffffffffff811115620005e057620005df620002f3565b5b620005ee89828a01620004b3565b9150509295509295509295565b7f4e487b7100000000000000000000000000000000000000000000000000000000600052603260045260246000fd5b7f4e487b7100000000000000000000000000000000000000000000000000000000600052602160045260246000fd5b7f4e487b7100000000000000000000000000000000000000000000000000000000600052602260045260246000fd5b60006002820490506001821680620006a157607f821691505b60208210811415620006b857620006b762000659565b5b50919050565b610be780620006ce6000396000f3fe608060405234801561001057600080fd5b506004361061004c5760003560e01c80632040a8de146100515780635a9b0b891461006d578063a0c741b01461008f578063d074892d146100ab575b600080fd5b61006b60048036038101906100669190610791565b6100c7565b005b6100756101be565b604051610086959493929190610924565b60405180910390f35b6100a960048036038101906100a4919061097f565b61032a565b005b6100c560048036038101906100c091906109d2565b6105bd565b005b8173ffffffffffffffffffffffffffffffffffffffff16600660009054906101000a900473ffffffffffffffffffffffffffffffffffffffff1673ffffffffffffffffffffffffffffffffffffffff161461012157600080fd5b80600781111561013457610133610a39565b5b600781111561014657610145610a39565b5b600660149054906101000a900460ff16600781111561016857610167610a39565b5b1461017257600080fd5b60058161017f9190610a97565b600781111561019157610190610a39565b5b600660146101000a81548160ff021916908360078111156101b5576101b4610a39565b5b02179055505050565b606060008060006101cd6106d6565b6000600154600660159054906101000a900460ff1660018111156101f4576101f3610a39565b5b600660149054906101000a900460ff16600781111561021657610215610a39565b5b600284805461022490610b1c565b80601f016020809104026020016040519081016040528092919081815260200182805461025090610b1c565b801561029d5780601f106102725761010080835404028352916020019161029d565b820191906000526020600020905b81548152906001019060200180831161028057829003601f168201915b5050505050945080600480602002604051908101604052809291908260048015610312576020028201915b8160009054906101000a900473ffffffffffffffffffffffffffffffffffffffff1673ffffffffffffffffffffffffffffffffffffffff16815260200190600101908083116102c8575b50505050509050945094509450945094509091929394565b8273ffffffffffffffffffffffffffffffffffffffff166002836004811061035557610354610b4e565b5b0160009054906101000a900473ffffffffffffffffffffffffffffffffffffffff1673ffffffffffffffffffffffffffffffffffffffff161461039757600080fd5b6004826103a49190610a97565b60078111156103b6576103b5610a39565b5b60078111156103c8576103c7610a39565b5b600660149054906101000a900460ff1660078111156103ea576103e9610a39565b5b146103f457600080fd5b6000600181111561040857610407610a39565b5b600181111561041a57610419610a39565b5b600660159054906101000a900460ff16600181111561043c5761043b610a39565b5b1480156104495750600181145b156104f8576001600660149054906101000a900460ff16600781111561047257610471610a39565b5b61047c9190610b7d565b600781111561048e5761048d610a39565b5b600660146101000a81548160ff021916908360078111156104b2576104b1610a39565b5b02179055506001808111156104ca576104c9610a39565b5b600660156101000a81548160ff021916908360018111156104ee576104ed610a39565b5b02179055506105b8565b81600781111561050b5761050a610a39565b5b600660146101000a81548160ff0219169083600781111561052f5761052e610a39565b5b021790555082600760006101000a81548173ffffffffffffffffffffffffffffffffffffffff021916908373ffffffffffffffffffffffffffffffffffffffff1602179055506000600660006101000a81548173ffffffffffffffffffffffffffffffffffffffff021916908373ffffffffffffffffffffffffffffffffffffffff1602179055505b505050565b8373ffffffffffffffffffffffffffffffffffffffff16600760009054906101000a900473ffffffffffffffffffffffffffffffffffffffff1673ffffffffffffffffffffffffffffffffffffffff161461061757600080fd5b60018114806106265750600281145b61062f57600080fd5b82600660006101000a81548173ffffffffffffffffffffffffffffffffffffffff021916908373ffffffffffffffffffffffffffffffffffffffff1602179055508160026001836106809190610a97565b6004811061069157610690610b4e565b5b0160006101000a81548173ffffffffffffffffffffffffffffffffffffffff021916908373ffffffffffffffffffffffffffffffffffffffff16021790555050505050565b6040518060800160405280600490602082028036833780820191505090505090565b600080fd5b600073ffffffffffffffffffffffffffffffffffffffff82169050919050565b6000610728826106fd565b9050919050565b6107388161071d565b811461074357600080fd5b50565b6000813590506107558161072f565b92915050565b6000819050919050565b61076e8161075b565b811461077957600080fd5b50565b60008135905061078b81610765565b92915050565b600080604083850312156107a8576107a76106f8565b5b60006107b685828601610746565b92505060206107c78582860161077c565b9150509250929050565b600081519050919050565b600082825260208201905092915050565b60005b8381101561080b5780820151818401526020810190506107f0565b8381111561081a576000848401525b50505050565b6000601f19601f8301169050919050565b600061083c826107d1565b61084681856107dc565b93506108568185602086016107ed565b61085f81610820565b840191505092915050565b6108738161075b565b82525050565b600060049050919050565b600081905092915050565b6000819050919050565b6108a28161071d565b82525050565b60006108b48383610899565b60208301905092915050565b6000602082019050919050565b6108d681610879565b6108e08184610884565b92506108eb8261088f565b8060005b8381101561091c57815161090387826108a8565b965061090e836108c0565b9250506001810190506108ef565b505050505050565b600061010082019050818103600083015261093f8188610831565b905061094e602083018761086a565b61095b604083018661086a565b610968606083018561086a565b61097560808301846108cd565b9695505050505050565b600080600060608486031215610998576109976106f8565b5b60006109a686828701610746565b93505060206109b78682870161077c565b92505060406109c88682870161077c565b9150509250925092565b600080600080608085870312156109ec576109eb6106f8565b5b60006109fa87828801610746565b9450506020610a0b87828801610746565b9350506040610a1c87828801610746565b9250506060610a2d8782880161077c565b91505092959194509250565b7f4e487b7100000000000000000000000000000000000000000000000000000000600052602160045260246000fd5b7f4e487b7100000000000000000000000000000000000000000000000000000000600052601160045260246000fd5b6000610aa28261075b565b9150610aad8361075b565b9250827fffffffffffffffffffffffffffffffffffffffffffffffffffffffffffffffff03821115610ae257610ae1610a68565b5b828201905092915050565b7f4e487b7100000000000000000000000000000000000000000000000000000000600052602260045260246000fd5b60006002820490506001821680610b3457607f821691505b60208210811415610b4857610b47610aed565b5b50919050565b7f4e487b7100000000000000000000000000000000000000000000000000000000600052603260045260246000fd5b6000610b888261075b565b9150610b938361075b565b925082821015610ba657610ba5610a68565b5b82820390509291505056fea2646970667358221220f956cf3066fd91e1147358fd5cdf46a7bbd06ad151c33c171ef00aeff112780764736f6c634300080a0033",
      "opcodes": "PUSH1 0x80 PUSH1 0x40 MSTORE CALLVALUE DUP1 ISZERO PUSH3 0x11 JUMPI PUSH1 0x0 DUP1 REVERT JUMPDEST POP PUSH1 0x40 MLOAD PUSH3 0x12B5 CODESIZE SUB DUP1 PUSH3 0x12B5 DUP4 CODECOPY DUP2 DUP2 ADD PUSH1 0x40 MSTORE DUP2 ADD SWAP1 PUSH3 0x37 SWAP2 SWAP1 PUSH3 0x521 JUMP JUMPDEST DUP6 PUSH1 0x2 PUSH1 0x0 PUSH1 0x4 DUP2 LT PUSH3 0x50 JUMPI PUSH3 0x4F PUSH3 0x5FB JUMP JUMPDEST JUMPDEST ADD PUSH1 0x0 PUSH2 0x100 EXP DUP2 SLOAD DUP2 PUSH20 0xFFFFFFFFFFFFFFFFFFFFFFFFFFFFFFFFFFFFFFFF MUL NOT AND SWAP1 DUP4 PUSH20 0xFFFFFFFFFFFFFFFFFFFFFFFFFFFFFFFFFFFFFFFF AND MUL OR SWAP1 SSTORE POP DUP6 PUSH1 0x7 PUSH1 0x0 PUSH2 0x100 EXP DUP2 SLOAD DUP2 PUSH20 0xFFFFFFFFFFFFFFFFFFFFFFFFFFFFFFFFFFFFFFFF MUL NOT AND SWAP1 DUP4 PUSH20 0xFFFFFFFFFFFFFFFFFFFFFFFFFFFFFFFFFFFFFFFF AND MUL OR SWAP1 SSTORE POP DUP5 PUSH1 0x0 SWAP1 DUP1 MLOAD SWAP1 PUSH1 0x20 ADD SWAP1 PUSH3 0xE8 SWAP3 SWAP2 SWAP1 PUSH3 0x234 JUMP JUMPDEST POP DUP4 PUSH1 0x1 DUP2 SWAP1 SSTORE POP DUP3 PUSH1 0x6 PUSH1 0x0 PUSH2 0x100 EXP DUP2 SLOAD DUP2 PUSH20 0xFFFFFFFFFFFFFFFFFFFFFFFFFFFFFFFFFFFFFFFF MUL NOT AND SWAP1 DUP4 PUSH20 0xFFFFFFFFFFFFFFFFFFFFFFFFFFFFFFFFFFFFFFFF AND MUL OR SWAP1 SSTORE POP DUP2 PUSH1 0x2 PUSH1 0x1 PUSH1 0x4 DUP2 LT PUSH3 0x14A JUMPI PUSH3 0x149 PUSH3 0x5FB JUMP JUMPDEST JUMPDEST ADD PUSH1 0x0 PUSH2 0x100 EXP DUP2 SLOAD DUP2 PUSH20 0xFFFFFFFFFFFFFFFFFFFFFFFFFFFFFFFFFFFFFFFF MUL NOT AND SWAP1 DUP4 PUSH20 0xFFFFFFFFFFFFFFFFFFFFFFFFFFFFFFFFFFFFFFFF AND MUL OR SWAP1 SSTORE POP DUP1 PUSH1 0x8 SWAP1 DUP1 MLOAD SWAP1 PUSH1 0x20 ADD SWAP1 PUSH3 0x1A1 SWAP3 SWAP2 SWAP1 PUSH3 0x234 JUMP JUMPDEST POP PUSH1 0x0 PUSH1 0x7 DUP2 GT ISZERO PUSH3 0x1B9 JUMPI PUSH3 0x1B8 PUSH3 0x62A JUMP JUMPDEST JUMPDEST PUSH1 0x6 PUSH1 0x14 PUSH2 0x100 EXP DUP2 SLOAD DUP2 PUSH1 0xFF MUL NOT AND SWAP1 DUP4 PUSH1 0x7 DUP2 GT ISZERO PUSH3 0x1E0 JUMPI PUSH3 0x1DF PUSH3 0x62A JUMP JUMPDEST JUMPDEST MUL OR SWAP1 SSTORE POP PUSH1 0x0 PUSH1 0x1 DUP2 GT ISZERO PUSH3 0x1FC JUMPI PUSH3 0x1FB PUSH3 0x62A JUMP JUMPDEST JUMPDEST PUSH1 0x6 PUSH1 0x15 PUSH2 0x100 EXP DUP2 SLOAD DUP2 PUSH1 0xFF MUL NOT AND SWAP1 DUP4 PUSH1 0x1 DUP2 GT ISZERO PUSH3 0x223 JUMPI PUSH3 0x222 PUSH3 0x62A JUMP JUMPDEST JUMPDEST MUL OR SWAP1 SSTORE POP POP POP POP POP POP POP PUSH3 0x6BE JUMP JUMPDEST DUP3 DUP1 SLOAD PUSH3 0x242 SWAP1 PUSH3 0x688 JUMP JUMPDEST SWAP1 PUSH1 0x0 MSTORE PUSH1 0x20 PUSH1 0x0 KECCAK256 SWAP1 PUSH1 0x1F ADD PUSH1 0x20 SWAP1 DIV DUP2 ADD SWAP3 DUP3 PUSH3 0x266 JUMPI PUSH1 0x0 DUP6 SSTORE PUSH3 0x2B2 JUMP JUMPDEST DUP3 PUSH1 0x1F LT PUSH3 0x281 JUMPI DUP1 MLOAD PUSH1 0xFF NOT AND DUP4 DUP1 ADD OR DUP6 SSTORE PUSH3 0x2B2 JUMP JUMPDEST DUP3 DUP1 ADD PUSH1 0x1 ADD DUP6 SSTORE DUP3 ISZERO PUSH3 0x2B2 JUMPI SWAP2 DUP3 ADD JUMPDEST DUP3 DUP2 GT ISZERO PUSH3 0x2B1 JUMPI DUP3 MLOAD DUP3 SSTORE SWAP2 PUSH1 0x20 ADD SWAP2 SWAP1 PUSH1 0x1 ADD SWAP1 PUSH3 0x294 JUMP JUMPDEST JUMPDEST POP SWAP1 POP PUSH3 0x2C1 SWAP2 SWAP1 PUSH3 0x2C5 JUMP JUMPDEST POP SWAP1 JUMP JUMPDEST JUMPDEST DUP1 DUP3 GT ISZERO PUSH3 0x2E0 JUMPI PUSH1 0x0 DUP2 PUSH1 0x0 SWAP1 SSTORE POP PUSH1 0x1 ADD PUSH3 0x2C6 JUMP JUMPDEST POP SWAP1 JUMP JUMPDEST PUSH1 0x0 PUSH1 0x40 MLOAD SWAP1 POP SWAP1 JUMP JUMPDEST PUSH1 0x0 DUP1 REVERT JUMPDEST PUSH1 0x0 DUP1 REVERT JUMPDEST PUSH1 0x0 PUSH20 0xFFFFFFFFFFFFFFFFFFFFFFFFFFFFFFFFFFFFFFFF DUP3 AND SWAP1 POP SWAP2 SWAP1 POP JUMP JUMPDEST PUSH1 0x0 PUSH3 0x325 DUP3 PUSH3 0x2F8 JUMP JUMPDEST SWAP1 POP SWAP2 SWAP1 POP JUMP JUMPDEST PUSH3 0x337 DUP2 PUSH3 0x318 JUMP JUMPDEST DUP2 EQ PUSH3 0x343 JUMPI PUSH1 0x0 DUP1 REVERT JUMPDEST POP JUMP JUMPDEST PUSH1 0x0 DUP2 MLOAD SWAP1 POP PUSH3 0x357 DUP2 PUSH3 0x32C JUMP JUMPDEST SWAP3 SWAP2 POP POP JUMP JUMPDEST PUSH1 0x0 DUP1 REVERT JUMPDEST PUSH1 0x0 DUP1 REVERT JUMPDEST PUSH1 0x0 PUSH1 0x1F NOT PUSH1 0x1F DUP4 ADD AND SWAP1 POP SWAP2 SWAP1 POP JUMP JUMPDEST PUSH32 0x4E487B7100000000000000000000000000000000000000000000000000000000 PUSH1 0x0 MSTORE PUSH1 0x41 PUSH1 0x4 MSTORE PUSH1 0x24 PUSH1 0x0 REVERT JUMPDEST PUSH3 0x3B2 DUP3 PUSH3 0x367 JUMP JUMPDEST DUP2 ADD DUP2 DUP2 LT PUSH8 0xFFFFFFFFFFFFFFFF DUP3 GT OR ISZERO PUSH3 0x3D4 JUMPI PUSH3 0x3D3 PUSH3 0x378 JUMP JUMPDEST JUMPDEST DUP1 PUSH1 0x40 MSTORE POP POP POP JUMP JUMPDEST PUSH1 0x0 PUSH3 0x3E9 PUSH3 0x2E4 JUMP JUMPDEST SWAP1 POP PUSH3 0x3F7 DUP3 DUP3 PUSH3 0x3A7 JUMP JUMPDEST SWAP2 SWAP1 POP JUMP JUMPDEST PUSH1 0x0 PUSH8 0xFFFFFFFFFFFFFFFF DUP3 GT ISZERO PUSH3 0x41A JUMPI PUSH3 0x419 PUSH3 0x378 JUMP JUMPDEST JUMPDEST PUSH3 0x425 DUP3 PUSH3 0x367 JUMP JUMPDEST SWAP1 POP PUSH1 0x20 DUP2 ADD SWAP1 POP SWAP2 SWAP1 POP JUMP JUMPDEST PUSH1 0x0 JUMPDEST DUP4 DUP2 LT ISZERO PUSH3 0x452 JUMPI DUP1 DUP3 ADD MLOAD DUP2 DUP5 ADD MSTORE PUSH1 0x20 DUP2 ADD SWAP1 POP PUSH3 0x435 JUMP JUMPDEST DUP4 DUP2 GT ISZERO PUSH3 0x462 JUMPI PUSH1 0x0 DUP5 DUP5 ADD MSTORE JUMPDEST POP POP POP POP JUMP JUMPDEST PUSH1 0x0 PUSH3 0x47F PUSH3 0x479 DUP5 PUSH3 0x3FC JUMP JUMPDEST PUSH3 0x3DD JUMP JUMPDEST SWAP1 POP DUP3 DUP2 MSTORE PUSH1 0x20 DUP2 ADD DUP5 DUP5 DUP5 ADD GT ISZERO PUSH3 0x49E JUMPI PUSH3 0x49D PUSH3 0x362 JUMP JUMPDEST JUMPDEST PUSH3 0x4AB DUP5 DUP3 DUP6 PUSH3 0x432 JUMP JUMPDEST POP SWAP4 SWAP3 POP POP POP JUMP JUMPDEST PUSH1 0x0 DUP3 PUSH1 0x1F DUP4 ADD SLT PUSH3 0x4CB JUMPI PUSH3 0x4CA PUSH3 0x35D JUMP JUMPDEST JUMPDEST DUP2 MLOAD PUSH3 0x4DD DUP5 DUP3 PUSH1 0x20 DUP7 ADD PUSH3 0x468 JUMP JUMPDEST SWAP2 POP POP SWAP3 SWAP2 POP POP JUMP JUMPDEST PUSH1 0x0 DUP2 SWAP1 POP SWAP2 SWAP1 POP JUMP JUMPDEST PUSH3 0x4FB DUP2 PUSH3 0x4E6 JUMP JUMPDEST DUP2 EQ PUSH3 0x507 JUMPI PUSH1 0x0 DUP1 REVERT JUMPDEST POP JUMP JUMPDEST PUSH1 0x0 DUP2 MLOAD SWAP1 POP PUSH3 0x51B DUP2 PUSH3 0x4F0 JUMP JUMPDEST SWAP3 SWAP2 POP POP JUMP JUMPDEST PUSH1 0x0 DUP1 PUSH1 0x0 DUP1 PUSH1 0x0 DUP1 PUSH1 0xC0 DUP8 DUP10 SUB SLT ISZERO PUSH3 0x541 JUMPI PUSH3 0x540 PUSH3 0x2EE JUMP JUMPDEST JUMPDEST PUSH1 0x0 PUSH3 0x551 DUP10 DUP3 DUP11 ADD PUSH3 0x346 JUMP JUMPDEST SWAP7 POP POP PUSH1 0x20 DUP8 ADD MLOAD PUSH8 0xFFFFFFFFFFFFFFFF DUP2 GT ISZERO PUSH3 0x575 JUMPI PUSH3 0x574 PUSH3 0x2F3 JUMP JUMPDEST JUMPDEST PUSH3 0x583 DUP10 DUP3 DUP11 ADD PUSH3 0x4B3 JUMP JUMPDEST SWAP6 POP POP PUSH1 0x40 PUSH3 0x596 DUP10 DUP3 DUP11 ADD PUSH3 0x50A JUMP JUMPDEST SWAP5 POP POP PUSH1 0x60 PUSH3 0x5A9 DUP10 DUP3 DUP11 ADD PUSH3 0x346 JUMP JUMPDEST SWAP4 POP POP PUSH1 0x80 PUSH3 0x5BC DUP10 DUP3 DUP11 ADD PUSH3 0x346 JUMP JUMPDEST SWAP3 POP POP PUSH1 0xA0 DUP8 ADD MLOAD PUSH8 0xFFFFFFFFFFFFFFFF DUP2 GT ISZERO PUSH3 0x5E0 JUMPI PUSH3 0x5DF PUSH3 0x2F3 JUMP JUMPDEST JUMPDEST PUSH3 0x5EE DUP10 DUP3 DUP11 ADD PUSH3 0x4B3 JUMP JUMPDEST SWAP2 POP POP SWAP3 SWAP6 POP SWAP3 SWAP6 POP SWAP3 SWAP6 JUMP JUMPDEST PUSH32 0x4E487B7100000000000000000000000000000000000000000000000000000000 PUSH1 0x0 MSTORE PUSH1 0x32 PUSH1 0x4 MSTORE PUSH1 0x24 PUSH1 0x0 REVERT JUMPDEST PUSH32 0x4E487B7100000000000000000000000000000000000000000000000000000000 PUSH1 0x0 MSTORE PUSH1 0x21 PUSH1 0x4 MSTORE PUSH1 0x24 PUSH1 0x0 REVERT JUMPDEST PUSH32 0x4E487B7100000000000000000000000000000000000000000000000000000000 PUSH1 0x0 MSTORE PUSH1 0x22 PUSH1 0x4 MSTORE PUSH1 0x24 PUSH1 0x0 REVERT JUMPDEST PUSH1 0x0 PUSH1 0x2 DUP3 DIV SWAP1 POP PUSH1 0x1 DUP3 AND DUP1 PUSH3 0x6A1 JUMPI PUSH1 0x7F DUP3 AND SWAP2 POP JUMPDEST PUSH1 0x20 DUP3 LT DUP2 EQ ISZERO PUSH3 0x6B8 JUMPI PUSH3 0x6B7 PUSH3 0x659 JUMP JUMPDEST JUMPDEST POP SWAP2 SWAP1 POP JUMP JUMPDEST PUSH2 0xBE7 DUP1 PUSH3 0x6CE PUSH1 0x0 CODECOPY PUSH1 0x0 RETURN INVALID PUSH1 0x80 PUSH1 0x40 MSTORE CALLVALUE DUP1 ISZERO PUSH2 0x10 JUMPI PUSH1 0x0 DUP1 REVERT JUMPDEST POP PUSH1 0x4 CALLDATASIZE LT PUSH2 0x4C JUMPI PUSH1 0x0 CALLDATALOAD PUSH1 0xE0 SHR DUP1 PUSH4 0x2040A8DE EQ PUSH2 0x51 JUMPI DUP1 PUSH4 0x5A9B0B89 EQ PUSH2 0x6D JUMPI DUP1 PUSH4 0xA0C741B0 EQ PUSH2 0x8F JUMPI DUP1 PUSH4 0xD074892D EQ PUSH2 0xAB JUMPI JUMPDEST PUSH1 0x0 DUP1 REVERT JUMPDEST PUSH2 0x6B PUSH1 0x4 DUP1 CALLDATASIZE SUB DUP2 ADD SWAP1 PUSH2 0x66 SWAP2 SWAP1 PUSH2 0x791 JUMP JUMPDEST PUSH2 0xC7 JUMP JUMPDEST STOP JUMPDEST PUSH2 0x75 PUSH2 0x1BE JUMP JUMPDEST PUSH1 0x40 MLOAD PUSH2 0x86 SWAP6 SWAP5 SWAP4 SWAP3 SWAP2 SWAP1 PUSH2 0x924 JUMP JUMPDEST PUSH1 0x40 MLOAD DUP1 SWAP2 SUB SWAP1 RETURN JUMPDEST PUSH2 0xA9 PUSH1 0x4 DUP1 CALLDATASIZE SUB DUP2 ADD SWAP1 PUSH2 0xA4 SWAP2 SWAP1 PUSH2 0x97F JUMP JUMPDEST PUSH2 0x32A JUMP JUMPDEST STOP JUMPDEST PUSH2 0xC5 PUSH1 0x4 DUP1 CALLDATASIZE SUB DUP2 ADD SWAP1 PUSH2 0xC0 SWAP2 SWAP1 PUSH2 0x9D2 JUMP JUMPDEST PUSH2 0x5BD JUMP JUMPDEST STOP JUMPDEST DUP2 PUSH20 0xFFFFFFFFFFFFFFFFFFFFFFFFFFFFFFFFFFFFFFFF AND PUSH1 0x6 PUSH1 0x0 SWAP1 SLOAD SWAP1 PUSH2 0x100 EXP SWAP1 DIV PUSH20 0xFFFFFFFFFFFFFFFFFFFFFFFFFFFFFFFFFFFFFFFF AND PUSH20 0xFFFFFFFFFFFFFFFFFFFFFFFFFFFFFFFFFFFFFFFF AND EQ PUSH2 0x121 JUMPI PUSH1 0x0 DUP1 REVERT JUMPDEST DUP1 PUSH1 0x7 DUP2 GT ISZERO PUSH2 0x134 JUMPI PUSH2 0x133 PUSH2 0xA39 JUMP JUMPDEST JUMPDEST PUSH1 0x7 DUP2 GT ISZERO PUSH2 0x146 JUMPI PUSH2 0x145 PUSH2 0xA39 JUMP JUMPDEST JUMPDEST PUSH1 0x6 PUSH1 0x14 SWAP1 SLOAD SWAP1 PUSH2 0x100 EXP SWAP1 DIV PUSH1 0xFF AND PUSH1 0x7 DUP2 GT ISZERO PUSH2 0x168 JUMPI PUSH2 0x167 PUSH2 0xA39 JUMP JUMPDEST JUMPDEST EQ PUSH2 0x172 JUMPI PUSH1 0x0 DUP1 REVERT JUMPDEST PUSH1 0x5 DUP2 PUSH2 0x17F SWAP2 SWAP1 PUSH2 0xA97 JUMP JUMPDEST PUSH1 0x7 DUP2 GT ISZERO PUSH2 0x191 JUMPI PUSH2 0x190 PUSH2 0xA39 JUMP JUMPDEST JUMPDEST PUSH1 0x6 PUSH1 0x14 PUSH2 0x100 EXP DUP2 SLOAD DUP2 PUSH1 0xFF MUL NOT AND SWAP1 DUP4 PUSH1 0x7 DUP2 GT ISZERO PUSH2 0x1B5 JUMPI PUSH2 0x1B4 PUSH2 0xA39 JUMP JUMPDEST JUMPDEST MUL OR SWAP1 SSTORE POP POP POP JUMP JUMPDEST PUSH1 0x60 PUSH1 0x0 DUP1 PUSH1 0x0 PUSH2 0x1CD PUSH2 0x6D6 JUMP JUMPDEST PUSH1 0x0 PUSH1 0x1 SLOAD PUSH1 0x6 PUSH1 0x15 SWAP1 SLOAD SWAP1 PUSH2 0x100 EXP SWAP1 DIV PUSH1 0xFF AND PUSH1 0x1 DUP2 GT ISZERO PUSH2 0x1F4 JUMPI PUSH2 0x1F3 PUSH2 0xA39 JUMP JUMPDEST JUMPDEST PUSH1 0x6 PUSH1 0x14 SWAP1 SLOAD SWAP1 PUSH2 0x100 EXP SWAP1 DIV PUSH1 0xFF AND PUSH1 0x7 DUP2 GT ISZERO PUSH2 0x216 JUMPI PUSH2 0x215 PUSH2 0xA39 JUMP JUMPDEST JUMPDEST PUSH1 0x2 DUP5 DUP1 SLOAD PUSH2 0x224 SWAP1 PUSH2 0xB1C JUMP JUMPDEST DUP1 PUSH1 0x1F ADD PUSH1 0x20 DUP1 SWAP2 DIV MUL PUSH1 0x20 ADD PUSH1 0x40 MLOAD SWAP1 DUP2 ADD PUSH1 0x40 MSTORE DUP1 SWAP3 SWAP2 SWAP1 DUP2 DUP2 MSTORE PUSH1 0x20 ADD DUP3 DUP1 SLOAD PUSH2 0x250 SWAP1 PUSH2 0xB1C JUMP JUMPDEST DUP1 ISZERO PUSH2 0x29D JUMPI DUP1 PUSH1 0x1F LT PUSH2 0x272 JUMPI PUSH2 0x100 DUP1 DUP4 SLOAD DIV MUL DUP4 MSTORE SWAP2 PUSH1 0x20 ADD SWAP2 PUSH2 0x29D JUMP JUMPDEST DUP3 ADD SWAP2 SWAP1 PUSH1 0x0 MSTORE PUSH1 0x20 PUSH1 0x0 KECCAK256 SWAP1 JUMPDEST DUP2 SLOAD DUP2 MSTORE SWAP1 PUSH1 0x1 ADD SWAP1 PUSH1 0x20 ADD DUP1 DUP4 GT PUSH2 0x280 JUMPI DUP3 SWAP1 SUB PUSH1 0x1F AND DUP3 ADD SWAP2 JUMPDEST POP POP POP POP POP SWAP5 POP DUP1 PUSH1 0x4 DUP1 PUSH1 0x20 MUL PUSH1 0x40 MLOAD SWAP1 DUP2 ADD PUSH1 0x40 MSTORE DUP1 SWAP3 SWAP2 SWAP1 DUP3 PUSH1 0x4 DUP1 ISZERO PUSH2 0x312 JUMPI PUSH1 0x20 MUL DUP3 ADD SWAP2 JUMPDEST DUP2 PUSH1 0x0 SWAP1 SLOAD SWAP1 PUSH2 0x100 EXP SWAP1 DIV PUSH20 0xFFFFFFFFFFFFFFFFFFFFFFFFFFFFFFFFFFFFFFFF AND PUSH20 0xFFFFFFFFFFFFFFFFFFFFFFFFFFFFFFFFFFFFFFFF AND DUP2 MSTORE PUSH1 0x20 ADD SWAP1 PUSH1 0x1 ADD SWAP1 DUP1 DUP4 GT PUSH2 0x2C8 JUMPI JUMPDEST POP POP POP POP POP SWAP1 POP SWAP5 POP SWAP5 POP SWAP5 POP SWAP5 POP SWAP5 POP SWAP1 SWAP2 SWAP3 SWAP4 SWAP5 JUMP JUMPDEST DUP3 PUSH20 0xFFFFFFFFFFFFFFFFFFFFFFFFFFFFFFFFFFFFFFFF AND PUSH1 0x2 DUP4 PUSH1 0x4 DUP2 LT PUSH2 0x355 JUMPI PUSH2 0x354 PUSH2 0xB4E JUMP JUMPDEST JUMPDEST ADD PUSH1 0x0 SWAP1 SLOAD SWAP1 PUSH2 0x100 EXP SWAP1 DIV PUSH20 0xFFFFFFFFFFFFFFFFFFFFFFFFFFFFFFFFFFFFFFFF AND PUSH20 0xFFFFFFFFFFFFFFFFFFFFFFFFFFFFFFFFFFFFFFFF AND EQ PUSH2 0x397 JUMPI PUSH1 0x0 DUP1 REVERT JUMPDEST PUSH1 0x4 DUP3 PUSH2 0x3A4 SWAP2 SWAP1 PUSH2 0xA97 JUMP JUMPDEST PUSH1 0x7 DUP2 GT ISZERO PUSH2 0x3B6 JUMPI PUSH2 0x3B5 PUSH2 0xA39 JUMP JUMPDEST JUMPDEST PUSH1 0x7 DUP2 GT ISZERO PUSH2 0x3C8 JUMPI PUSH2 0x3C7 PUSH2 0xA39 JUMP JUMPDEST JUMPDEST PUSH1 0x6 PUSH1 0x14 SWAP1 SLOAD SWAP1 PUSH2 0x100 EXP SWAP1 DIV PUSH1 0xFF AND PUSH1 0x7 DUP2 GT ISZERO PUSH2 0x3EA JUMPI PUSH2 0x3E9 PUSH2 0xA39 JUMP JUMPDEST JUMPDEST EQ PUSH2 0x3F4 JUMPI PUSH1 0x0 DUP1 REVERT JUMPDEST PUSH1 0x0 PUSH1 0x1 DUP2 GT ISZERO PUSH2 0x408 JUMPI PUSH2 0x407 PUSH2 0xA39 JUMP JUMPDEST JUMPDEST PUSH1 0x1 DUP2 GT ISZERO PUSH2 0x41A JUMPI PUSH2 0x419 PUSH2 0xA39 JUMP JUMPDEST JUMPDEST PUSH1 0x6 PUSH1 0x15 SWAP1 SLOAD SWAP1 PUSH2 0x100 EXP SWAP1 DIV PUSH1 0xFF AND PUSH1 0x1 DUP2 GT ISZERO PUSH2 0x43C JUMPI PUSH2 0x43B PUSH2 0xA39 JUMP JUMPDEST JUMPDEST EQ DUP1 ISZERO PUSH2 0x449 JUMPI POP PUSH1 0x1 DUP2 EQ JUMPDEST ISZERO PUSH2 0x4F8 JUMPI PUSH1 0x1 PUSH1 0x6 PUSH1 0x14 SWAP1 SLOAD SWAP1 PUSH2 0x100 EXP SWAP1 DIV PUSH1 0xFF AND PUSH1 0x7 DUP2 GT ISZERO PUSH2 0x472 JUMPI PUSH2 0x471 PUSH2 0xA39 JUMP JUMPDEST JUMPDEST PUSH2 0x47C SWAP2 SWAP1 PUSH2 0xB7D JUMP JUMPDEST PUSH1 0x7 DUP2 GT ISZERO PUSH2 0x48E JUMPI PUSH2 0x48D PUSH2 0xA39 JUMP JUMPDEST JUMPDEST PUSH1 0x6 PUSH1 0x14 PUSH2 0x100 EXP DUP2 SLOAD DUP2 PUSH1 0xFF MUL NOT AND SWAP1 DUP4 PUSH1 0x7 DUP2 GT ISZERO PUSH2 0x4B2 JUMPI PUSH2 0x4B1 PUSH2 0xA39 JUMP JUMPDEST JUMPDEST MUL OR SWAP1 SSTORE POP PUSH1 0x1 DUP1 DUP2 GT ISZERO PUSH2 0x4CA JUMPI PUSH2 0x4C9 PUSH2 0xA39 JUMP JUMPDEST JUMPDEST PUSH1 0x6 PUSH1 0x15 PUSH2 0x100 EXP DUP2 SLOAD DUP2 PUSH1 0xFF MUL NOT AND SWAP1 DUP4 PUSH1 0x1 DUP2 GT ISZERO PUSH2 0x4EE JUMPI PUSH2 0x4ED PUSH2 0xA39 JUMP JUMPDEST JUMPDEST MUL OR SWAP1 SSTORE POP PUSH2 0x5B8 JUMP JUMPDEST DUP2 PUSH1 0x7 DUP2 GT ISZERO PUSH2 0x50B JUMPI PUSH2 0x50A PUSH2 0xA39 JUMP JUMPDEST JUMPDEST PUSH1 0x6 PUSH1 0x14 PUSH2 0x100 EXP DUP2 SLOAD DUP2 PUSH1 0xFF MUL NOT AND SWAP1 DUP4 PUSH1 0x7 DUP2 GT ISZERO PUSH2 0x52F JUMPI PUSH2 0x52E PUSH2 0xA39 JUMP JUMPDEST JUMPDEST MUL OR SWAP1 SSTORE POP DUP3 PUSH1 0x7 PUSH1 0x0 PUSH2 0x100 EXP DUP2 SLOAD DUP2 PUSH20 0xFFFFFFFFFFFFFFFFFFFFFFFFFFFFFFFFFFFFFFFF MUL NOT AND SWAP1 DUP4 PUSH20 0xFFFFFFFFFFFFFFFFFFFFFFFFFFFFFFFFFFFFFFFF AND MUL OR SWAP1 SSTORE POP PUSH1 0x0 PUSH1 0x6 PUSH1 0x0 PUSH2 0x100 EXP DUP2 SLOAD DUP2 PUSH20 0xFFFFFFFFFFFFFFFFFFFFFFFFFFFFFFFFFFFFFFFF MUL NOT AND SWAP1 DUP4 PUSH20 0xFFFFFFFFFFFFFFFFFFFFFFFFFFFFFFFFFFFFFFFF AND MUL OR SWAP1 SSTORE POP JUMPDEST POP POP POP JUMP JUMPDEST DUP4 PUSH20 0xFFFFFFFFFFFFFFFFFFFFFFFFFFFFFFFFFFFFFFFF AND PUSH1 0x7 PUSH1 0x0 SWAP1 SLOAD SWAP1 PUSH2 0x100 EXP SWAP1 DIV PUSH20 0xFFFFFFFFFFFFFFFFFFFFFFFFFFFFFFFFFFFFFFFF AND PUSH20 0xFFFFFFFFFFFFFFFFFFFFFFFFFFFFFFFFFFFFFFFF AND EQ PUSH2 0x617 JUMPI PUSH1 0x0 DUP1 REVERT JUMPDEST PUSH1 0x1 DUP2 EQ DUP1 PUSH2 0x626 JUMPI POP PUSH1 0x2 DUP2 EQ JUMPDEST PUSH2 0x62F JUMPI PUSH1 0x0 DUP1 REVERT JUMPDEST DUP3 PUSH1 0x6 PUSH1 0x0 PUSH2 0x100 EXP DUP2 SLOAD DUP2 PUSH20 0xFFFFFFFFFFFFFFFFFFFFFFFFFFFFFFFFFFFFFFFF MUL NOT AND SWAP1 DUP4 PUSH20 0xFFFFFFFFFFFFFFFFFFFFFFFFFFFFFFFFFFFFFFFF AND MUL OR SWAP1 SSTORE POP DUP2 PUSH1 0x2 PUSH1 0x1 DUP4 PUSH2 0x680 SWAP2 SWAP1 PUSH2 0xA97 JUMP JUMPDEST PUSH1 0x4 DUP2 LT PUSH2 0x691 JUMPI PUSH2 0x690 PUSH2 0xB4E JUMP JUMPDEST JUMPDEST ADD PUSH1 0x0 PUSH2 0x100 EXP DUP2 SLOAD DUP2 PUSH20 0xFFFFFFFFFFFFFFFFFFFFFFFFFFFFFFFFFFFFFFFF MUL NOT AND SWAP1 DUP4 PUSH20 0xFFFFFFFFFFFFFFFFFFFFFFFFFFFFFFFFFFFFFFFF AND MUL OR SWAP1 SSTORE POP POP POP POP POP JUMP JUMPDEST PUSH1 0x40 MLOAD DUP1 PUSH1 0x80 ADD PUSH1 0x40 MSTORE DUP1 PUSH1 0x4 SWAP1 PUSH1 0x20 DUP3 MUL DUP1 CALLDATASIZE DUP4 CALLDATACOPY DUP1 DUP3 ADD SWAP2 POP POP SWAP1 POP POP SWAP1 JUMP JUMPDEST PUSH1 0x0 DUP1 REVERT JUMPDEST PUSH1 0x0 PUSH20 0xFFFFFFFFFFFFFFFFFFFFFFFFFFFFFFFFFFFFFFFF DUP3 AND SWAP1 POP SWAP2 SWAP1 POP JUMP JUMPDEST PUSH1 0x0 PUSH2 0x728 DUP3 PUSH2 0x6FD JUMP JUMPDEST SWAP1 POP SWAP2 SWAP1 POP JUMP JUMPDEST PUSH2 0x738 DUP2 PUSH2 0x71D JUMP JUMPDEST DUP2 EQ PUSH2 0x743 JUMPI PUSH1 0x0 DUP1 REVERT JUMPDEST POP JUMP JUMPDEST PUSH1 0x0 DUP2 CALLDATALOAD SWAP1 POP PUSH2 0x755 DUP2 PUSH2 0x72F JUMP JUMPDEST SWAP3 SWAP2 POP POP JUMP JUMPDEST PUSH1 0x0 DUP2 SWAP1 POP SWAP2 SWAP1 POP JUMP JUMPDEST PUSH2 0x76E DUP2 PUSH2 0x75B JUMP JUMPDEST DUP2 EQ PUSH2 0x779 JUMPI PUSH1 0x0 DUP1 REVERT JUMPDEST POP JUMP JUMPDEST PUSH1 0x0 DUP2 CALLDATALOAD SWAP1 POP PUSH2 0x78B DUP2 PUSH2 0x765 JUMP JUMPDEST SWAP3 SWAP2 POP POP JUMP JUMPDEST PUSH1 0x0 DUP1 PUSH1 0x40 DUP4 DUP6 SUB SLT ISZERO PUSH2 0x7A8 JUMPI PUSH2 0x7A7 PUSH2 0x6F8 JUMP JUMPDEST JUMPDEST PUSH1 0x0 PUSH2 0x7B6 DUP6 DUP3 DUP7 ADD PUSH2 0x746 JUMP JUMPDEST SWAP3 POP POP PUSH1 0x20 PUSH2 0x7C7 DUP6 DUP3 DUP7 ADD PUSH2 0x77C JUMP JUMPDEST SWAP2 POP POP SWAP3 POP SWAP3 SWAP1 POP JUMP JUMPDEST PUSH1 0x0 DUP2 MLOAD SWAP1 POP SWAP2 SWAP1 POP JUMP JUMPDEST PUSH1 0x0 DUP3 DUP3 MSTORE PUSH1 0x20 DUP3 ADD SWAP1 POP SWAP3 SWAP2 POP POP JUMP JUMPDEST PUSH1 0x0 JUMPDEST DUP4 DUP2 LT ISZERO PUSH2 0x80B JUMPI DUP1 DUP3 ADD MLOAD DUP2 DUP5 ADD MSTORE PUSH1 0x20 DUP2 ADD SWAP1 POP PUSH2 0x7F0 JUMP JUMPDEST DUP4 DUP2 GT ISZERO PUSH2 0x81A JUMPI PUSH1 0x0 DUP5 DUP5 ADD MSTORE JUMPDEST POP POP POP POP JUMP JUMPDEST PUSH1 0x0 PUSH1 0x1F NOT PUSH1 0x1F DUP4 ADD AND SWAP1 POP SWAP2 SWAP1 POP JUMP JUMPDEST PUSH1 0x0 PUSH2 0x83C DUP3 PUSH2 0x7D1 JUMP JUMPDEST PUSH2 0x846 DUP2 DUP6 PUSH2 0x7DC JUMP JUMPDEST SWAP4 POP PUSH2 0x856 DUP2 DUP6 PUSH1 0x20 DUP7 ADD PUSH2 0x7ED JUMP JUMPDEST PUSH2 0x85F DUP2 PUSH2 0x820 JUMP JUMPDEST DUP5 ADD SWAP2 POP POP SWAP3 SWAP2 POP POP JUMP JUMPDEST PUSH2 0x873 DUP2 PUSH2 0x75B JUMP JUMPDEST DUP3 MSTORE POP POP JUMP JUMPDEST PUSH1 0x0 PUSH1 0x4 SWAP1 POP SWAP2 SWAP1 POP JUMP JUMPDEST PUSH1 0x0 DUP2 SWAP1 POP SWAP3 SWAP2 POP POP JUMP JUMPDEST PUSH1 0x0 DUP2 SWAP1 POP SWAP2 SWAP1 POP JUMP JUMPDEST PUSH2 0x8A2 DUP2 PUSH2 0x71D JUMP JUMPDEST DUP3 MSTORE POP POP JUMP JUMPDEST PUSH1 0x0 PUSH2 0x8B4 DUP4 DUP4 PUSH2 0x899 JUMP JUMPDEST PUSH1 0x20 DUP4 ADD SWAP1 POP SWAP3 SWAP2 POP POP JUMP JUMPDEST PUSH1 0x0 PUSH1 0x20 DUP3 ADD SWAP1 POP SWAP2 SWAP1 POP JUMP JUMPDEST PUSH2 0x8D6 DUP2 PUSH2 0x879 JUMP JUMPDEST PUSH2 0x8E0 DUP2 DUP5 PUSH2 0x884 JUMP JUMPDEST SWAP3 POP PUSH2 0x8EB DUP3 PUSH2 0x88F JUMP JUMPDEST DUP1 PUSH1 0x0 JUMPDEST DUP4 DUP2 LT ISZERO PUSH2 0x91C JUMPI DUP2 MLOAD PUSH2 0x903 DUP8 DUP3 PUSH2 0x8A8 JUMP JUMPDEST SWAP7 POP PUSH2 0x90E DUP4 PUSH2 0x8C0 JUMP JUMPDEST SWAP3 POP POP PUSH1 0x1 DUP2 ADD SWAP1 POP PUSH2 0x8EF JUMP JUMPDEST POP POP POP POP POP POP JUMP JUMPDEST PUSH1 0x0 PUSH2 0x100 DUP3 ADD SWAP1 POP DUP2 DUP2 SUB PUSH1 0x0 DUP4 ADD MSTORE PUSH2 0x93F DUP2 DUP9 PUSH2 0x831 JUMP JUMPDEST SWAP1 POP PUSH2 0x94E PUSH1 0x20 DUP4 ADD DUP8 PUSH2 0x86A JUMP JUMPDEST PUSH2 0x95B PUSH1 0x40 DUP4 ADD DUP7 PUSH2 0x86A JUMP JUMPDEST PUSH2 0x968 PUSH1 0x60 DUP4 ADD DUP6 PUSH2 0x86A JUMP JUMPDEST PUSH2 0x975 PUSH1 0x80 DUP4 ADD DUP5 PUSH2 0x8CD JUMP JUMPDEST SWAP7 SWAP6 POP POP POP POP POP POP JUMP JUMPDEST PUSH1 0x0 DUP1 PUSH1 0x0 PUSH1 0x60 DUP5 DUP7 SUB SLT ISZERO PUSH2 0x998 JUMPI PUSH2 0x997 PUSH2 0x6F8 JUMP JUMPDEST JUMPDEST PUSH1 0x0 PUSH2 0x9A6 DUP7 DUP3 DUP8 ADD PUSH2 0x746 JUMP JUMPDEST SWAP4 POP POP PUSH1 0x20 PUSH2 0x9B7 DUP7 DUP3 DUP8 ADD PUSH2 0x77C JUMP JUMPDEST SWAP3 POP POP PUSH1 0x40 PUSH2 0x9C8 DUP7 DUP3 DUP8 ADD PUSH2 0x77C JUMP JUMPDEST SWAP2 POP POP SWAP3 POP SWAP3 POP SWAP3 JUMP JUMPDEST PUSH1 0x0 DUP1 PUSH1 0x0 DUP1 PUSH1 0x80 DUP6 DUP8 SUB SLT ISZERO PUSH2 0x9EC JUMPI PUSH2 0x9EB PUSH2 0x6F8 JUMP JUMPDEST JUMPDEST PUSH1 0x0 PUSH2 0x9FA DUP8 DUP3 DUP9 ADD PUSH2 0x746 JUMP JUMPDEST SWAP5 POP POP PUSH1 0x20 PUSH2 0xA0B DUP8 DUP3 DUP9 ADD PUSH2 0x746 JUMP JUMPDEST SWAP4 POP POP PUSH1 0x40 PUSH2 0xA1C DUP8 DUP3 DUP9 ADD PUSH2 0x746 JUMP JUMPDEST SWAP3 POP POP PUSH1 0x60 PUSH2 0xA2D DUP8 DUP3 DUP9 ADD PUSH2 0x77C JUMP JUMPDEST SWAP2 POP POP SWAP3 SWAP6 SWAP2 SWAP5 POP SWAP3 POP JUMP JUMPDEST PUSH32 0x4E487B7100000000000000000000000000000000000000000000000000000000 PUSH1 0x0 MSTORE PUSH1 0x21 PUSH1 0x4 MSTORE PUSH1 0x24 PUSH1 0x0 REVERT JUMPDEST PUSH32 0x4E487B7100000000000000000000000000000000000000000000000000000000 PUSH1 0x0 MSTORE PUSH1 0x11 PUSH1 0x4 MSTORE PUSH1 0x24 PUSH1 0x0 REVERT JUMPDEST PUSH1 0x0 PUSH2 0xAA2 DUP3 PUSH2 0x75B JUMP JUMPDEST SWAP2 POP PUSH2 0xAAD DUP4 PUSH2 0x75B JUMP JUMPDEST SWAP3 POP DUP3 PUSH32 0xFFFFFFFFFFFFFFFFFFFFFFFFFFFFFFFFFFFFFFFFFFFFFFFFFFFFFFFFFFFFFFFF SUB DUP3 GT ISZERO PUSH2 0xAE2 JUMPI PUSH2 0xAE1 PUSH2 0xA68 JUMP JUMPDEST JUMPDEST DUP3 DUP3 ADD SWAP1 POP SWAP3 SWAP2 POP POP JUMP JUMPDEST PUSH32 0x4E487B7100000000000000000000000000000000000000000000000000000000 PUSH1 0x0 MSTORE PUSH1 0x22 PUSH1 0x4 MSTORE PUSH1 0x24 PUSH1 0x0 REVERT JUMPDEST PUSH1 0x0 PUSH1 0x2 DUP3 DIV SWAP1 POP PUSH1 0x1 DUP3 AND DUP1 PUSH2 0xB34 JUMPI PUSH1 0x7F DUP3 AND SWAP2 POP JUMPDEST PUSH1 0x20 DUP3 LT DUP2 EQ ISZERO PUSH2 0xB48 JUMPI PUSH2 0xB47 PUSH2 0xAED JUMP JUMPDEST JUMPDEST POP SWAP2 SWAP1 POP JUMP JUMPDEST PUSH32 0x4E487B7100000000000000000000000000000000000000000000000000000000 PUSH1 0x0 MSTORE PUSH1 0x32 PUSH1 0x4 MSTORE PUSH1 0x24 PUSH1 0x0 REVERT JUMPDEST PUSH1 0x0 PUSH2 0xB88 DUP3 PUSH2 0x75B JUMP JUMPDEST SWAP2 POP PUSH2 0xB93 DUP4 PUSH2 0x75B JUMP JUMPDEST SWAP3 POP DUP3 DUP3 LT ISZERO PUSH2 0xBA6 JUMPI PUSH2 0xBA5 PUSH2 0xA68 JUMP JUMPDEST JUMPDEST DUP3 DUP3 SUB SWAP1 POP SWAP3 SWAP2 POP POP JUMP INVALID LOG2 PUSH5 0x6970667358 0x22 SLT KECCAK256 0xF9 JUMP 0xCF ADDRESS PUSH7 0xFD91E1147358FD 0x5C 0xDF CHAINID 0xA7 0xBB 0xD0 PUSH11 0xD151C33C171EF00AEFF112 PUSH25 0x764736F6C634300080A003300000000000000000000000000 "
    }
  }
}