{"abi":[{"inputs":[{"internalType":"uint256","name":"_price","type":"uint256"},{"internalType":"address","name":"_sender","type":"address"},{"internalType":"address","name":"_receiver","type":"address"}],"stateMutability":"nonpayable","type":"constructor"},{"inputs":[{"internalType":"address[]","name":"_batches","type":"address[]"},{"internalType":"address","name":"_shipper","type":"address"},{"internalType":"uint256","name":"senderType","type":"uint256"}],"name":"addInfo","outputs":[],"stateMutability":"nonpayable","type":"function"},{"inputs":[],"name":"getInfo","outputs":[{"internalType":"uint256","name":"","type":"uint256"},{"internalType":"address[]","name":"","type":"address[]"},{"internalType":"address","name":"","type":"address"},{"internalType":"address","name":"","type":"address"},{"internalType":"address","name":"","type":"address"},{"internalType":"uint256","name":"","type":"uint256"},{"internalType":"uint256","name":"","type":"uint256"}],"stateMutability":"view","type":"function"},{"inputs":[{"internalType":"address","name":"_shipper","type":"address"},{"internalType":"uint256","name":"senderType","type":"uint256"}],"name":"pickOrder","outputs":[],"stateMutability":"nonpayable","type":"function"},{"inputs":[{"internalType":"address","name":"_receiver","type":"address"},{"internalType":"uint256","name":"_condition","type":"uint256"},{"internalType":"uint256","name":"receiverType","type":"uint256"}],"name":"receiveOrder","outputs":[],"stateMutability":"nonpayable","type":"function"},{"stateMutability":"payable","type":"receive"}],"evm":{"bytecode":{"linkReferences":{},"object":"60806040523480156200001157600080fd5b5060405162001223380380620012238339818101604052810190620000379190620001df565b8260008190555081600260006101000a81548173ffffffffffffffffffffffffffffffffffffffff021916908373ffffffffffffffffffffffffffffffffffffffff16021790555080600360006101000a81548173ffffffffffffffffffffffffffffffffffffffff021916908373ffffffffffffffffffffffffffffffffffffffff16021790555060006002811115620000d757620000d66200023b565b5b600460146101000a81548160ff02191690836002811115620000fe57620000fd6200023b565b5b02179055506000600460156101000a81548160ff021916908360018111156200012c576200012b6200023b565b5b02179055505050506200026a565b600080fd5b6000819050919050565b62000154816200013f565b81146200016057600080fd5b50565b600081519050620001748162000149565b92915050565b600073ffffffffffffffffffffffffffffffffffffffff82169050919050565b6000620001a7826200017a565b9050919050565b620001b9816200019a565b8114620001c557600080fd5b50565b600081519050620001d981620001ae565b92915050565b600080600060608486031215620001fb57620001fa6200013a565b5b60006200020b8682870162000163565b93505060206200021e86828701620001c8565b92505060406200023186828701620001c8565b9150509250925092565b7f4e487b7100000000000000000000000000000000000000000000000000000000600052602160045260246000fd5b610fa9806200027a6000396000f3fe6080604052600436106100435760003560e01c806325d477531461004f5780635a9b0b8914610078578063670fafc6146100a9578063866fb4a2146100d25761004a565b3661004a57005b600080fd5b34801561005b57600080fd5b50610076600480360381019061007191906109ec565b6100fb565b005b34801561008457600080fd5b5061008d6102a5565b6040516100a09796959493929190610b08565b60405180910390f35b3480156100b557600080fd5b506100d060048036038101906100cb9190610cd7565b610401565b005b3480156100de57600080fd5b506100f960048036038101906100f49190610d46565b61060f565b005b8173ffffffffffffffffffffffffffffffffffffffff16600460009054906101000a900473ffffffffffffffffffffffffffffffffffffffff1673ffffffffffffffffffffffffffffffffffffffff161461015557600080fd5b6000600281111561016957610168610d99565b5b600281111561017b5761017a610d99565b5b600460149054906101000a900460ff16600281111561019d5761019c610d99565b5b146101a757600080fd5b6001600460146101000a81548160ff021916908360028111156101cd576101cc610d99565b5b021790555060005b6001805490508110156102a057600181815481106101f6576101f5610dc8565b5b9060005260206000200160009054906101000a900473ffffffffffffffffffffffffffffffffffffffff1673ffffffffffffffffffffffffffffffffffffffff16632040a8de84846040518363ffffffff1660e01b815260040161025b929190610df7565b600060405180830381600087803b15801561027557600080fd5b505af1158015610289573d6000803e3d6000fd5b50505050808061029890610e4f565b9150506101d5565b505050565b60006060600080600080600080546001600260009054906101000a900473ffffffffffffffffffffffffffffffffffffffff16600360009054906101000a900473ffffffffffffffffffffffffffffffffffffffff16600460009054906101000a900473ffffffffffffffffffffffffffffffffffffffff16600460149054906101000a900460ff1660028111156103405761033f610d99565b5b600460159054906101000a900460ff16600181111561036257610361610d99565b5b858054806020026020016040519081016040528092919081815260200182805480156103e357602002820191906000526020600020905b8160009054906101000a900473ffffffffffffffffffffffffffffffffffffffff1673ffffffffffffffffffffffffffffffffffffffff1681526020019060010190808311610399575b50505050509550965096509650965096509650965090919293949596565b6000600281111561041557610414610d99565b5b600460149054906101000a900460ff16600281111561043757610436610d99565b5b1461044157600080fd5b3373ffffffffffffffffffffffffffffffffffffffff16600260009054906101000a900473ffffffffffffffffffffffffffffffffffffffff1673ffffffffffffffffffffffffffffffffffffffff161461049b57600080fd5b82600190805190602001906104b192919061089d565b5081600460006101000a81548173ffffffffffffffffffffffffffffffffffffffff021916908373ffffffffffffffffffffffffffffffffffffffff16021790555060005b600180549050811015610609576001818154811061051757610516610dc8565b5b9060005260206000200160009054906101000a900473ffffffffffffffffffffffffffffffffffffffff1673ffffffffffffffffffffffffffffffffffffffff1663d074892d600260009054906101000a900473ffffffffffffffffffffffffffffffffffffffff1685600360009054906101000a900473ffffffffffffffffffffffffffffffffffffffff16866040518563ffffffff1660e01b81526004016105c49493929190610ef7565b600060405180830381600087803b1580156105de57600080fd5b505af11580156105f2573d6000803e3d6000fd5b50505050808061060190610e4f565b9150506104f6565b50505050565b8273ffffffffffffffffffffffffffffffffffffffff16600360009054906101000a900473ffffffffffffffffffffffffffffffffffffffff1673ffffffffffffffffffffffffffffffffffffffff161461066957600080fd5b6001600281111561067d5761067c610d99565b5b600460149054906101000a900460ff16600281111561069f5761069e610d99565b5b146106a957600080fd5b600060018111156106bd576106bc610d99565b5b600460159054906101000a900460ff1660018111156106df576106de610d99565b5b1480156106ec5750600182145b156107325781600181111561070457610703610d99565b5b600460156101000a81548160ff0219169083600181111561072857610727610d99565b5b0217905550610898565b6002600460146101000a81548160ff0219169083600281111561075857610757610d99565b5b021790555060005b60018054905081101561082d576001818154811061078157610780610dc8565b5b9060005260206000200160009054906101000a900473ffffffffffffffffffffffffffffffffffffffff1673ffffffffffffffffffffffffffffffffffffffff1663a0c741b08584866040518463ffffffff1660e01b81526004016107e893929190610f3c565b600060405180830381600087803b15801561080257600080fd5b505af1158015610816573d6000803e3d6000fd5b50505050808061082590610e4f565b915050610760565b50600260009054906101000a900473ffffffffffffffffffffffffffffffffffffffff1673ffffffffffffffffffffffffffffffffffffffff166108fc479081150290604051600060405180830381858888f19350505050158015610896573d6000803e3d6000fd5b505b505050565b828054828255906000526020600020908101928215610916579160200282015b828111156109155782518260006101000a81548173ffffffffffffffffffffffffffffffffffffffff021916908373ffffffffffffffffffffffffffffffffffffffff160217905550916020019190600101906108bd565b5b5090506109239190610927565b5090565b5b80821115610940576000816000905550600101610928565b5090565b6000604051905090565b600080fd5b600080fd5b600073ffffffffffffffffffffffffffffffffffffffff82169050919050565b600061098382610958565b9050919050565b61099381610978565b811461099e57600080fd5b50565b6000813590506109b08161098a565b92915050565b6000819050919050565b6109c9816109b6565b81146109d457600080fd5b50565b6000813590506109e6816109c0565b92915050565b60008060408385031215610a0357610a0261094e565b5b6000610a11858286016109a1565b9250506020610a22858286016109d7565b9150509250929050565b610a35816109b6565b82525050565b600081519050919050565b600082825260208201905092915050565b6000819050602082019050919050565b610a7081610978565b82525050565b6000610a828383610a67565b60208301905092915050565b6000602082019050919050565b6000610aa682610a3b565b610ab08185610a46565b9350610abb83610a57565b8060005b83811015610aec578151610ad38882610a76565b9750610ade83610a8e565b925050600181019050610abf565b5085935050505092915050565b610b0281610978565b82525050565b600060e082019050610b1d600083018a610a2c565b8181036020830152610b2f8189610a9b565b9050610b3e6040830188610af9565b610b4b6060830187610af9565b610b586080830186610af9565b610b6560a0830185610a2c565b610b7260c0830184610a2c565b98975050505050505050565b600080fd5b6000601f19601f8301169050919050565b7f4e487b7100000000000000000000000000000000000000000000000000000000600052604160045260246000fd5b610bcc82610b83565b810181811067ffffffffffffffff82111715610beb57610bea610b94565b5b80604052505050565b6000610bfe610944565b9050610c0a8282610bc3565b919050565b600067ffffffffffffffff821115610c2a57610c29610b94565b5b602082029050602081019050919050565b600080fd5b6000610c53610c4e84610c0f565b610bf4565b90508083825260208201905060208402830185811115610c7657610c75610c3b565b5b835b81811015610c9f5780610c8b88826109a1565b845260208401935050602081019050610c78565b5050509392505050565b600082601f830112610cbe57610cbd610b7e565b5b8135610cce848260208601610c40565b91505092915050565b600080600060608486031215610cf057610cef61094e565b5b600084013567ffffffffffffffff811115610d0e57610d0d610953565b5b610d1a86828701610ca9565b9350506020610d2b868287016109a1565b9250506040610d3c868287016109d7565b9150509250925092565b600080600060608486031215610d5f57610d5e61094e565b5b6000610d6d868287016109a1565b9350506020610d7e868287016109d7565b9250506040610d8f868287016109d7565b9150509250925092565b7f4e487b7100000000000000000000000000000000000000000000000000000000600052602160045260246000fd5b7f4e487b7100000000000000000000000000000000000000000000000000000000600052603260045260246000fd5b6000604082019050610e0c6000830185610af9565b610e196020830184610a2c565b9392505050565b7f4e487b7100000000000000000000000000000000000000000000000000000000600052601160045260246000fd5b6000610e5a826109b6565b91507fffffffffffffffffffffffffffffffffffffffffffffffffffffffffffffffff821415610e8d57610e8c610e20565b5b600182019050919050565b6000819050919050565b6000610ebd610eb8610eb384610958565b610e98565b610958565b9050919050565b6000610ecf82610ea2565b9050919050565b6000610ee182610ec4565b9050919050565b610ef181610ed6565b82525050565b6000608082019050610f0c6000830187610ee8565b610f196020830186610af9565b610f266040830185610af9565b610f336060830184610a2c565b95945050505050565b6000606082019050610f516000830186610af9565b610f5e6020830185610a2c565b610f6b6040830184610a2c565b94935050505056fea2646970667358221220cfc7623e2712c9e4f0692a8859a0f68393d73dcb11ce93381519451b3011b27e64736f6c634300080c0033","opcodes":"PUSH1 0x80 PUSH1 0x40 MSTORE CALLVALUE DUP1 ISZERO PUSH3 0x11 JUMPI PUSH1 0x0 DUP1 REVERT JUMPDEST POP PUSH1 0x40 MLOAD PUSH3 0x1223 CODESIZE SUB DUP1 PUSH3 0x1223 DUP4 CODECOPY DUP2 DUP2 ADD PUSH1 0x40 MSTORE DUP2 ADD SWAP1 PUSH3 0x37 SWAP2 SWAP1 PUSH3 0x1DF JUMP JUMPDEST DUP3 PUSH1 0x0 DUP2 SWAP1 SSTORE POP DUP2 PUSH1 0x2 PUSH1 0x0 PUSH2 0x100 EXP DUP2 SLOAD DUP2 PUSH20 0xFFFFFFFFFFFFFFFFFFFFFFFFFFFFFFFFFFFFFFFF MUL NOT AND SWAP1 DUP4 PUSH20 0xFFFFFFFFFFFFFFFFFFFFFFFFFFFFFFFFFFFFFFFF AND MUL OR SWAP1 SSTORE POP DUP1 PUSH1 0x3 PUSH1 0x0 PUSH2 0x100 EXP DUP2 SLOAD DUP2 PUSH20 0xFFFFFFFFFFFFFFFFFFFFFFFFFFFFFFFFFFFFFFFF MUL NOT AND SWAP1 DUP4 PUSH20 0xFFFFFFFFFFFFFFFFFFFFFFFFFFFFFFFFFFFFFFFF AND MUL OR SWAP1 SSTORE POP PUSH1 0x0 PUSH1 0x2 DUP2 GT ISZERO PUSH3 0xD7 JUMPI PUSH3 0xD6 PUSH3 0x23B JUMP JUMPDEST JUMPDEST PUSH1 0x4 PUSH1 0x14 PUSH2 0x100 EXP DUP2 SLOAD DUP2 PUSH1 0xFF MUL NOT AND SWAP1 DUP4 PUSH1 0x2 DUP2 GT ISZERO PUSH3 0xFE JUMPI PUSH3 0xFD PUSH3 0x23B JUMP JUMPDEST JUMPDEST MUL OR SWAP1 SSTORE POP PUSH1 0x0 PUSH1 0x4 PUSH1 0x15 PUSH2 0x100 EXP DUP2 SLOAD DUP2 PUSH1 0xFF MUL NOT AND SWAP1 DUP4 PUSH1 0x1 DUP2 GT ISZERO PUSH3 0x12C JUMPI PUSH3 0x12B PUSH3 0x23B JUMP JUMPDEST JUMPDEST MUL OR SWAP1 SSTORE POP POP POP POP PUSH3 0x26A JUMP JUMPDEST PUSH1 0x0 DUP1 REVERT JUMPDEST PUSH1 0x0 DUP2 SWAP1 POP SWAP2 SWAP1 POP JUMP JUMPDEST PUSH3 0x154 DUP2 PUSH3 0x13F JUMP JUMPDEST DUP2 EQ PUSH3 0x160 JUMPI PUSH1 0x0 DUP1 REVERT JUMPDEST POP JUMP JUMPDEST PUSH1 0x0 DUP2 MLOAD SWAP1 POP PUSH3 0x174 DUP2 PUSH3 0x149 JUMP JUMPDEST SWAP3 SWAP2 POP POP JUMP JUMPDEST PUSH1 0x0 PUSH20 0xFFFFFFFFFFFFFFFFFFFFFFFFFFFFFFFFFFFFFFFF DUP3 AND SWAP1 POP SWAP2 SWAP1 POP JUMP JUMPDEST PUSH1 0x0 PUSH3 0x1A7 DUP3 PUSH3 0x17A JUMP JUMPDEST SWAP1 POP SWAP2 SWAP1 POP JUMP JUMPDEST PUSH3 0x1B9 DUP2 PUSH3 0x19A JUMP JUMPDEST DUP2 EQ PUSH3 0x1C5 JUMPI PUSH1 0x0 DUP1 REVERT JUMPDEST POP JUMP JUMPDEST PUSH1 0x0 DUP2 MLOAD SWAP1 POP PUSH3 0x1D9 DUP2 PUSH3 0x1AE JUMP JUMPDEST SWAP3 SWAP2 POP POP JUMP JUMPDEST PUSH1 0x0 DUP1 PUSH1 0x0 PUSH1 0x60 DUP5 DUP7 SUB SLT ISZERO PUSH3 0x1FB JUMPI PUSH3 0x1FA PUSH3 0x13A JUMP JUMPDEST JUMPDEST PUSH1 0x0 PUSH3 0x20B DUP7 DUP3 DUP8 ADD PUSH3 0x163 JUMP JUMPDEST SWAP4 POP POP PUSH1 0x20 PUSH3 0x21E DUP7 DUP3 DUP8 ADD PUSH3 0x1C8 JUMP JUMPDEST SWAP3 POP POP PUSH1 0x40 PUSH3 0x231 DUP7 DUP3 DUP8 ADD PUSH3 0x1C8 JUMP JUMPDEST SWAP2 POP POP SWAP3 POP SWAP3 POP SWAP3 JUMP JUMPDEST PUSH32 0x4E487B7100000000000000000000000000000000000000000000000000000000 PUSH1 0x0 MSTORE PUSH1 0x21 PUSH1 0x4 MSTORE PUSH1 0x24 PUSH1 0x0 REVERT JUMPDEST PUSH2 0xFA9 DUP1 PUSH3 0x27A PUSH1 0x0 CODECOPY PUSH1 0x0 RETURN INVALID PUSH1 0x80 PUSH1 0x40 MSTORE PUSH1 0x4 CALLDATASIZE LT PUSH2 0x43 JUMPI PUSH1 0x0 CALLDATALOAD PUSH1 0xE0 SHR DUP1 PUSH4 0x25D47753 EQ PUSH2 0x4F JUMPI DUP1 PUSH4 0x5A9B0B89 EQ PUSH2 0x78 JUMPI DUP1 PUSH4 0x670FAFC6 EQ PUSH2 0xA9 JUMPI DUP1 PUSH4 0x866FB4A2 EQ PUSH2 0xD2 JUMPI PUSH2 0x4A JUMP JUMPDEST CALLDATASIZE PUSH2 0x4A JUMPI STOP JUMPDEST PUSH1 0x0 DUP1 REVERT JUMPDEST CALLVALUE DUP1 ISZERO PUSH2 0x5B JUMPI PUSH1 0x0 DUP1 REVERT JUMPDEST POP PUSH2 0x76 PUSH1 0x4 DUP1 CALLDATASIZE SUB DUP2 ADD SWAP1 PUSH2 0x71 SWAP2 SWAP1 PUSH2 0x9EC JUMP JUMPDEST PUSH2 0xFB JUMP JUMPDEST STOP JUMPDEST CALLVALUE DUP1 ISZERO PUSH2 0x84 JUMPI PUSH1 0x0 DUP1 REVERT JUMPDEST POP PUSH2 0x8D PUSH2 0x2A5 JUMP JUMPDEST PUSH1 0x40 MLOAD PUSH2 0xA0 SWAP8 SWAP7 SWAP6 SWAP5 SWAP4 SWAP3 SWAP2 SWAP1 PUSH2 0xB08 JUMP JUMPDEST PUSH1 0x40 MLOAD DUP1 SWAP2 SUB SWAP1 RETURN JUMPDEST CALLVALUE DUP1 ISZERO PUSH2 0xB5 JUMPI PUSH1 0x0 DUP1 REVERT JUMPDEST POP PUSH2 0xD0 PUSH1 0x4 DUP1 CALLDATASIZE SUB DUP2 ADD SWAP1 PUSH2 0xCB SWAP2 SWAP1 PUSH2 0xCD7 JUMP JUMPDEST PUSH2 0x401 JUMP JUMPDEST STOP JUMPDEST CALLVALUE DUP1 ISZERO PUSH2 0xDE JUMPI PUSH1 0x0 DUP1 REVERT JUMPDEST POP PUSH2 0xF9 PUSH1 0x4 DUP1 CALLDATASIZE SUB DUP2 ADD SWAP1 PUSH2 0xF4 SWAP2 SWAP1 PUSH2 0xD46 JUMP JUMPDEST PUSH2 0x60F JUMP JUMPDEST STOP JUMPDEST DUP2 PUSH20 0xFFFFFFFFFFFFFFFFFFFFFFFFFFFFFFFFFFFFFFFF AND PUSH1 0x4 PUSH1 0x0 SWAP1 SLOAD SWAP1 PUSH2 0x100 EXP SWAP1 DIV PUSH20 0xFFFFFFFFFFFFFFFFFFFFFFFFFFFFFFFFFFFFFFFF AND PUSH20 0xFFFFFFFFFFFFFFFFFFFFFFFFFFFFFFFFFFFFFFFF AND EQ PUSH2 0x155 JUMPI PUSH1 0x0 DUP1 REVERT JUMPDEST PUSH1 0x0 PUSH1 0x2 DUP2 GT ISZERO PUSH2 0x169 JUMPI PUSH2 0x168 PUSH2 0xD99 JUMP JUMPDEST JUMPDEST PUSH1 0x2 DUP2 GT ISZERO PUSH2 0x17B JUMPI PUSH2 0x17A PUSH2 0xD99 JUMP JUMPDEST JUMPDEST PUSH1 0x4 PUSH1 0x14 SWAP1 SLOAD SWAP1 PUSH2 0x100 EXP SWAP1 DIV PUSH1 0xFF AND PUSH1 0x2 DUP2 GT ISZERO PUSH2 0x19D JUMPI PUSH2 0x19C PUSH2 0xD99 JUMP JUMPDEST JUMPDEST EQ PUSH2 0x1A7 JUMPI PUSH1 0x0 DUP1 REVERT JUMPDEST PUSH1 0x1 PUSH1 0x4 PUSH1 0x14 PUSH2 0x100 EXP DUP2 SLOAD DUP2 PUSH1 0xFF MUL NOT AND SWAP1 DUP4 PUSH1 0x2 DUP2 GT ISZERO PUSH2 0x1CD JUMPI PUSH2 0x1CC PUSH2 0xD99 JUMP JUMPDEST JUMPDEST MUL OR SWAP1 SSTORE POP PUSH1 0x0 JUMPDEST PUSH1 0x1 DUP1 SLOAD SWAP1 POP DUP2 LT ISZERO PUSH2 0x2A0 JUMPI PUSH1 0x1 DUP2 DUP2 SLOAD DUP2 LT PUSH2 0x1F6 JUMPI PUSH2 0x1F5 PUSH2 0xDC8 JUMP JUMPDEST JUMPDEST SWAP1 PUSH1 0x0 MSTORE PUSH1 0x20 PUSH1 0x0 KECCAK256 ADD PUSH1 0x0 SWAP1 SLOAD SWAP1 PUSH2 0x100 EXP SWAP1 DIV PUSH20 0xFFFFFFFFFFFFFFFFFFFFFFFFFFFFFFFFFFFFFFFF AND PUSH20 0xFFFFFFFFFFFFFFFFFFFFFFFFFFFFFFFFFFFFFFFF AND PUSH4 0x2040A8DE DUP5 DUP5 PUSH1 0x40 MLOAD DUP4 PUSH4 0xFFFFFFFF AND PUSH1 0xE0 SHL DUP2 MSTORE PUSH1 0x4 ADD PUSH2 0x25B SWAP3 SWAP2 SWAP1 PUSH2 0xDF7 JUMP JUMPDEST PUSH1 0x0 PUSH1 0x40 MLOAD DUP1 DUP4 SUB DUP2 PUSH1 0x0 DUP8 DUP1 EXTCODESIZE ISZERO DUP1 ISZERO PUSH2 0x275 JUMPI PUSH1 0x0 DUP1 REVERT JUMPDEST POP GAS CALL ISZERO DUP1 ISZERO PUSH2 0x289 JUMPI RETURNDATASIZE PUSH1 0x0 DUP1 RETURNDATACOPY RETURNDATASIZE PUSH1 0x0 REVERT JUMPDEST POP POP POP POP DUP1 DUP1 PUSH2 0x298 SWAP1 PUSH2 0xE4F JUMP JUMPDEST SWAP2 POP POP PUSH2 0x1D5 JUMP JUMPDEST POP POP POP JUMP JUMPDEST PUSH1 0x0 PUSH1 0x60 PUSH1 0x0 DUP1 PUSH1 0x0 DUP1 PUSH1 0x0 DUP1 SLOAD PUSH1 0x1 PUSH1 0x2 PUSH1 0x0 SWAP1 SLOAD SWAP1 PUSH2 0x100 EXP SWAP1 DIV PUSH20 0xFFFFFFFFFFFFFFFFFFFFFFFFFFFFFFFFFFFFFFFF AND PUSH1 0x3 PUSH1 0x0 SWAP1 SLOAD SWAP1 PUSH2 0x100 EXP SWAP1 DIV PUSH20 0xFFFFFFFFFFFFFFFFFFFFFFFFFFFFFFFFFFFFFFFF AND PUSH1 0x4 PUSH1 0x0 SWAP1 SLOAD SWAP1 PUSH2 0x100 EXP SWAP1 DIV PUSH20 0xFFFFFFFFFFFFFFFFFFFFFFFFFFFFFFFFFFFFFFFF AND PUSH1 0x4 PUSH1 0x14 SWAP1 SLOAD SWAP1 PUSH2 0x100 EXP SWAP1 DIV PUSH1 0xFF AND PUSH1 0x2 DUP2 GT ISZERO PUSH2 0x340 JUMPI PUSH2 0x33F PUSH2 0xD99 JUMP JUMPDEST JUMPDEST PUSH1 0x4 PUSH1 0x15 SWAP1 SLOAD SWAP1 PUSH2 0x100 EXP SWAP1 DIV PUSH1 0xFF AND PUSH1 0x1 DUP2 GT ISZERO PUSH2 0x362 JUMPI PUSH2 0x361 PUSH2 0xD99 JUMP JUMPDEST JUMPDEST DUP6 DUP1 SLOAD DUP1 PUSH1 0x20 MUL PUSH1 0x20 ADD PUSH1 0x40 MLOAD SWAP1 DUP2 ADD PUSH1 0x40 MSTORE DUP1 SWAP3 SWAP2 SWAP1 DUP2 DUP2 MSTORE PUSH1 0x20 ADD DUP3 DUP1 SLOAD DUP1 ISZERO PUSH2 0x3E3 JUMPI PUSH1 0x20 MUL DUP3 ADD SWAP2 SWAP1 PUSH1 0x0 MSTORE PUSH1 0x20 PUSH1 0x0 KECCAK256 SWAP1 JUMPDEST DUP2 PUSH1 0x0 SWAP1 SLOAD SWAP1 PUSH2 0x100 EXP SWAP1 DIV PUSH20 0xFFFFFFFFFFFFFFFFFFFFFFFFFFFFFFFFFFFFFFFF AND PUSH20 0xFFFFFFFFFFFFFFFFFFFFFFFFFFFFFFFFFFFFFFFF AND DUP2 MSTORE PUSH1 0x20 ADD SWAP1 PUSH1 0x1 ADD SWAP1 DUP1 DUP4 GT PUSH2 0x399 JUMPI JUMPDEST POP POP POP POP POP SWAP6 POP SWAP7 POP SWAP7 POP SWAP7 POP SWAP7 POP SWAP7 POP SWAP7 POP SWAP7 POP SWAP1 SWAP2 SWAP3 SWAP4 SWAP5 SWAP6 SWAP7 JUMP JUMPDEST PUSH1 0x0 PUSH1 0x2 DUP2 GT ISZERO PUSH2 0x415 JUMPI PUSH2 0x414 PUSH2 0xD99 JUMP JUMPDEST JUMPDEST PUSH1 0x4 PUSH1 0x14 SWAP1 SLOAD SWAP1 PUSH2 0x100 EXP SWAP1 DIV PUSH1 0xFF AND PUSH1 0x2 DUP2 GT ISZERO PUSH2 0x437 JUMPI PUSH2 0x436 PUSH2 0xD99 JUMP JUMPDEST JUMPDEST EQ PUSH2 0x441 JUMPI PUSH1 0x0 DUP1 REVERT JUMPDEST CALLER PUSH20 0xFFFFFFFFFFFFFFFFFFFFFFFFFFFFFFFFFFFFFFFF AND PUSH1 0x2 PUSH1 0x0 SWAP1 SLOAD SWAP1 PUSH2 0x100 EXP SWAP1 DIV PUSH20 0xFFFFFFFFFFFFFFFFFFFFFFFFFFFFFFFFFFFFFFFF AND PUSH20 0xFFFFFFFFFFFFFFFFFFFFFFFFFFFFFFFFFFFFFFFF AND EQ PUSH2 0x49B JUMPI PUSH1 0x0 DUP1 REVERT JUMPDEST DUP3 PUSH1 0x1 SWAP1 DUP1 MLOAD SWAP1 PUSH1 0x20 ADD SWAP1 PUSH2 0x4B1 SWAP3 SWAP2 SWAP1 PUSH2 0x89D JUMP JUMPDEST POP DUP2 PUSH1 0x4 PUSH1 0x0 PUSH2 0x100 EXP DUP2 SLOAD DUP2 PUSH20 0xFFFFFFFFFFFFFFFFFFFFFFFFFFFFFFFFFFFFFFFF MUL NOT AND SWAP1 DUP4 PUSH20 0xFFFFFFFFFFFFFFFFFFFFFFFFFFFFFFFFFFFFFFFF AND MUL OR SWAP1 SSTORE POP PUSH1 0x0 JUMPDEST PUSH1 0x1 DUP1 SLOAD SWAP1 POP DUP2 LT ISZERO PUSH2 0x609 JUMPI PUSH1 0x1 DUP2 DUP2 SLOAD DUP2 LT PUSH2 0x517 JUMPI PUSH2 0x516 PUSH2 0xDC8 JUMP JUMPDEST JUMPDEST SWAP1 PUSH1 0x0 MSTORE PUSH1 0x20 PUSH1 0x0 KECCAK256 ADD PUSH1 0x0 SWAP1 SLOAD SWAP1 PUSH2 0x100 EXP SWAP1 DIV PUSH20 0xFFFFFFFFFFFFFFFFFFFFFFFFFFFFFFFFFFFFFFFF AND PUSH20 0xFFFFFFFFFFFFFFFFFFFFFFFFFFFFFFFFFFFFFFFF AND PUSH4 0xD074892D PUSH1 0x2 PUSH1 0x0 SWAP1 SLOAD SWAP1 PUSH2 0x100 EXP SWAP1 DIV PUSH20 0xFFFFFFFFFFFFFFFFFFFFFFFFFFFFFFFFFFFFFFFF AND DUP6 PUSH1 0x3 PUSH1 0x0 SWAP1 SLOAD SWAP1 PUSH2 0x100 EXP SWAP1 DIV PUSH20 0xFFFFFFFFFFFFFFFFFFFFFFFFFFFFFFFFFFFFFFFF AND DUP7 PUSH1 0x40 MLOAD DUP6 PUSH4 0xFFFFFFFF AND PUSH1 0xE0 SHL DUP2 MSTORE PUSH1 0x4 ADD PUSH2 0x5C4 SWAP5 SWAP4 SWAP3 SWAP2 SWAP1 PUSH2 0xEF7 JUMP JUMPDEST PUSH1 0x0 PUSH1 0x40 MLOAD DUP1 DUP4 SUB DUP2 PUSH1 0x0 DUP8 DUP1 EXTCODESIZE ISZERO DUP1 ISZERO PUSH2 0x5DE JUMPI PUSH1 0x0 DUP1 REVERT JUMPDEST POP GAS CALL ISZERO DUP1 ISZERO PUSH2 0x5F2 JUMPI RETURNDATASIZE PUSH1 0x0 DUP1 RETURNDATACOPY RETURNDATASIZE PUSH1 0x0 REVERT JUMPDEST POP POP POP POP DUP1 DUP1 PUSH2 0x601 SWAP1 PUSH2 0xE4F JUMP JUMPDEST SWAP2 POP POP PUSH2 0x4F6 JUMP JUMPDEST POP POP POP POP JUMP JUMPDEST DUP3 PUSH20 0xFFFFFFFFFFFFFFFFFFFFFFFFFFFFFFFFFFFFFFFF AND PUSH1 0x3 PUSH1 0x0 SWAP1 SLOAD SWAP1 PUSH2 0x100 EXP SWAP1 DIV PUSH20 0xFFFFFFFFFFFFFFFFFFFFFFFFFFFFFFFFFFFFFFFF AND PUSH20 0xFFFFFFFFFFFFFFFFFFFFFFFFFFFFFFFFFFFFFFFF AND EQ PUSH2 0x669 JUMPI PUSH1 0x0 DUP1 REVERT JUMPDEST PUSH1 0x1 PUSH1 0x2 DUP2 GT ISZERO PUSH2 0x67D JUMPI PUSH2 0x67C PUSH2 0xD99 JUMP JUMPDEST JUMPDEST PUSH1 0x4 PUSH1 0x14 SWAP1 SLOAD SWAP1 PUSH2 0x100 EXP SWAP1 DIV PUSH1 0xFF AND PUSH1 0x2 DUP2 GT ISZERO PUSH2 0x69F JUMPI PUSH2 0x69E PUSH2 0xD99 JUMP JUMPDEST JUMPDEST EQ PUSH2 0x6A9 JUMPI PUSH1 0x0 DUP1 REVERT JUMPDEST PUSH1 0x0 PUSH1 0x1 DUP2 GT ISZERO PUSH2 0x6BD JUMPI PUSH2 0x6BC PUSH2 0xD99 JUMP JUMPDEST JUMPDEST PUSH1 0x4 PUSH1 0x15 SWAP1 SLOAD SWAP1 PUSH2 0x100 EXP SWAP1 DIV PUSH1 0xFF AND PUSH1 0x1 DUP2 GT ISZERO PUSH2 0x6DF JUMPI PUSH2 0x6DE PUSH2 0xD99 JUMP JUMPDEST JUMPDEST EQ DUP1 ISZERO PUSH2 0x6EC JUMPI POP PUSH1 0x1 DUP3 EQ JUMPDEST ISZERO PUSH2 0x732 JUMPI DUP2 PUSH1 0x1 DUP2 GT ISZERO PUSH2 0x704 JUMPI PUSH2 0x703 PUSH2 0xD99 JUMP JUMPDEST JUMPDEST PUSH1 0x4 PUSH1 0x15 PUSH2 0x100 EXP DUP2 SLOAD DUP2 PUSH1 0xFF MUL NOT AND SWAP1 DUP4 PUSH1 0x1 DUP2 GT ISZERO PUSH2 0x728 JUMPI PUSH2 0x727 PUSH2 0xD99 JUMP JUMPDEST JUMPDEST MUL OR SWAP1 SSTORE POP PUSH2 0x898 JUMP JUMPDEST PUSH1 0x2 PUSH1 0x4 PUSH1 0x14 PUSH2 0x100 EXP DUP2 SLOAD DUP2 PUSH1 0xFF MUL NOT AND SWAP1 DUP4 PUSH1 0x2 DUP2 GT ISZERO PUSH2 0x758 JUMPI PUSH2 0x757 PUSH2 0xD99 JUMP JUMPDEST JUMPDEST MUL OR SWAP1 SSTORE POP PUSH1 0x0 JUMPDEST PUSH1 0x1 DUP1 SLOAD SWAP1 POP DUP2 LT ISZERO PUSH2 0x82D JUMPI PUSH1 0x1 DUP2 DUP2 SLOAD DUP2 LT PUSH2 0x781 JUMPI PUSH2 0x780 PUSH2 0xDC8 JUMP JUMPDEST JUMPDEST SWAP1 PUSH1 0x0 MSTORE PUSH1 0x20 PUSH1 0x0 KECCAK256 ADD PUSH1 0x0 SWAP1 SLOAD SWAP1 PUSH2 0x100 EXP SWAP1 DIV PUSH20 0xFFFFFFFFFFFFFFFFFFFFFFFFFFFFFFFFFFFFFFFF AND PUSH20 0xFFFFFFFFFFFFFFFFFFFFFFFFFFFFFFFFFFFFFFFF AND PUSH4 0xA0C741B0 DUP6 DUP5 DUP7 PUSH1 0x40 MLOAD DUP5 PUSH4 0xFFFFFFFF AND PUSH1 0xE0 SHL DUP2 MSTORE PUSH1 0x4 ADD PUSH2 0x7E8 SWAP4 SWAP3 SWAP2 SWAP1 PUSH2 0xF3C JUMP JUMPDEST PUSH1 0x0 PUSH1 0x40 MLOAD DUP1 DUP4 SUB DUP2 PUSH1 0x0 DUP8 DUP1 EXTCODESIZE ISZERO DUP1 ISZERO PUSH2 0x802 JUMPI PUSH1 0x0 DUP1 REVERT JUMPDEST POP GAS CALL ISZERO DUP1 ISZERO PUSH2 0x816 JUMPI RETURNDATASIZE PUSH1 0x0 DUP1 RETURNDATACOPY RETURNDATASIZE PUSH1 0x0 REVERT JUMPDEST POP POP POP POP DUP1 DUP1 PUSH2 0x825 SWAP1 PUSH2 0xE4F JUMP JUMPDEST SWAP2 POP POP PUSH2 0x760 JUMP JUMPDEST POP PUSH1 0x2 PUSH1 0x0 SWAP1 SLOAD SWAP1 PUSH2 0x100 EXP SWAP1 DIV PUSH20 0xFFFFFFFFFFFFFFFFFFFFFFFFFFFFFFFFFFFFFFFF AND PUSH20 0xFFFFFFFFFFFFFFFFFFFFFFFFFFFFFFFFFFFFFFFF AND PUSH2 0x8FC SELFBALANCE SWAP1 DUP2 ISZERO MUL SWAP1 PUSH1 0x40 MLOAD PUSH1 0x0 PUSH1 0x40 MLOAD DUP1 DUP4 SUB DUP2 DUP6 DUP9 DUP9 CALL SWAP4 POP POP POP POP ISZERO DUP1 ISZERO PUSH2 0x896 JUMPI RETURNDATASIZE PUSH1 0x0 DUP1 RETURNDATACOPY RETURNDATASIZE PUSH1 0x0 REVERT JUMPDEST POP JUMPDEST POP POP POP JUMP JUMPDEST DUP3 DUP1 SLOAD DUP3 DUP3 SSTORE SWAP1 PUSH1 0x0 MSTORE PUSH1 0x20 PUSH1 0x0 KECCAK256 SWAP1 DUP2 ADD SWAP3 DUP3 ISZERO PUSH2 0x916 JUMPI SWAP2 PUSH1 0x20 MUL DUP3 ADD JUMPDEST DUP3 DUP2 GT ISZERO PUSH2 0x915 JUMPI DUP3 MLOAD DUP3 PUSH1 0x0 PUSH2 0x100 EXP DUP2 SLOAD DUP2 PUSH20 0xFFFFFFFFFFFFFFFFFFFFFFFFFFFFFFFFFFFFFFFF MUL NOT AND SWAP1 DUP4 PUSH20 0xFFFFFFFFFFFFFFFFFFFFFFFFFFFFFFFFFFFFFFFF AND MUL OR SWAP1 SSTORE POP SWAP2 PUSH1 0x20 ADD SWAP2 SWAP1 PUSH1 0x1 ADD SWAP1 PUSH2 0x8BD JUMP JUMPDEST JUMPDEST POP SWAP1 POP PUSH2 0x923 SWAP2 SWAP1 PUSH2 0x927 JUMP JUMPDEST POP SWAP1 JUMP JUMPDEST JUMPDEST DUP1 DUP3 GT ISZERO PUSH2 0x940 JUMPI PUSH1 0x0 DUP2 PUSH1 0x0 SWAP1 SSTORE POP PUSH1 0x1 ADD PUSH2 0x928 JUMP JUMPDEST POP SWAP1 JUMP JUMPDEST PUSH1 0x0 PUSH1 0x40 MLOAD SWAP1 POP SWAP1 JUMP JUMPDEST PUSH1 0x0 DUP1 REVERT JUMPDEST PUSH1 0x0 DUP1 REVERT JUMPDEST PUSH1 0x0 PUSH20 0xFFFFFFFFFFFFFFFFFFFFFFFFFFFFFFFFFFFFFFFF DUP3 AND SWAP1 POP SWAP2 SWAP1 POP JUMP JUMPDEST PUSH1 0x0 PUSH2 0x983 DUP3 PUSH2 0x958 JUMP JUMPDEST SWAP1 POP SWAP2 SWAP1 POP JUMP JUMPDEST PUSH2 0x993 DUP2 PUSH2 0x978 JUMP JUMPDEST DUP2 EQ PUSH2 0x99E JUMPI PUSH1 0x0 DUP1 REVERT JUMPDEST POP JUMP JUMPDEST PUSH1 0x0 DUP2 CALLDATALOAD SWAP1 POP PUSH2 0x9B0 DUP2 PUSH2 0x98A JUMP JUMPDEST SWAP3 SWAP2 POP POP JUMP JUMPDEST PUSH1 0x0 DUP2 SWAP1 POP SWAP2 SWAP1 POP JUMP JUMPDEST PUSH2 0x9C9 DUP2 PUSH2 0x9B6 JUMP JUMPDEST DUP2 EQ PUSH2 0x9D4 JUMPI PUSH1 0x0 DUP1 REVERT JUMPDEST POP JUMP JUMPDEST PUSH1 0x0 DUP2 CALLDATALOAD SWAP1 POP PUSH2 0x9E6 DUP2 PUSH2 0x9C0 JUMP JUMPDEST SWAP3 SWAP2 POP POP JUMP JUMPDEST PUSH1 0x0 DUP1 PUSH1 0x40 DUP4 DUP6 SUB SLT ISZERO PUSH2 0xA03 JUMPI PUSH2 0xA02 PUSH2 0x94E JUMP JUMPDEST JUMPDEST PUSH1 0x0 PUSH2 0xA11 DUP6 DUP3 DUP7 ADD PUSH2 0x9A1 JUMP JUMPDEST SWAP3 POP POP PUSH1 0x20 PUSH2 0xA22 DUP6 DUP3 DUP7 ADD PUSH2 0x9D7 JUMP JUMPDEST SWAP2 POP POP SWAP3 POP SWAP3 SWAP1 POP JUMP JUMPDEST PUSH2 0xA35 DUP2 PUSH2 0x9B6 JUMP JUMPDEST DUP3 MSTORE POP POP JUMP JUMPDEST PUSH1 0x0 DUP2 MLOAD SWAP1 POP SWAP2 SWAP1 POP JUMP JUMPDEST PUSH1 0x0 DUP3 DUP3 MSTORE PUSH1 0x20 DUP3 ADD SWAP1 POP SWAP3 SWAP2 POP POP JUMP JUMPDEST PUSH1 0x0 DUP2 SWAP1 POP PUSH1 0x20 DUP3 ADD SWAP1 POP SWAP2 SWAP1 POP JUMP JUMPDEST PUSH2 0xA70 DUP2 PUSH2 0x978 JUMP JUMPDEST DUP3 MSTORE POP POP JUMP JUMPDEST PUSH1 0x0 PUSH2 0xA82 DUP4 DUP4 PUSH2 0xA67 JUMP JUMPDEST PUSH1 0x20 DUP4 ADD SWAP1 POP SWAP3 SWAP2 POP POP JUMP JUMPDEST PUSH1 0x0 PUSH1 0x20 DUP3 ADD SWAP1 POP SWAP2 SWAP1 POP JUMP JUMPDEST PUSH1 0x0 PUSH2 0xAA6 DUP3 PUSH2 0xA3B JUMP JUMPDEST PUSH2 0xAB0 DUP2 DUP6 PUSH2 0xA46 JUMP JUMPDEST SWAP4 POP PUSH2 0xABB DUP4 PUSH2 0xA57 JUMP JUMPDEST DUP1 PUSH1 0x0 JUMPDEST DUP4 DUP2 LT ISZERO PUSH2 0xAEC JUMPI DUP2 MLOAD PUSH2 0xAD3 DUP9 DUP3 PUSH2 0xA76 JUMP JUMPDEST SWAP8 POP PUSH2 0xADE DUP4 PUSH2 0xA8E JUMP JUMPDEST SWAP3 POP POP PUSH1 0x1 DUP2 ADD SWAP1 POP PUSH2 0xABF JUMP JUMPDEST POP DUP6 SWAP4 POP POP POP POP SWAP3 SWAP2 POP POP JUMP JUMPDEST PUSH2 0xB02 DUP2 PUSH2 0x978 JUMP JUMPDEST DUP3 MSTORE POP POP JUMP JUMPDEST PUSH1 0x0 PUSH1 0xE0 DUP3 ADD SWAP1 POP PUSH2 0xB1D PUSH1 0x0 DUP4 ADD DUP11 PUSH2 0xA2C JUMP JUMPDEST DUP2 DUP2 SUB PUSH1 0x20 DUP4 ADD MSTORE PUSH2 0xB2F DUP2 DUP10 PUSH2 0xA9B JUMP JUMPDEST SWAP1 POP PUSH2 0xB3E PUSH1 0x40 DUP4 ADD DUP9 PUSH2 0xAF9 JUMP JUMPDEST PUSH2 0xB4B PUSH1 0x60 DUP4 ADD DUP8 PUSH2 0xAF9 JUMP JUMPDEST PUSH2 0xB58 PUSH1 0x80 DUP4 ADD DUP7 PUSH2 0xAF9 JUMP JUMPDEST PUSH2 0xB65 PUSH1 0xA0 DUP4 ADD DUP6 PUSH2 0xA2C JUMP JUMPDEST PUSH2 0xB72 PUSH1 0xC0 DUP4 ADD DUP5 PUSH2 0xA2C JUMP JUMPDEST SWAP9 SWAP8 POP POP POP POP POP POP POP POP JUMP JUMPDEST PUSH1 0x0 DUP1 REVERT JUMPDEST PUSH1 0x0 PUSH1 0x1F NOT PUSH1 0x1F DUP4 ADD AND SWAP1 POP SWAP2 SWAP1 POP JUMP JUMPDEST PUSH32 0x4E487B7100000000000000000000000000000000000000000000000000000000 PUSH1 0x0 MSTORE PUSH1 0x41 PUSH1 0x4 MSTORE PUSH1 0x24 PUSH1 0x0 REVERT JUMPDEST PUSH2 0xBCC DUP3 PUSH2 0xB83 JUMP JUMPDEST DUP2 ADD DUP2 DUP2 LT PUSH8 0xFFFFFFFFFFFFFFFF DUP3 GT OR ISZERO PUSH2 0xBEB JUMPI PUSH2 0xBEA PUSH2 0xB94 JUMP JUMPDEST JUMPDEST DUP1 PUSH1 0x40 MSTORE POP POP POP JUMP JUMPDEST PUSH1 0x0 PUSH2 0xBFE PUSH2 0x944 JUMP JUMPDEST SWAP1 POP PUSH2 0xC0A DUP3 DUP3 PUSH2 0xBC3 JUMP JUMPDEST SWAP2 SWAP1 POP JUMP JUMPDEST PUSH1 0x0 PUSH8 0xFFFFFFFFFFFFFFFF DUP3 GT ISZERO PUSH2 0xC2A JUMPI PUSH2 0xC29 PUSH2 0xB94 JUMP JUMPDEST JUMPDEST PUSH1 0x20 DUP3 MUL SWAP1 POP PUSH1 0x20 DUP2 ADD SWAP1 POP SWAP2 SWAP1 POP JUMP JUMPDEST PUSH1 0x0 DUP1 REVERT JUMPDEST PUSH1 0x0 PUSH2 0xC53 PUSH2 0xC4E DUP5 PUSH2 0xC0F JUMP JUMPDEST PUSH2 0xBF4 JUMP JUMPDEST SWAP1 POP DUP1 DUP4 DUP3 MSTORE PUSH1 0x20 DUP3 ADD SWAP1 POP PUSH1 0x20 DUP5 MUL DUP4 ADD DUP6 DUP2 GT ISZERO PUSH2 0xC76 JUMPI PUSH2 0xC75 PUSH2 0xC3B JUMP JUMPDEST JUMPDEST DUP4 JUMPDEST DUP2 DUP2 LT ISZERO PUSH2 0xC9F JUMPI DUP1 PUSH2 0xC8B DUP9 DUP3 PUSH2 0x9A1 JUMP JUMPDEST DUP5 MSTORE PUSH1 0x20 DUP5 ADD SWAP4 POP POP PUSH1 0x20 DUP2 ADD SWAP1 POP PUSH2 0xC78 JUMP JUMPDEST POP POP POP SWAP4 SWAP3 POP POP POP JUMP JUMPDEST PUSH1 0x0 DUP3 PUSH1 0x1F DUP4 ADD SLT PUSH2 0xCBE JUMPI PUSH2 0xCBD PUSH2 0xB7E JUMP JUMPDEST JUMPDEST DUP2 CALLDATALOAD PUSH2 0xCCE DUP5 DUP3 PUSH1 0x20 DUP7 ADD PUSH2 0xC40 JUMP JUMPDEST SWAP2 POP POP SWAP3 SWAP2 POP POP JUMP JUMPDEST PUSH1 0x0 DUP1 PUSH1 0x0 PUSH1 0x60 DUP5 DUP7 SUB SLT ISZERO PUSH2 0xCF0 JUMPI PUSH2 0xCEF PUSH2 0x94E JUMP JUMPDEST JUMPDEST PUSH1 0x0 DUP5 ADD CALLDATALOAD PUSH8 0xFFFFFFFFFFFFFFFF DUP2 GT ISZERO PUSH2 0xD0E JUMPI PUSH2 0xD0D PUSH2 0x953 JUMP JUMPDEST JUMPDEST PUSH2 0xD1A DUP7 DUP3 DUP8 ADD PUSH2 0xCA9 JUMP JUMPDEST SWAP4 POP POP PUSH1 0x20 PUSH2 0xD2B DUP7 DUP3 DUP8 ADD PUSH2 0x9A1 JUMP JUMPDEST SWAP3 POP POP PUSH1 0x40 PUSH2 0xD3C DUP7 DUP3 DUP8 ADD PUSH2 0x9D7 JUMP JUMPDEST SWAP2 POP POP SWAP3 POP SWAP3 POP SWAP3 JUMP JUMPDEST PUSH1 0x0 DUP1 PUSH1 0x0 PUSH1 0x60 DUP5 DUP7 SUB SLT ISZERO PUSH2 0xD5F JUMPI PUSH2 0xD5E PUSH2 0x94E JUMP JUMPDEST JUMPDEST PUSH1 0x0 PUSH2 0xD6D DUP7 DUP3 DUP8 ADD PUSH2 0x9A1 JUMP JUMPDEST SWAP4 POP POP PUSH1 0x20 PUSH2 0xD7E DUP7 DUP3 DUP8 ADD PUSH2 0x9D7 JUMP JUMPDEST SWAP3 POP POP PUSH1 0x40 PUSH2 0xD8F DUP7 DUP3 DUP8 ADD PUSH2 0x9D7 JUMP JUMPDEST SWAP2 POP POP SWAP3 POP SWAP3 POP SWAP3 JUMP JUMPDEST PUSH32 0x4E487B7100000000000000000000000000000000000000000000000000000000 PUSH1 0x0 MSTORE PUSH1 0x21 PUSH1 0x4 MSTORE PUSH1 0x24 PUSH1 0x0 REVERT JUMPDEST PUSH32 0x4E487B7100000000000000000000000000000000000000000000000000000000 PUSH1 0x0 MSTORE PUSH1 0x32 PUSH1 0x4 MSTORE PUSH1 0x24 PUSH1 0x0 REVERT JUMPDEST PUSH1 0x0 PUSH1 0x40 DUP3 ADD SWAP1 POP PUSH2 0xE0C PUSH1 0x0 DUP4 ADD DUP6 PUSH2 0xAF9 JUMP JUMPDEST PUSH2 0xE19 PUSH1 0x20 DUP4 ADD DUP5 PUSH2 0xA2C JUMP JUMPDEST SWAP4 SWAP3 POP POP POP JUMP JUMPDEST PUSH32 0x4E487B7100000000000000000000000000000000000000000000000000000000 PUSH1 0x0 MSTORE PUSH1 0x11 PUSH1 0x4 MSTORE PUSH1 0x24 PUSH1 0x0 REVERT JUMPDEST PUSH1 0x0 PUSH2 0xE5A DUP3 PUSH2 0x9B6 JUMP JUMPDEST SWAP2 POP PUSH32 0xFFFFFFFFFFFFFFFFFFFFFFFFFFFFFFFFFFFFFFFFFFFFFFFFFFFFFFFFFFFFFFFF DUP3 EQ ISZERO PUSH2 0xE8D JUMPI PUSH2 0xE8C PUSH2 0xE20 JUMP JUMPDEST JUMPDEST PUSH1 0x1 DUP3 ADD SWAP1 POP SWAP2 SWAP1 POP JUMP JUMPDEST PUSH1 0x0 DUP2 SWAP1 POP SWAP2 SWAP1 POP JUMP JUMPDEST PUSH1 0x0 PUSH2 0xEBD PUSH2 0xEB8 PUSH2 0xEB3 DUP5 PUSH2 0x958 JUMP JUMPDEST PUSH2 0xE98 JUMP JUMPDEST PUSH2 0x958 JUMP JUMPDEST SWAP1 POP SWAP2 SWAP1 POP JUMP JUMPDEST PUSH1 0x0 PUSH2 0xECF DUP3 PUSH2 0xEA2 JUMP JUMPDEST SWAP1 POP SWAP2 SWAP1 POP JUMP JUMPDEST PUSH1 0x0 PUSH2 0xEE1 DUP3 PUSH2 0xEC4 JUMP JUMPDEST SWAP1 POP SWAP2 SWAP1 POP JUMP JUMPDEST PUSH2 0xEF1 DUP2 PUSH2 0xED6 JUMP JUMPDEST DUP3 MSTORE POP POP JUMP JUMPDEST PUSH1 0x0 PUSH1 0x80 DUP3 ADD SWAP1 POP PUSH2 0xF0C PUSH1 0x0 DUP4 ADD DUP8 PUSH2 0xEE8 JUMP JUMPDEST PUSH2 0xF19 PUSH1 0x20 DUP4 ADD DUP7 PUSH2 0xAF9 JUMP JUMPDEST PUSH2 0xF26 PUSH1 0x40 DUP4 ADD DUP6 PUSH2 0xAF9 JUMP JUMPDEST PUSH2 0xF33 PUSH1 0x60 DUP4 ADD DUP5 PUSH2 0xA2C JUMP JUMPDEST SWAP6 SWAP5 POP POP POP POP POP JUMP JUMPDEST PUSH1 0x0 PUSH1 0x60 DUP3 ADD SWAP1 POP PUSH2 0xF51 PUSH1 0x0 DUP4 ADD DUP7 PUSH2 0xAF9 JUMP JUMPDEST PUSH2 0xF5E PUSH1 0x20 DUP4 ADD DUP6 PUSH2 0xA2C JUMP JUMPDEST PUSH2 0xF6B PUSH1 0x40 DUP4 ADD DUP5 PUSH2 0xA2C JUMP JUMPDEST SWAP5 SWAP4 POP POP POP POP JUMP INVALID LOG2 PUSH5 0x6970667358 0x22 SLT KECCAK256 0xCF 0xC7 PUSH3 0x3E2712 0xC9 0xE4 CREATE PUSH10 0x2A8859A0F68393D73DCB GT 0xCE SWAP4 CODESIZE ISZERO NOT GASLIMIT SHL ADDRESS GT 0xB2 PUSH31 0x64736F6C634300080C00330000000000000000000000000000000000000000 "}}}