{
  "abi": [
    {
      "inputs": [],
      "stateMutability": "nonpayable",
      "type": "constructor"
    },
    {
      "inputs": [
        {
          "internalType": "uint256",
          "name": "receiverType",
          "type": "uint256"
        }
      ],
      "name": "getMedicines",
      "outputs": [
        {
          "internalType": "address[]",
          "name": "",
          "type": "address[]"
        }
      ],
      "stateMutability": "view",
      "type": "function"
    },
    {
      "inputs": [
        {
          "internalType": "address",
          "name": "_manufacturer",
          "type": "address"
        }
      ],
      "name": "getMedicinesMan",
      "outputs": [
        {
          "internalType": "address[]",
          "name": "",
          "type": "address[]"
        }
      ],
      "stateMutability": "view",
      "type": "function"
    },
    {
      "inputs": [
        {
          "internalType": "address",
          "name": "User",
          "type": "address"
        }
      ],
      "name": "getUserInfo",
      "outputs": [
        {
          "internalType": "string",
          "name": "name",
          "type": "string"
        },
        {
          "internalType": "string",
          "name": "location",
          "type": "string"
        },
        {
          "internalType": "address",
          "name": "ethAddress",
          "type": "address"
        },
        {
          "internalType": "enum SupplyChain.roles",
          "name": "role",
          "type": "uint8"
        }
      ],
      "stateMutability": "view",
      "type": "function"
    },
    {
      "inputs": [],
      "name": "getUsers",
      "outputs": [
        {
          "internalType": "address[]",
          "name": "",
          "type": "address[]"
        }
      ],
      "stateMutability": "view",
      "type": "function"
    },
    {
      "inputs": [
        {
          "internalType": "string",
          "name": "name",
          "type": "string"
        },
        {
          "internalType": "uint256",
          "name": "quantity",
          "type": "uint256"
        },
        {
          "internalType": "address",
          "name": "shipper",
          "type": "address"
        },
        {
          "internalType": "address",
          "name": "receiver",
          "type": "address"
        },
        {
          "internalType": "string",
          "name": "expiry",
          "type": "string"
        }
      ],
      "name": "manufactureMedicine",
      "outputs": [],
      "stateMutability": "nonpayable",
      "type": "function"
    },
    {
      "inputs": [],
      "name": "owner",
      "outputs": [
        {
          "internalType": "address",
          "name": "",
          "type": "address"
        }
      ],
      "stateMutability": "view",
      "type": "function"
    },
    {
      "inputs": [
        {
          "internalType": "address",
          "name": "batchId",
          "type": "address"
        },
        {
          "internalType": "uint256",
          "name": "receiverType",
          "type": "uint256"
        },
        {
          "internalType": "uint256",
          "name": "condition",
          "type": "uint256"
        }
      ],
      "name": "receiveMedicine",
      "outputs": [],
      "stateMutability": "nonpayable",
      "type": "function"
    },
    {
      "inputs": [
        {
          "internalType": "address",
          "name": "EthAddress",
          "type": "address"
        },
        {
          "internalType": "string",
          "name": "Name",
          "type": "string"
        },
        {
          "internalType": "string",
          "name": "Location",
          "type": "string"
        },
        {
          "internalType": "uint256",
          "name": "Role",
          "type": "uint256"
        }
      ],
      "name": "registerUser",
      "outputs": [],
      "stateMutability": "nonpayable",
      "type": "function"
    }
  ],
  "evm": {
    "bytecode": {
      "linkReferences": {},
      "object": "608060405234801561001057600080fd5b50336000806101000a81548173ffffffffffffffffffffffffffffffffffffffff021916908373ffffffffffffffffffffffffffffffffffffffff1602179055506128bf806100606000396000f3fe60806040523480156200001157600080fd5b5060043610620000935760003560e01c80638da5cb5b11620000635780638da5cb5b1462000133578063904d222c1462000155578063b57d63f5146200018b578063dab5026d14620001ab5762000093565b8062ce8e3e1462000098578063021bd87814620000ba5780635b995f7314620000da5780636386c1c714620000fa575b600080fd5b620000a2620001e1565b604051620000b1919062000e35565b60405180910390f35b620000d86004803603810190620000d291906200103b565b62000271565b005b620000f86004803603810190620000f2919062001101565b620003e1565b005b6200011860048036038101906200011291906200115d565b6200051d565b6040516200012a9493929190620012b3565b60405180910390f35b6200013d62000791565b6040516200014c91906200130e565b60405180910390f35b6200017360048036038101906200016d91906200115d565b620007b5565b60405162000182919062000e35565b60405180910390f35b620001a96004803603810190620001a391906200132b565b62000884565b005b620001c96004803603810190620001c39190620013db565b62000b82565b604051620001d8919062000e35565b60405180910390f35b606060028054806020026020016040519081016040528092919081815260200182805480156200026757602002820191906000526020600020905b8160009054906101000a900473ffffffffffffffffffffffffffffffffffffffff1673ffffffffffffffffffffffffffffffffffffffff16815260200190600101908083116200021c575b5050505050905090565b6001600581111562000288576200028762001233565b5b600160003373ffffffffffffffffffffffffffffffffffffffff1673ffffffffffffffffffffffffffffffffffffffff16815260200190815260200160002060020160149054906101000a900460ff166005811115620002ed57620002ec62001233565b5b14620002f857600080fd5b600360003373ffffffffffffffffffffffffffffffffffffffff1673ffffffffffffffffffffffffffffffffffffffff1681526020019081526020016000203386868686866040516200034b9062000c75565b6200035c969594939291906200141e565b604051809103906000f08015801562000379573d6000803e3d6000fd5b509080600181540180825580915050600190039060005260206000200160009091909190916101000a81548173ffffffffffffffffffffffffffffffffffffffff021916908373ffffffffffffffffffffffffffffffffffffffff1602179055505050505050565b8273ffffffffffffffffffffffffffffffffffffffff1663a0c741b03384846040518463ffffffff1660e01b8152600401620004209392919062001499565b600060405180830381600087803b1580156200043b57600080fd5b505af115801562000450573d6000803e3d6000fd5b50505050600460018362000465919062001505565b6003811062000479576200047862001540565b5b0160003373ffffffffffffffffffffffffffffffffffffffff1673ffffffffffffffffffffffffffffffffffffffff168152602001908152602001600020839080600181540180825580915050600190039060005260206000200160009091909190916101000a81548173ffffffffffffffffffffffffffffffffffffffff021916908373ffffffffffffffffffffffffffffffffffffffff160217905550505050565b606080600080600160008673ffffffffffffffffffffffffffffffffffffffff1673ffffffffffffffffffffffffffffffffffffffff168152602001908152602001600020600001600160008773ffffffffffffffffffffffffffffffffffffffff1673ffffffffffffffffffffffffffffffffffffffff168152602001908152602001600020600101600160008873ffffffffffffffffffffffffffffffffffffffff1673ffffffffffffffffffffffffffffffffffffffff16815260200190815260200160002060020160009054906101000a900473ffffffffffffffffffffffffffffffffffffffff16600160008973ffffffffffffffffffffffffffffffffffffffff1673ffffffffffffffffffffffffffffffffffffffff16815260200190815260200160002060020160149054906101000a900460ff1683805462000668906200159e565b80601f016020809104026020016040519081016040528092919081815260200182805462000696906200159e565b8015620006e75780601f10620006bb57610100808354040283529160200191620006e7565b820191906000526020600020905b815481529060010190602001808311620006c957829003601f168201915b50505050509350828054620006fc906200159e565b80601f01602080910402602001604051908101604052809291908181526020018280546200072a906200159e565b80156200077b5780601f106200074f576101008083540402835291602001916200077b565b820191906000526020600020905b8154815290600101906020018083116200075d57829003601f168201915b5050505050925093509350935093509193509193565b60008054906101000a900473ffffffffffffffffffffffffffffffffffffffff1681565b6060600360008373ffffffffffffffffffffffffffffffffffffffff1673ffffffffffffffffffffffffffffffffffffffff1681526020019081526020016000208054806020026020016040519081016040528092919081815260200182805480156200087857602002820191906000526020600020905b8160009054906101000a900473ffffffffffffffffffffffffffffffffffffffff1673ffffffffffffffffffffffffffffffffffffffff16815260200190600101908083116200082d575b50505050509050919050565b60008054906101000a900473ffffffffffffffffffffffffffffffffffffffff1673ffffffffffffffffffffffffffffffffffffffff163373ffffffffffffffffffffffffffffffffffffffff1614620008dd57600080fd5b60006005811115620008f457620008f362001233565b5b600160008673ffffffffffffffffffffffffffffffffffffffff1673ffffffffffffffffffffffffffffffffffffffff16815260200190815260200160002060020160149054906101000a900460ff16600581111562000959576200095862001233565b5b146200096457600080fd5b82600160008673ffffffffffffffffffffffffffffffffffffffff1673ffffffffffffffffffffffffffffffffffffffff1681526020019081526020016000206000019080519060200190620009bc92919062000c83565b5081600160008673ffffffffffffffffffffffffffffffffffffffff1673ffffffffffffffffffffffffffffffffffffffff168152602001908152602001600020600101908051906020019062000a1592919062000c83565b5083600160008673ffffffffffffffffffffffffffffffffffffffff1673ffffffffffffffffffffffffffffffffffffffff16815260200190815260200160002060020160006101000a81548173ffffffffffffffffffffffffffffffffffffffff021916908373ffffffffffffffffffffffffffffffffffffffff16021790555080600581111562000aad5762000aac62001233565b5b600160008673ffffffffffffffffffffffffffffffffffffffff1673ffffffffffffffffffffffffffffffffffffffff16815260200190815260200160002060020160146101000a81548160ff0219169083600581111562000b145762000b1362001233565b5b02179055506002849080600181540180825580915050600190039060005260206000200160009091909190916101000a81548173ffffffffffffffffffffffffffffffffffffffff021916908373ffffffffffffffffffffffffffffffffffffffff16021790555050505050565b6060600460018362000b95919062001505565b6003811062000ba95762000ba862001540565b5b0160003373ffffffffffffffffffffffffffffffffffffffff1673ffffffffffffffffffffffffffffffffffffffff16815260200190815260200160002080548060200260200160405190810160405280929190818152602001828054801562000c6957602002820191906000526020600020905b8160009054906101000a900473ffffffffffffffffffffffffffffffffffffffff1673ffffffffffffffffffffffffffffffffffffffff168152602001906001019080831162000c1e575b50505050509050919050565b6112b580620015d583390190565b82805462000c91906200159e565b90600052602060002090601f01602090048101928262000cb5576000855562000d01565b82601f1062000cd057805160ff191683800117855562000d01565b8280016001018555821562000d01579182015b8281111562000d0057825182559160200191906001019062000ce3565b5b50905062000d10919062000d14565b5090565b5b8082111562000d2f57600081600090555060010162000d15565b5090565b600081519050919050565b600082825260208201905092915050565b6000819050602082019050919050565b600073ffffffffffffffffffffffffffffffffffffffff82169050919050565b600062000d8c8262000d5f565b9050919050565b62000d9e8162000d7f565b82525050565b600062000db2838362000d93565b60208301905092915050565b6000602082019050919050565b600062000dd88262000d33565b62000de4818562000d3e565b935062000df18362000d4f565b8060005b8381101562000e2857815162000e0c888262000da4565b975062000e198362000dbe565b92505060018101905062000df5565b5085935050505092915050565b6000602082019050818103600083015262000e51818462000dcb565b905092915050565b6000604051905090565b600080fd5b600080fd5b600080fd5b600080fd5b6000601f19601f8301169050919050565b7f4e487b7100000000000000000000000000000000000000000000000000000000600052604160045260246000fd5b62000ec28262000e77565b810181811067ffffffffffffffff8211171562000ee45762000ee362000e88565b5b80604052505050565b600062000ef962000e59565b905062000f07828262000eb7565b919050565b600067ffffffffffffffff82111562000f2a5762000f2962000e88565b5b62000f358262000e77565b9050602081019050919050565b82818337600083830152505050565b600062000f6862000f628462000f0c565b62000eed565b90508281526020810184848401111562000f875762000f8662000e72565b5b62000f9484828562000f42565b509392505050565b600082601f83011262000fb45762000fb362000e6d565b5b813562000fc684826020860162000f51565b91505092915050565b6000819050919050565b62000fe48162000fcf565b811462000ff057600080fd5b50565b600081359050620010048162000fd9565b92915050565b620010158162000d7f565b81146200102157600080fd5b50565b60008135905062001035816200100a565b92915050565b600080600080600060a086880312156200105a576200105962000e63565b5b600086013567ffffffffffffffff8111156200107b576200107a62000e68565b5b620010898882890162000f9c565b95505060206200109c8882890162000ff3565b9450506040620010af8882890162001024565b9350506060620010c28882890162001024565b925050608086013567ffffffffffffffff811115620010e657620010e562000e68565b5b620010f48882890162000f9c565b9150509295509295909350565b6000806000606084860312156200111d576200111c62000e63565b5b60006200112d8682870162001024565b9350506020620011408682870162000ff3565b9250506040620011538682870162000ff3565b9150509250925092565b60006020828403121562001176576200117562000e63565b5b6000620011868482850162001024565b91505092915050565b600081519050919050565b600082825260208201905092915050565b60005b83811015620011cb578082015181840152602081019050620011ae565b83811115620011db576000848401525b50505050565b6000620011ee826200118f565b620011fa81856200119a565b93506200120c818560208601620011ab565b620012178162000e77565b840191505092915050565b6200122d8162000d7f565b82525050565b7f4e487b7100000000000000000000000000000000000000000000000000000000600052602160045260246000fd5b6006811062001276576200127562001233565b5b50565b6000819050620012898262001262565b919050565b60006200129b8262001279565b9050919050565b620012ad816200128e565b82525050565b60006080820190508181036000830152620012cf8187620011e1565b90508181036020830152620012e58186620011e1565b9050620012f6604083018562001222565b620013056060830184620012a2565b95945050505050565b600060208201905062001325600083018462001222565b92915050565b6000806000806080858703121562001348576200134762000e63565b5b6000620013588782880162001024565b945050602085013567ffffffffffffffff8111156200137c576200137b62000e68565b5b6200138a8782880162000f9c565b935050604085013567ffffffffffffffff811115620013ae57620013ad62000e68565b5b620013bc8782880162000f9c565b9250506060620013cf8782880162000ff3565b91505092959194509250565b600060208284031215620013f457620013f362000e63565b5b6000620014048482850162000ff3565b91505092915050565b620014188162000fcf565b82525050565b600060c08201905062001435600083018962001222565b8181036020830152620014498188620011e1565b90506200145a60408301876200140d565b62001469606083018662001222565b62001478608083018562001222565b81810360a08301526200148c8184620011e1565b9050979650505050505050565b6000606082019050620014b0600083018662001222565b620014bf60208301856200140d565b620014ce60408301846200140d565b949350505050565b7f4e487b7100000000000000000000000000000000000000000000000000000000600052601160045260246000fd5b6000620015128262000fcf565b91506200151f8362000fcf565b925082821015620015355762001534620014d6565b5b828203905092915050565b7f4e487b7100000000000000000000000000000000000000000000000000000000600052603260045260246000fd5b7f4e487b7100000000000000000000000000000000000000000000000000000000600052602260045260246000fd5b60006002820490506001821680620015b757607f821691505b60208210811415620015ce57620015cd6200156f565b5b5091905056fe60806040523480156200001157600080fd5b50604051620012b5380380620012b5833981810160405281019062000037919062000521565b85600260006004811062000050576200004f620005fb565b5b0160006101000a81548173ffffffffffffffffffffffffffffffffffffffff021916908373ffffffffffffffffffffffffffffffffffffffff16021790555085600760006101000a81548173ffffffffffffffffffffffffffffffffffffffff021916908373ffffffffffffffffffffffffffffffffffffffff1602179055508460009080519060200190620000e892919062000234565b508360018190555082600660006101000a81548173ffffffffffffffffffffffffffffffffffffffff021916908373ffffffffffffffffffffffffffffffffffffffff1602179055508160026001600481106200014a5762000149620005fb565b5b0160006101000a81548173ffffffffffffffffffffffffffffffffffffffff021916908373ffffffffffffffffffffffffffffffffffffffff1602179055508060089080519060200190620001a192919062000234565b5060006007811115620001b957620001b86200062a565b5b600660146101000a81548160ff02191690836007811115620001e057620001df6200062a565b5b021790555060006001811115620001fc57620001fb6200062a565b5b600660156101000a81548160ff021916908360018111156200022357620002226200062a565b5b0217905550505050505050620006be565b828054620002429062000688565b90600052602060002090601f016020900481019282620002665760008555620002b2565b82601f106200028157805160ff1916838001178555620002b2565b82800160010185558215620002b2579182015b82811115620002b157825182559160200191906001019062000294565b5b509050620002c19190620002c5565b5090565b5b80821115620002e0576000816000905550600101620002c6565b5090565b6000604051905090565b600080fd5b600080fd5b600073ffffffffffffffffffffffffffffffffffffffff82169050919050565b60006200032582620002f8565b9050919050565b620003378162000318565b81146200034357600080fd5b50565b60008151905062000357816200032c565b92915050565b600080fd5b600080fd5b6000601f19601f8301169050919050565b7f4e487b7100000000000000000000000000000000000000000000000000000000600052604160045260246000fd5b620003b28262000367565b810181811067ffffffffffffffff82111715620003d457620003d362000378565b5b80604052505050565b6000620003e9620002e4565b9050620003f78282620003a7565b919050565b600067ffffffffffffffff8211156200041a576200041962000378565b5b620004258262000367565b9050602081019050919050565b60005b838110156200045257808201518184015260208101905062000435565b8381111562000462576000848401525b50505050565b60006200047f6200047984620003fc565b620003dd565b9050828152602081018484840111156200049e576200049d62000362565b5b620004ab84828562000432565b509392505050565b600082601f830112620004cb57620004ca6200035d565b5b8151620004dd84826020860162000468565b91505092915050565b6000819050919050565b620004fb81620004e6565b81146200050757600080fd5b50565b6000815190506200051b81620004f0565b92915050565b60008060008060008060c08789031215620005415762000540620002ee565b5b60006200055189828a0162000346565b965050602087015167ffffffffffffffff811115620005755762000574620002f3565b5b6200058389828a01620004b3565b95505060406200059689828a016200050a565b9450506060620005a989828a0162000346565b9350506080620005bc89828a0162000346565b92505060a087015167ffffffffffffffff811115620005e057620005df620002f3565b5b620005ee89828a01620004b3565b9150509295509295509295565b7f4e487b7100000000000000000000000000000000000000000000000000000000600052603260045260246000fd5b7f4e487b7100000000000000000000000000000000000000000000000000000000600052602160045260246000fd5b7f4e487b7100000000000000000000000000000000000000000000000000000000600052602260045260246000fd5b60006002820490506001821680620006a157607f821691505b60208210811415620006b857620006b762000659565b5b50919050565b610be780620006ce6000396000f3fe608060405234801561001057600080fd5b506004361061004c5760003560e01c80632040a8de146100515780635a9b0b891461006d578063a0c741b01461008f578063d074892d146100ab575b600080fd5b61006b60048036038101906100669190610791565b6100c7565b005b6100756101be565b604051610086959493929190610924565b60405180910390f35b6100a960048036038101906100a4919061097f565b61032a565b005b6100c560048036038101906100c091906109d2565b6105bd565b005b8173ffffffffffffffffffffffffffffffffffffffff16600660009054906101000a900473ffffffffffffffffffffffffffffffffffffffff1673ffffffffffffffffffffffffffffffffffffffff161461012157600080fd5b80600781111561013457610133610a39565b5b600781111561014657610145610a39565b5b600660149054906101000a900460ff16600781111561016857610167610a39565b5b1461017257600080fd5b60058161017f9190610a97565b600781111561019157610190610a39565b5b600660146101000a81548160ff021916908360078111156101b5576101b4610a39565b5b02179055505050565b606060008060006101cd6106d6565b6000600154600660159054906101000a900460ff1660018111156101f4576101f3610a39565b5b600660149054906101000a900460ff16600781111561021657610215610a39565b5b600284805461022490610b1c565b80601f016020809104026020016040519081016040528092919081815260200182805461025090610b1c565b801561029d5780601f106102725761010080835404028352916020019161029d565b820191906000526020600020905b81548152906001019060200180831161028057829003601f168201915b5050505050945080600480602002604051908101604052809291908260048015610312576020028201915b8160009054906101000a900473ffffffffffffffffffffffffffffffffffffffff1673ffffffffffffffffffffffffffffffffffffffff16815260200190600101908083116102c8575b50505050509050945094509450945094509091929394565b8273ffffffffffffffffffffffffffffffffffffffff166002836004811061035557610354610b4e565b5b0160009054906101000a900473ffffffffffffffffffffffffffffffffffffffff1673ffffffffffffffffffffffffffffffffffffffff161461039757600080fd5b6004826103a49190610a97565b60078111156103b6576103b5610a39565b5b60078111156103c8576103c7610a39565b5b600660149054906101000a900460ff1660078111156103ea576103e9610a39565b5b146103f457600080fd5b6000600181111561040857610407610a39565b5b600181111561041a57610419610a39565b5b600660159054906101000a900460ff16600181111561043c5761043b610a39565b5b1480156104495750600181145b156104f8576001600660149054906101000a900460ff16600781111561047257610471610a39565b5b61047c9190610b7d565b600781111561048e5761048d610a39565b5b600660146101000a81548160ff021916908360078111156104b2576104b1610a39565b5b02179055506001808111156104ca576104c9610a39565b5b600660156101000a81548160ff021916908360018111156104ee576104ed610a39565b5b02179055506105b8565b81600781111561050b5761050a610a39565b5b600660146101000a81548160ff0219169083600781111561052f5761052e610a39565b5b021790555082600760006101000a81548173ffffffffffffffffffffffffffffffffffffffff021916908373ffffffffffffffffffffffffffffffffffffffff1602179055506000600660006101000a81548173ffffffffffffffffffffffffffffffffffffffff021916908373ffffffffffffffffffffffffffffffffffffffff1602179055505b505050565b8373ffffffffffffffffffffffffffffffffffffffff16600760009054906101000a900473ffffffffffffffffffffffffffffffffffffffff1673ffffffffffffffffffffffffffffffffffffffff161461061757600080fd5b60018114806106265750600281145b61062f57600080fd5b82600660006101000a81548173ffffffffffffffffffffffffffffffffffffffff021916908373ffffffffffffffffffffffffffffffffffffffff1602179055508160026001836106809190610a97565b6004811061069157610690610b4e565b5b0160006101000a81548173ffffffffffffffffffffffffffffffffffffffff021916908373ffffffffffffffffffffffffffffffffffffffff16021790555050505050565b6040518060800160405280600490602082028036833780820191505090505090565b600080fd5b600073ffffffffffffffffffffffffffffffffffffffff82169050919050565b6000610728826106fd565b9050919050565b6107388161071d565b811461074357600080fd5b50565b6000813590506107558161072f565b92915050565b6000819050919050565b61076e8161075b565b811461077957600080fd5b50565b60008135905061078b81610765565b92915050565b600080604083850312156107a8576107a76106f8565b5b60006107b685828601610746565b92505060206107c78582860161077c565b9150509250929050565b600081519050919050565b600082825260208201905092915050565b60005b8381101561080b5780820151818401526020810190506107f0565b8381111561081a576000848401525b50505050565b6000601f19601f8301169050919050565b600061083c826107d1565b61084681856107dc565b93506108568185602086016107ed565b61085f81610820565b840191505092915050565b6108738161075b565b82525050565b600060049050919050565b600081905092915050565b6000819050919050565b6108a28161071d565b82525050565b60006108b48383610899565b60208301905092915050565b6000602082019050919050565b6108d681610879565b6108e08184610884565b92506108eb8261088f565b8060005b8381101561091c57815161090387826108a8565b965061090e836108c0565b9250506001810190506108ef565b505050505050565b600061010082019050818103600083015261093f8188610831565b905061094e602083018761086a565b61095b604083018661086a565b610968606083018561086a565b61097560808301846108cd565b9695505050505050565b600080600060608486031215610998576109976106f8565b5b60006109a686828701610746565b93505060206109b78682870161077c565b92505060406109c88682870161077c565b9150509250925092565b600080600080608085870312156109ec576109eb6106f8565b5b60006109fa87828801610746565b9450506020610a0b87828801610746565b9350506040610a1c87828801610746565b9250506060610a2d8782880161077c565b91505092959194509250565b7f4e487b7100000000000000000000000000000000000000000000000000000000600052602160045260246000fd5b7f4e487b7100000000000000000000000000000000000000000000000000000000600052601160045260246000fd5b6000610aa28261075b565b9150610aad8361075b565b9250827fffffffffffffffffffffffffffffffffffffffffffffffffffffffffffffffff03821115610ae257610ae1610a68565b5b828201905092915050565b7f4e487b7100000000000000000000000000000000000000000000000000000000600052602260045260246000fd5b60006002820490506001821680610b3457607f821691505b60208210811415610b4857610b47610aed565b5b50919050565b7f4e487b7100000000000000000000000000000000000000000000000000000000600052603260045260246000fd5b6000610b888261075b565b9150610b938361075b565b925082821015610ba657610ba5610a68565b5b82820390509291505056fea2646970667358221220f956cf3066fd91e1147358fd5cdf46a7bbd06ad151c33c171ef00aeff112780764736f6c634300080a0033a2646970667358221220de2283068085872a9cb67845118b3932bc6b050bfb8eca02783a162e7810cc6864736f6c634300080a0033",
      "opcodes": "PUSH1 0x80 PUSH1 0x40 MSTORE CALLVALUE DUP1 ISZERO PUSH2 0x10 JUMPI PUSH1 0x0 DUP1 REVERT JUMPDEST POP CALLER PUSH1 0x0 DUP1 PUSH2 0x100 EXP DUP2 SLOAD DUP2 PUSH20 0xFFFFFFFFFFFFFFFFFFFFFFFFFFFFFFFFFFFFFFFF MUL NOT AND SWAP1 DUP4 PUSH20 0xFFFFFFFFFFFFFFFFFFFFFFFFFFFFFFFFFFFFFFFF AND MUL OR SWAP1 SSTORE POP PUSH2 0x28BF DUP1 PUSH2 0x60 PUSH1 0x0 CODECOPY PUSH1 0x0 RETURN INVALID PUSH1 0x80 PUSH1 0x40 MSTORE CALLVALUE DUP1 ISZERO PUSH3 0x11 JUMPI PUSH1 0x0 DUP1 REVERT JUMPDEST POP PUSH1 0x4 CALLDATASIZE LT PUSH3 0x93 JUMPI PUSH1 0x0 CALLDATALOAD PUSH1 0xE0 SHR DUP1 PUSH4 0x8DA5CB5B GT PUSH3 0x63 JUMPI DUP1 PUSH4 0x8DA5CB5B EQ PUSH3 0x133 JUMPI DUP1 PUSH4 0x904D222C EQ PUSH3 0x155 JUMPI DUP1 PUSH4 0xB57D63F5 EQ PUSH3 0x18B JUMPI DUP1 PUSH4 0xDAB5026D EQ PUSH3 0x1AB JUMPI PUSH3 0x93 JUMP JUMPDEST DUP1 PUSH3 0xCE8E3E EQ PUSH3 0x98 JUMPI DUP1 PUSH4 0x21BD878 EQ PUSH3 0xBA JUMPI DUP1 PUSH4 0x5B995F73 EQ PUSH3 0xDA JUMPI DUP1 PUSH4 0x6386C1C7 EQ PUSH3 0xFA JUMPI JUMPDEST PUSH1 0x0 DUP1 REVERT JUMPDEST PUSH3 0xA2 PUSH3 0x1E1 JUMP JUMPDEST PUSH1 0x40 MLOAD PUSH3 0xB1 SWAP2 SWAP1 PUSH3 0xE35 JUMP JUMPDEST PUSH1 0x40 MLOAD DUP1 SWAP2 SUB SWAP1 RETURN JUMPDEST PUSH3 0xD8 PUSH1 0x4 DUP1 CALLDATASIZE SUB DUP2 ADD SWAP1 PUSH3 0xD2 SWAP2 SWAP1 PUSH3 0x103B JUMP JUMPDEST PUSH3 0x271 JUMP JUMPDEST STOP JUMPDEST PUSH3 0xF8 PUSH1 0x4 DUP1 CALLDATASIZE SUB DUP2 ADD SWAP1 PUSH3 0xF2 SWAP2 SWAP1 PUSH3 0x1101 JUMP JUMPDEST PUSH3 0x3E1 JUMP JUMPDEST STOP JUMPDEST PUSH3 0x118 PUSH1 0x4 DUP1 CALLDATASIZE SUB DUP2 ADD SWAP1 PUSH3 0x112 SWAP2 SWAP1 PUSH3 0x115D JUMP JUMPDEST PUSH3 0x51D JUMP JUMPDEST PUSH1 0x40 MLOAD PUSH3 0x12A SWAP5 SWAP4 SWAP3 SWAP2 SWAP1 PUSH3 0x12B3 JUMP JUMPDEST PUSH1 0x40 MLOAD DUP1 SWAP2 SUB SWAP1 RETURN JUMPDEST PUSH3 0x13D PUSH3 0x791 JUMP JUMPDEST PUSH1 0x40 MLOAD PUSH3 0x14C SWAP2 SWAP1 PUSH3 0x130E JUMP JUMPDEST PUSH1 0x40 MLOAD DUP1 SWAP2 SUB SWAP1 RETURN JUMPDEST PUSH3 0x173 PUSH1 0x4 DUP1 CALLDATASIZE SUB DUP2 ADD SWAP1 PUSH3 0x16D SWAP2 SWAP1 PUSH3 0x115D JUMP JUMPDEST PUSH3 0x7B5 JUMP JUMPDEST PUSH1 0x40 MLOAD PUSH3 0x182 SWAP2 SWAP1 PUSH3 0xE35 JUMP JUMPDEST PUSH1 0x40 MLOAD DUP1 SWAP2 SUB SWAP1 RETURN JUMPDEST PUSH3 0x1A9 PUSH1 0x4 DUP1 CALLDATASIZE SUB DUP2 ADD SWAP1 PUSH3 0x1A3 SWAP2 SWAP1 PUSH3 0x132B JUMP JUMPDEST PUSH3 0x884 JUMP JUMPDEST STOP JUMPDEST PUSH3 0x1C9 PUSH1 0x4 DUP1 CALLDATASIZE SUB DUP2 ADD SWAP1 PUSH3 0x1C3 SWAP2 SWAP1 PUSH3 0x13DB JUMP JUMPDEST PUSH3 0xB82 JUMP JUMPDEST PUSH1 0x40 MLOAD PUSH3 0x1D8 SWAP2 SWAP1 PUSH3 0xE35 JUMP JUMPDEST PUSH1 0x40 MLOAD DUP1 SWAP2 SUB SWAP1 RETURN JUMPDEST PUSH1 0x60 PUSH1 0x2 DUP1 SLOAD DUP1 PUSH1 0x20 MUL PUSH1 0x20 ADD PUSH1 0x40 MLOAD SWAP1 DUP2 ADD PUSH1 0x40 MSTORE DUP1 SWAP3 SWAP2 SWAP1 DUP2 DUP2 MSTORE PUSH1 0x20 ADD DUP3 DUP1 SLOAD DUP1 ISZERO PUSH3 0x267 JUMPI PUSH1 0x20 MUL DUP3 ADD SWAP2 SWAP1 PUSH1 0x0 MSTORE PUSH1 0x20 PUSH1 0x0 KECCAK256 SWAP1 JUMPDEST DUP2 PUSH1 0x0 SWAP1 SLOAD SWAP1 PUSH2 0x100 EXP SWAP1 DIV PUSH20 0xFFFFFFFFFFFFFFFFFFFFFFFFFFFFFFFFFFFFFFFF AND PUSH20 0xFFFFFFFFFFFFFFFFFFFFFFFFFFFFFFFFFFFFFFFF AND DUP2 MSTORE PUSH1 0x20 ADD SWAP1 PUSH1 0x1 ADD SWAP1 DUP1 DUP4 GT PUSH3 0x21C JUMPI JUMPDEST POP POP POP POP POP SWAP1 POP SWAP1 JUMP JUMPDEST PUSH1 0x1 PUSH1 0x5 DUP2 GT ISZERO PUSH3 0x288 JUMPI PUSH3 0x287 PUSH3 0x1233 JUMP JUMPDEST JUMPDEST PUSH1 0x1 PUSH1 0x0 CALLER PUSH20 0xFFFFFFFFFFFFFFFFFFFFFFFFFFFFFFFFFFFFFFFF AND PUSH20 0xFFFFFFFFFFFFFFFFFFFFFFFFFFFFFFFFFFFFFFFF AND DUP2 MSTORE PUSH1 0x20 ADD SWAP1 DUP2 MSTORE PUSH1 0x20 ADD PUSH1 0x0 KECCAK256 PUSH1 0x2 ADD PUSH1 0x14 SWAP1 SLOAD SWAP1 PUSH2 0x100 EXP SWAP1 DIV PUSH1 0xFF AND PUSH1 0x5 DUP2 GT ISZERO PUSH3 0x2ED JUMPI PUSH3 0x2EC PUSH3 0x1233 JUMP JUMPDEST JUMPDEST EQ PUSH3 0x2F8 JUMPI PUSH1 0x0 DUP1 REVERT JUMPDEST PUSH1 0x3 PUSH1 0x0 CALLER PUSH20 0xFFFFFFFFFFFFFFFFFFFFFFFFFFFFFFFFFFFFFFFF AND PUSH20 0xFFFFFFFFFFFFFFFFFFFFFFFFFFFFFFFFFFFFFFFF AND DUP2 MSTORE PUSH1 0x20 ADD SWAP1 DUP2 MSTORE PUSH1 0x20 ADD PUSH1 0x0 KECCAK256 CALLER DUP7 DUP7 DUP7 DUP7 DUP7 PUSH1 0x40 MLOAD PUSH3 0x34B SWAP1 PUSH3 0xC75 JUMP JUMPDEST PUSH3 0x35C SWAP7 SWAP6 SWAP5 SWAP4 SWAP3 SWAP2 SWAP1 PUSH3 0x141E JUMP JUMPDEST PUSH1 0x40 MLOAD DUP1 SWAP2 SUB SWAP1 PUSH1 0x0 CREATE DUP1 ISZERO DUP1 ISZERO PUSH3 0x379 JUMPI RETURNDATASIZE PUSH1 0x0 DUP1 RETURNDATACOPY RETURNDATASIZE PUSH1 0x0 REVERT JUMPDEST POP SWAP1 DUP1 PUSH1 0x1 DUP2 SLOAD ADD DUP1 DUP3 SSTORE DUP1 SWAP2 POP POP PUSH1 0x1 SWAP1 SUB SWAP1 PUSH1 0x0 MSTORE PUSH1 0x20 PUSH1 0x0 KECCAK256 ADD PUSH1 0x0 SWAP1 SWAP2 SWAP1 SWAP2 SWAP1 SWAP2 PUSH2 0x100 EXP DUP2 SLOAD DUP2 PUSH20 0xFFFFFFFFFFFFFFFFFFFFFFFFFFFFFFFFFFFFFFFF MUL NOT AND SWAP1 DUP4 PUSH20 0xFFFFFFFFFFFFFFFFFFFFFFFFFFFFFFFFFFFFFFFF AND MUL OR SWAP1 SSTORE POP POP POP POP POP POP JUMP JUMPDEST DUP3 PUSH20 0xFFFFFFFFFFFFFFFFFFFFFFFFFFFFFFFFFFFFFFFF AND PUSH4 0xA0C741B0 CALLER DUP5 DUP5 PUSH1 0x40 MLOAD DUP5 PUSH4 0xFFFFFFFF AND PUSH1 0xE0 SHL DUP2 MSTORE PUSH1 0x4 ADD PUSH3 0x420 SWAP4 SWAP3 SWAP2 SWAP1 PUSH3 0x1499 JUMP JUMPDEST PUSH1 0x0 PUSH1 0x40 MLOAD DUP1 DUP4 SUB DUP2 PUSH1 0x0 DUP8 DUP1 EXTCODESIZE ISZERO DUP1 ISZERO PUSH3 0x43B JUMPI PUSH1 0x0 DUP1 REVERT JUMPDEST POP GAS CALL ISZERO DUP1 ISZERO PUSH3 0x450 JUMPI RETURNDATASIZE PUSH1 0x0 DUP1 RETURNDATACOPY RETURNDATASIZE PUSH1 0x0 REVERT JUMPDEST POP POP POP POP PUSH1 0x4 PUSH1 0x1 DUP4 PUSH3 0x465 SWAP2 SWAP1 PUSH3 0x1505 JUMP JUMPDEST PUSH1 0x3 DUP2 LT PUSH3 0x479 JUMPI PUSH3 0x478 PUSH3 0x1540 JUMP JUMPDEST JUMPDEST ADD PUSH1 0x0 CALLER PUSH20 0xFFFFFFFFFFFFFFFFFFFFFFFFFFFFFFFFFFFFFFFF AND PUSH20 0xFFFFFFFFFFFFFFFFFFFFFFFFFFFFFFFFFFFFFFFF AND DUP2 MSTORE PUSH1 0x20 ADD SWAP1 DUP2 MSTORE PUSH1 0x20 ADD PUSH1 0x0 KECCAK256 DUP4 SWAP1 DUP1 PUSH1 0x1 DUP2 SLOAD ADD DUP1 DUP3 SSTORE DUP1 SWAP2 POP POP PUSH1 0x1 SWAP1 SUB SWAP1 PUSH1 0x0 MSTORE PUSH1 0x20 PUSH1 0x0 KECCAK256 ADD PUSH1 0x0 SWAP1 SWAP2 SWAP1 SWAP2 SWAP1 SWAP2 PUSH2 0x100 EXP DUP2 SLOAD DUP2 PUSH20 0xFFFFFFFFFFFFFFFFFFFFFFFFFFFFFFFFFFFFFFFF MUL NOT AND SWAP1 DUP4 PUSH20 0xFFFFFFFFFFFFFFFFFFFFFFFFFFFFFFFFFFFFFFFF AND MUL OR SWAP1 SSTORE POP POP POP POP JUMP JUMPDEST PUSH1 0x60 DUP1 PUSH1 0x0 DUP1 PUSH1 0x1 PUSH1 0x0 DUP7 PUSH20 0xFFFFFFFFFFFFFFFFFFFFFFFFFFFFFFFFFFFFFFFF AND PUSH20 0xFFFFFFFFFFFFFFFFFFFFFFFFFFFFFFFFFFFFFFFF AND DUP2 MSTORE PUSH1 0x20 ADD SWAP1 DUP2 MSTORE PUSH1 0x20 ADD PUSH1 0x0 KECCAK256 PUSH1 0x0 ADD PUSH1 0x1 PUSH1 0x0 DUP8 PUSH20 0xFFFFFFFFFFFFFFFFFFFFFFFFFFFFFFFFFFFFFFFF AND PUSH20 0xFFFFFFFFFFFFFFFFFFFFFFFFFFFFFFFFFFFFFFFF AND DUP2 MSTORE PUSH1 0x20 ADD SWAP1 DUP2 MSTORE PUSH1 0x20 ADD PUSH1 0x0 KECCAK256 PUSH1 0x1 ADD PUSH1 0x1 PUSH1 0x0 DUP9 PUSH20 0xFFFFFFFFFFFFFFFFFFFFFFFFFFFFFFFFFFFFFFFF AND PUSH20 0xFFFFFFFFFFFFFFFFFFFFFFFFFFFFFFFFFFFFFFFF AND DUP2 MSTORE PUSH1 0x20 ADD SWAP1 DUP2 MSTORE PUSH1 0x20 ADD PUSH1 0x0 KECCAK256 PUSH1 0x2 ADD PUSH1 0x0 SWAP1 SLOAD SWAP1 PUSH2 0x100 EXP SWAP1 DIV PUSH20 0xFFFFFFFFFFFFFFFFFFFFFFFFFFFFFFFFFFFFFFFF AND PUSH1 0x1 PUSH1 0x0 DUP10 PUSH20 0xFFFFFFFFFFFFFFFFFFFFFFFFFFFFFFFFFFFFFFFF AND PUSH20 0xFFFFFFFFFFFFFFFFFFFFFFFFFFFFFFFFFFFFFFFF AND DUP2 MSTORE PUSH1 0x20 ADD SWAP1 DUP2 MSTORE PUSH1 0x20 ADD PUSH1 0x0 KECCAK256 PUSH1 0x2 ADD PUSH1 0x14 SWAP1 SLOAD SWAP1 PUSH2 0x100 EXP SWAP1 DIV PUSH1 0xFF AND DUP4 DUP1 SLOAD PUSH3 0x668 SWAP1 PUSH3 0x159E JUMP JUMPDEST DUP1 PUSH1 0x1F ADD PUSH1 0x20 DUP1 SWAP2 DIV MUL PUSH1 0x20 ADD PUSH1 0x40 MLOAD SWAP1 DUP2 ADD PUSH1 0x40 MSTORE DUP1 SWAP3 SWAP2 SWAP1 DUP2 DUP2 MSTORE PUSH1 0x20 ADD DUP3 DUP1 SLOAD PUSH3 0x696 SWAP1 PUSH3 0x159E JUMP JUMPDEST DUP1 ISZERO PUSH3 0x6E7 JUMPI DUP1 PUSH1 0x1F LT PUSH3 0x6BB JUMPI PUSH2 0x100 DUP1 DUP4 SLOAD DIV MUL DUP4 MSTORE SWAP2 PUSH1 0x20 ADD SWAP2 PUSH3 0x6E7 JUMP JUMPDEST DUP3 ADD SWAP2 SWAP1 PUSH1 0x0 MSTORE PUSH1 0x20 PUSH1 0x0 KECCAK256 SWAP1 JUMPDEST DUP2 SLOAD DUP2 MSTORE SWAP1 PUSH1 0x1 ADD SWAP1 PUSH1 0x20 ADD DUP1 DUP4 GT PUSH3 0x6C9 JUMPI DUP3 SWAP1 SUB PUSH1 0x1F AND DUP3 ADD SWAP2 JUMPDEST POP POP POP POP POP SWAP4 POP DUP3 DUP1 SLOAD PUSH3 0x6FC SWAP1 PUSH3 0x159E JUMP JUMPDEST DUP1 PUSH1 0x1F ADD PUSH1 0x20 DUP1 SWAP2 DIV MUL PUSH1 0x20 ADD PUSH1 0x40 MLOAD SWAP1 DUP2 ADD PUSH1 0x40 MSTORE DUP1 SWAP3 SWAP2 SWAP1 DUP2 DUP2 MSTORE PUSH1 0x20 ADD DUP3 DUP1 SLOAD PUSH3 0x72A SWAP1 PUSH3 0x159E JUMP JUMPDEST DUP1 ISZERO PUSH3 0x77B JUMPI DUP1 PUSH1 0x1F LT PUSH3 0x74F JUMPI PUSH2 0x100 DUP1 DUP4 SLOAD DIV MUL DUP4 MSTORE SWAP2 PUSH1 0x20 ADD SWAP2 PUSH3 0x77B JUMP JUMPDEST DUP3 ADD SWAP2 SWAP1 PUSH1 0x0 MSTORE PUSH1 0x20 PUSH1 0x0 KECCAK256 SWAP1 JUMPDEST DUP2 SLOAD DUP2 MSTORE SWAP1 PUSH1 0x1 ADD SWAP1 PUSH1 0x20 ADD DUP1 DUP4 GT PUSH3 0x75D JUMPI DUP3 SWAP1 SUB PUSH1 0x1F AND DUP3 ADD SWAP2 JUMPDEST POP POP POP POP POP SWAP3 POP SWAP4 POP SWAP4 POP SWAP4 POP SWAP4 POP SWAP2 SWAP4 POP SWAP2 SWAP4 JUMP JUMPDEST PUSH1 0x0 DUP1 SLOAD SWAP1 PUSH2 0x100 EXP SWAP1 DIV PUSH20 0xFFFFFFFFFFFFFFFFFFFFFFFFFFFFFFFFFFFFFFFF AND DUP2 JUMP JUMPDEST PUSH1 0x60 PUSH1 0x3 PUSH1 0x0 DUP4 PUSH20 0xFFFFFFFFFFFFFFFFFFFFFFFFFFFFFFFFFFFFFFFF AND PUSH20 0xFFFFFFFFFFFFFFFFFFFFFFFFFFFFFFFFFFFFFFFF AND DUP2 MSTORE PUSH1 0x20 ADD SWAP1 DUP2 MSTORE PUSH1 0x20 ADD PUSH1 0x0 KECCAK256 DUP1 SLOAD DUP1 PUSH1 0x20 MUL PUSH1 0x20 ADD PUSH1 0x40 MLOAD SWAP1 DUP2 ADD PUSH1 0x40 MSTORE DUP1 SWAP3 SWAP2 SWAP1 DUP2 DUP2 MSTORE PUSH1 0x20 ADD DUP3 DUP1 SLOAD DUP1 ISZERO PUSH3 0x878 JUMPI PUSH1 0x20 MUL DUP3 ADD SWAP2 SWAP1 PUSH1 0x0 MSTORE PUSH1 0x20 PUSH1 0x0 KECCAK256 SWAP1 JUMPDEST DUP2 PUSH1 0x0 SWAP1 SLOAD SWAP1 PUSH2 0x100 EXP SWAP1 DIV PUSH20 0xFFFFFFFFFFFFFFFFFFFFFFFFFFFFFFFFFFFFFFFF AND PUSH20 0xFFFFFFFFFFFFFFFFFFFFFFFFFFFFFFFFFFFFFFFF AND DUP2 MSTORE PUSH1 0x20 ADD SWAP1 PUSH1 0x1 ADD SWAP1 DUP1 DUP4 GT PUSH3 0x82D JUMPI JUMPDEST POP POP POP POP POP SWAP1 POP SWAP2 SWAP1 POP JUMP JUMPDEST PUSH1 0x0 DUP1 SLOAD SWAP1 PUSH2 0x100 EXP SWAP1 DIV PUSH20 0xFFFFFFFFFFFFFFFFFFFFFFFFFFFFFFFFFFFFFFFF AND PUSH20 0xFFFFFFFFFFFFFFFFFFFFFFFFFFFFFFFFFFFFFFFF AND CALLER PUSH20 0xFFFFFFFFFFFFFFFFFFFFFFFFFFFFFFFFFFFFFFFF AND EQ PUSH3 0x8DD JUMPI PUSH1 0x0 DUP1 REVERT JUMPDEST PUSH1 0x0 PUSH1 0x5 DUP2 GT ISZERO PUSH3 0x8F4 JUMPI PUSH3 0x8F3 PUSH3 0x1233 JUMP JUMPDEST JUMPDEST PUSH1 0x1 PUSH1 0x0 DUP7 PUSH20 0xFFFFFFFFFFFFFFFFFFFFFFFFFFFFFFFFFFFFFFFF AND PUSH20 0xFFFFFFFFFFFFFFFFFFFFFFFFFFFFFFFFFFFFFFFF AND DUP2 MSTORE PUSH1 0x20 ADD SWAP1 DUP2 MSTORE PUSH1 0x20 ADD PUSH1 0x0 KECCAK256 PUSH1 0x2 ADD PUSH1 0x14 SWAP1 SLOAD SWAP1 PUSH2 0x100 EXP SWAP1 DIV PUSH1 0xFF AND PUSH1 0x5 DUP2 GT ISZERO PUSH3 0x959 JUMPI PUSH3 0x958 PUSH3 0x1233 JUMP JUMPDEST JUMPDEST EQ PUSH3 0x964 JUMPI PUSH1 0x0 DUP1 REVERT JUMPDEST DUP3 PUSH1 0x1 PUSH1 0x0 DUP7 PUSH20 0xFFFFFFFFFFFFFFFFFFFFFFFFFFFFFFFFFFFFFFFF AND PUSH20 0xFFFFFFFFFFFFFFFFFFFFFFFFFFFFFFFFFFFFFFFF AND DUP2 MSTORE PUSH1 0x20 ADD SWAP1 DUP2 MSTORE PUSH1 0x20 ADD PUSH1 0x0 KECCAK256 PUSH1 0x0 ADD SWAP1 DUP1 MLOAD SWAP1 PUSH1 0x20 ADD SWAP1 PUSH3 0x9BC SWAP3 SWAP2 SWAP1 PUSH3 0xC83 JUMP JUMPDEST POP DUP2 PUSH1 0x1 PUSH1 0x0 DUP7 PUSH20 0xFFFFFFFFFFFFFFFFFFFFFFFFFFFFFFFFFFFFFFFF AND PUSH20 0xFFFFFFFFFFFFFFFFFFFFFFFFFFFFFFFFFFFFFFFF AND DUP2 MSTORE PUSH1 0x20 ADD SWAP1 DUP2 MSTORE PUSH1 0x20 ADD PUSH1 0x0 KECCAK256 PUSH1 0x1 ADD SWAP1 DUP1 MLOAD SWAP1 PUSH1 0x20 ADD SWAP1 PUSH3 0xA15 SWAP3 SWAP2 SWAP1 PUSH3 0xC83 JUMP JUMPDEST POP DUP4 PUSH1 0x1 PUSH1 0x0 DUP7 PUSH20 0xFFFFFFFFFFFFFFFFFFFFFFFFFFFFFFFFFFFFFFFF AND PUSH20 0xFFFFFFFFFFFFFFFFFFFFFFFFFFFFFFFFFFFFFFFF AND DUP2 MSTORE PUSH1 0x20 ADD SWAP1 DUP2 MSTORE PUSH1 0x20 ADD PUSH1 0x0 KECCAK256 PUSH1 0x2 ADD PUSH1 0x0 PUSH2 0x100 EXP DUP2 SLOAD DUP2 PUSH20 0xFFFFFFFFFFFFFFFFFFFFFFFFFFFFFFFFFFFFFFFF MUL NOT AND SWAP1 DUP4 PUSH20 0xFFFFFFFFFFFFFFFFFFFFFFFFFFFFFFFFFFFFFFFF AND MUL OR SWAP1 SSTORE POP DUP1 PUSH1 0x5 DUP2 GT ISZERO PUSH3 0xAAD JUMPI PUSH3 0xAAC PUSH3 0x1233 JUMP JUMPDEST JUMPDEST PUSH1 0x1 PUSH1 0x0 DUP7 PUSH20 0xFFFFFFFFFFFFFFFFFFFFFFFFFFFFFFFFFFFFFFFF AND PUSH20 0xFFFFFFFFFFFFFFFFFFFFFFFFFFFFFFFFFFFFFFFF AND DUP2 MSTORE PUSH1 0x20 ADD SWAP1 DUP2 MSTORE PUSH1 0x20 ADD PUSH1 0x0 KECCAK256 PUSH1 0x2 ADD PUSH1 0x14 PUSH2 0x100 EXP DUP2 SLOAD DUP2 PUSH1 0xFF MUL NOT AND SWAP1 DUP4 PUSH1 0x5 DUP2 GT ISZERO PUSH3 0xB14 JUMPI PUSH3 0xB13 PUSH3 0x1233 JUMP JUMPDEST JUMPDEST MUL OR SWAP1 SSTORE POP PUSH1 0x2 DUP5 SWAP1 DUP1 PUSH1 0x1 DUP2 SLOAD ADD DUP1 DUP3 SSTORE DUP1 SWAP2 POP POP PUSH1 0x1 SWAP1 SUB SWAP1 PUSH1 0x0 MSTORE PUSH1 0x20 PUSH1 0x0 KECCAK256 ADD PUSH1 0x0 SWAP1 SWAP2 SWAP1 SWAP2 SWAP1 SWAP2 PUSH2 0x100 EXP DUP2 SLOAD DUP2 PUSH20 0xFFFFFFFFFFFFFFFFFFFFFFFFFFFFFFFFFFFFFFFF MUL NOT AND SWAP1 DUP4 PUSH20 0xFFFFFFFFFFFFFFFFFFFFFFFFFFFFFFFFFFFFFFFF AND MUL OR SWAP1 SSTORE POP POP POP POP POP JUMP JUMPDEST PUSH1 0x60 PUSH1 0x4 PUSH1 0x1 DUP4 PUSH3 0xB95 SWAP2 SWAP1 PUSH3 0x1505 JUMP JUMPDEST PUSH1 0x3 DUP2 LT PUSH3 0xBA9 JUMPI PUSH3 0xBA8 PUSH3 0x1540 JUMP JUMPDEST JUMPDEST ADD PUSH1 0x0 CALLER PUSH20 0xFFFFFFFFFFFFFFFFFFFFFFFFFFFFFFFFFFFFFFFF AND PUSH20 0xFFFFFFFFFFFFFFFFFFFFFFFFFFFFFFFFFFFFFFFF AND DUP2 MSTORE PUSH1 0x20 ADD SWAP1 DUP2 MSTORE PUSH1 0x20 ADD PUSH1 0x0 KECCAK256 DUP1 SLOAD DUP1 PUSH1 0x20 MUL PUSH1 0x20 ADD PUSH1 0x40 MLOAD SWAP1 DUP2 ADD PUSH1 0x40 MSTORE DUP1 SWAP3 SWAP2 SWAP1 DUP2 DUP2 MSTORE PUSH1 0x20 ADD DUP3 DUP1 SLOAD DUP1 ISZERO PUSH3 0xC69 JUMPI PUSH1 0x20 MUL DUP3 ADD SWAP2 SWAP1 PUSH1 0x0 MSTORE PUSH1 0x20 PUSH1 0x0 KECCAK256 SWAP1 JUMPDEST DUP2 PUSH1 0x0 SWAP1 SLOAD SWAP1 PUSH2 0x100 EXP SWAP1 DIV PUSH20 0xFFFFFFFFFFFFFFFFFFFFFFFFFFFFFFFFFFFFFFFF AND PUSH20 0xFFFFFFFFFFFFFFFFFFFFFFFFFFFFFFFFFFFFFFFF AND DUP2 MSTORE PUSH1 0x20 ADD SWAP1 PUSH1 0x1 ADD SWAP1 DUP1 DUP4 GT PUSH3 0xC1E JUMPI JUMPDEST POP POP POP POP POP SWAP1 POP SWAP2 SWAP1 POP JUMP JUMPDEST PUSH2 0x12B5 DUP1 PUSH3 0x15D5 DUP4 CODECOPY ADD SWAP1 JUMP JUMPDEST DUP3 DUP1 SLOAD PUSH3 0xC91 SWAP1 PUSH3 0x159E JUMP JUMPDEST SWAP1 PUSH1 0x0 MSTORE PUSH1 0x20 PUSH1 0x0 KECCAK256 SWAP1 PUSH1 0x1F ADD PUSH1 0x20 SWAP1 DIV DUP2 ADD SWAP3 DUP3 PUSH3 0xCB5 JUMPI PUSH1 0x0 DUP6 SSTORE PUSH3 0xD01 JUMP JUMPDEST DUP3 PUSH1 0x1F LT PUSH3 0xCD0 JUMPI DUP1 MLOAD PUSH1 0xFF NOT AND DUP4 DUP1 ADD OR DUP6 SSTORE PUSH3 0xD01 JUMP JUMPDEST DUP3 DUP1 ADD PUSH1 0x1 ADD DUP6 SSTORE DUP3 ISZERO PUSH3 0xD01 JUMPI SWAP2 DUP3 ADD JUMPDEST DUP3 DUP2 GT ISZERO PUSH3 0xD00 JUMPI DUP3 MLOAD DUP3 SSTORE SWAP2 PUSH1 0x20 ADD SWAP2 SWAP1 PUSH1 0x1 ADD SWAP1 PUSH3 0xCE3 JUMP JUMPDEST JUMPDEST POP SWAP1 POP PUSH3 0xD10 SWAP2 SWAP1 PUSH3 0xD14 JUMP JUMPDEST POP SWAP1 JUMP JUMPDEST JUMPDEST DUP1 DUP3 GT ISZERO PUSH3 0xD2F JUMPI PUSH1 0x0 DUP2 PUSH1 0x0 SWAP1 SSTORE POP PUSH1 0x1 ADD PUSH3 0xD15 JUMP JUMPDEST POP SWAP1 JUMP JUMPDEST PUSH1 0x0 DUP2 MLOAD SWAP1 POP SWAP2 SWAP1 POP JUMP JUMPDEST PUSH1 0x0 DUP3 DUP3 MSTORE PUSH1 0x20 DUP3 ADD SWAP1 POP SWAP3 SWAP2 POP POP JUMP JUMPDEST PUSH1 0x0 DUP2 SWAP1 POP PUSH1 0x20 DUP3 ADD SWAP1 POP SWAP2 SWAP1 POP JUMP JUMPDEST PUSH1 0x0 PUSH20 0xFFFFFFFFFFFFFFFFFFFFFFFFFFFFFFFFFFFFFFFF DUP3 AND SWAP1 POP SWAP2 SWAP1 POP JUMP JUMPDEST PUSH1 0x0 PUSH3 0xD8C DUP3 PUSH3 0xD5F JUMP JUMPDEST SWAP1 POP SWAP2 SWAP1 POP JUMP JUMPDEST PUSH3 0xD9E DUP2 PUSH3 0xD7F JUMP JUMPDEST DUP3 MSTORE POP POP JUMP JUMPDEST PUSH1 0x0 PUSH3 0xDB2 DUP4 DUP4 PUSH3 0xD93 JUMP JUMPDEST PUSH1 0x20 DUP4 ADD SWAP1 POP SWAP3 SWAP2 POP POP JUMP JUMPDEST PUSH1 0x0 PUSH1 0x20 DUP3 ADD SWAP1 POP SWAP2 SWAP1 POP JUMP JUMPDEST PUSH1 0x0 PUSH3 0xDD8 DUP3 PUSH3 0xD33 JUMP JUMPDEST PUSH3 0xDE4 DUP2 DUP6 PUSH3 0xD3E JUMP JUMPDEST SWAP4 POP PUSH3 0xDF1 DUP4 PUSH3 0xD4F JUMP JUMPDEST DUP1 PUSH1 0x0 JUMPDEST DUP4 DUP2 LT ISZERO PUSH3 0xE28 JUMPI DUP2 MLOAD PUSH3 0xE0C DUP9 DUP3 PUSH3 0xDA4 JUMP JUMPDEST SWAP8 POP PUSH3 0xE19 DUP4 PUSH3 0xDBE JUMP JUMPDEST SWAP3 POP POP PUSH1 0x1 DUP2 ADD SWAP1 POP PUSH3 0xDF5 JUMP JUMPDEST POP DUP6 SWAP4 POP POP POP POP SWAP3 SWAP2 POP POP JUMP JUMPDEST PUSH1 0x0 PUSH1 0x20 DUP3 ADD SWAP1 POP DUP2 DUP2 SUB PUSH1 0x0 DUP4 ADD MSTORE PUSH3 0xE51 DUP2 DUP5 PUSH3 0xDCB JUMP JUMPDEST SWAP1 POP SWAP3 SWAP2 POP POP JUMP JUMPDEST PUSH1 0x0 PUSH1 0x40 MLOAD SWAP1 POP SWAP1 JUMP JUMPDEST PUSH1 0x0 DUP1 REVERT JUMPDEST PUSH1 0x0 DUP1 REVERT JUMPDEST PUSH1 0x0 DUP1 REVERT JUMPDEST PUSH1 0x0 DUP1 REVERT JUMPDEST PUSH1 0x0 PUSH1 0x1F NOT PUSH1 0x1F DUP4 ADD AND SWAP1 POP SWAP2 SWAP1 POP JUMP JUMPDEST PUSH32 0x4E487B7100000000000000000000000000000000000000000000000000000000 PUSH1 0x0 MSTORE PUSH1 0x41 PUSH1 0x4 MSTORE PUSH1 0x24 PUSH1 0x0 REVERT JUMPDEST PUSH3 0xEC2 DUP3 PUSH3 0xE77 JUMP JUMPDEST DUP2 ADD DUP2 DUP2 LT PUSH8 0xFFFFFFFFFFFFFFFF DUP3 GT OR ISZERO PUSH3 0xEE4 JUMPI PUSH3 0xEE3 PUSH3 0xE88 JUMP JUMPDEST JUMPDEST DUP1 PUSH1 0x40 MSTORE POP POP POP JUMP JUMPDEST PUSH1 0x0 PUSH3 0xEF9 PUSH3 0xE59 JUMP JUMPDEST SWAP1 POP PUSH3 0xF07 DUP3 DUP3 PUSH3 0xEB7 JUMP JUMPDEST SWAP2 SWAP1 POP JUMP JUMPDEST PUSH1 0x0 PUSH8 0xFFFFFFFFFFFFFFFF DUP3 GT ISZERO PUSH3 0xF2A JUMPI PUSH3 0xF29 PUSH3 0xE88 JUMP JUMPDEST JUMPDEST PUSH3 0xF35 DUP3 PUSH3 0xE77 JUMP JUMPDEST SWAP1 POP PUSH1 0x20 DUP2 ADD SWAP1 POP SWAP2 SWAP1 POP JUMP JUMPDEST DUP3 DUP2 DUP4 CALLDATACOPY PUSH1 0x0 DUP4 DUP4 ADD MSTORE POP POP POP JUMP JUMPDEST PUSH1 0x0 PUSH3 0xF68 PUSH3 0xF62 DUP5 PUSH3 0xF0C JUMP JUMPDEST PUSH3 0xEED JUMP JUMPDEST SWAP1 POP DUP3 DUP2 MSTORE PUSH1 0x20 DUP2 ADD DUP5 DUP5 DUP5 ADD GT ISZERO PUSH3 0xF87 JUMPI PUSH3 0xF86 PUSH3 0xE72 JUMP JUMPDEST JUMPDEST PUSH3 0xF94 DUP5 DUP3 DUP6 PUSH3 0xF42 JUMP JUMPDEST POP SWAP4 SWAP3 POP POP POP JUMP JUMPDEST PUSH1 0x0 DUP3 PUSH1 0x1F DUP4 ADD SLT PUSH3 0xFB4 JUMPI PUSH3 0xFB3 PUSH3 0xE6D JUMP JUMPDEST JUMPDEST DUP2 CALLDATALOAD PUSH3 0xFC6 DUP5 DUP3 PUSH1 0x20 DUP7 ADD PUSH3 0xF51 JUMP JUMPDEST SWAP2 POP POP SWAP3 SWAP2 POP POP JUMP JUMPDEST PUSH1 0x0 DUP2 SWAP1 POP SWAP2 SWAP1 POP JUMP JUMPDEST PUSH3 0xFE4 DUP2 PUSH3 0xFCF JUMP JUMPDEST DUP2 EQ PUSH3 0xFF0 JUMPI PUSH1 0x0 DUP1 REVERT JUMPDEST POP JUMP JUMPDEST PUSH1 0x0 DUP2 CALLDATALOAD SWAP1 POP PUSH3 0x1004 DUP2 PUSH3 0xFD9 JUMP JUMPDEST SWAP3 SWAP2 POP POP JUMP JUMPDEST PUSH3 0x1015 DUP2 PUSH3 0xD7F JUMP JUMPDEST DUP2 EQ PUSH3 0x1021 JUMPI PUSH1 0x0 DUP1 REVERT JUMPDEST POP JUMP JUMPDEST PUSH1 0x0 DUP2 CALLDATALOAD SWAP1 POP PUSH3 0x1035 DUP2 PUSH3 0x100A JUMP JUMPDEST SWAP3 SWAP2 POP POP JUMP JUMPDEST PUSH1 0x0 DUP1 PUSH1 0x0 DUP1 PUSH1 0x0 PUSH1 0xA0 DUP7 DUP9 SUB SLT ISZERO PUSH3 0x105A JUMPI PUSH3 0x1059 PUSH3 0xE63 JUMP JUMPDEST JUMPDEST PUSH1 0x0 DUP7 ADD CALLDATALOAD PUSH8 0xFFFFFFFFFFFFFFFF DUP2 GT ISZERO PUSH3 0x107B JUMPI PUSH3 0x107A PUSH3 0xE68 JUMP JUMPDEST JUMPDEST PUSH3 0x1089 DUP9 DUP3 DUP10 ADD PUSH3 0xF9C JUMP JUMPDEST SWAP6 POP POP PUSH1 0x20 PUSH3 0x109C DUP9 DUP3 DUP10 ADD PUSH3 0xFF3 JUMP JUMPDEST SWAP5 POP POP PUSH1 0x40 PUSH3 0x10AF DUP9 DUP3 DUP10 ADD PUSH3 0x1024 JUMP JUMPDEST SWAP4 POP POP PUSH1 0x60 PUSH3 0x10C2 DUP9 DUP3 DUP10 ADD PUSH3 0x1024 JUMP JUMPDEST SWAP3 POP POP PUSH1 0x80 DUP7 ADD CALLDATALOAD PUSH8 0xFFFFFFFFFFFFFFFF DUP2 GT ISZERO PUSH3 0x10E6 JUMPI PUSH3 0x10E5 PUSH3 0xE68 JUMP JUMPDEST JUMPDEST PUSH3 0x10F4 DUP9 DUP3 DUP10 ADD PUSH3 0xF9C JUMP JUMPDEST SWAP2 POP POP SWAP3 SWAP6 POP SWAP3 SWAP6 SWAP1 SWAP4 POP JUMP JUMPDEST PUSH1 0x0 DUP1 PUSH1 0x0 PUSH1 0x60 DUP5 DUP7 SUB SLT ISZERO PUSH3 0x111D JUMPI PUSH3 0x111C PUSH3 0xE63 JUMP JUMPDEST JUMPDEST PUSH1 0x0 PUSH3 0x112D DUP7 DUP3 DUP8 ADD PUSH3 0x1024 JUMP JUMPDEST SWAP4 POP POP PUSH1 0x20 PUSH3 0x1140 DUP7 DUP3 DUP8 ADD PUSH3 0xFF3 JUMP JUMPDEST SWAP3 POP POP PUSH1 0x40 PUSH3 0x1153 DUP7 DUP3 DUP8 ADD PUSH3 0xFF3 JUMP JUMPDEST SWAP2 POP POP SWAP3 POP SWAP3 POP SWAP3 JUMP JUMPDEST PUSH1 0x0 PUSH1 0x20 DUP3 DUP5 SUB SLT ISZERO PUSH3 0x1176 JUMPI PUSH3 0x1175 PUSH3 0xE63 JUMP JUMPDEST JUMPDEST PUSH1 0x0 PUSH3 0x1186 DUP5 DUP3 DUP6 ADD PUSH3 0x1024 JUMP JUMPDEST SWAP2 POP POP SWAP3 SWAP2 POP POP JUMP JUMPDEST PUSH1 0x0 DUP2 MLOAD SWAP1 POP SWAP2 SWAP1 POP JUMP JUMPDEST PUSH1 0x0 DUP3 DUP3 MSTORE PUSH1 0x20 DUP3 ADD SWAP1 POP SWAP3 SWAP2 POP POP JUMP JUMPDEST PUSH1 0x0 JUMPDEST DUP4 DUP2 LT ISZERO PUSH3 0x11CB JUMPI DUP1 DUP3 ADD MLOAD DUP2 DUP5 ADD MSTORE PUSH1 0x20 DUP2 ADD SWAP1 POP PUSH3 0x11AE JUMP JUMPDEST DUP4 DUP2 GT ISZERO PUSH3 0x11DB JUMPI PUSH1 0x0 DUP5 DUP5 ADD MSTORE JUMPDEST POP POP POP POP JUMP JUMPDEST PUSH1 0x0 PUSH3 0x11EE DUP3 PUSH3 0x118F JUMP JUMPDEST PUSH3 0x11FA DUP2 DUP6 PUSH3 0x119A JUMP JUMPDEST SWAP4 POP PUSH3 0x120C DUP2 DUP6 PUSH1 0x20 DUP7 ADD PUSH3 0x11AB JUMP JUMPDEST PUSH3 0x1217 DUP2 PUSH3 0xE77 JUMP JUMPDEST DUP5 ADD SWAP2 POP POP SWAP3 SWAP2 POP POP JUMP JUMPDEST PUSH3 0x122D DUP2 PUSH3 0xD7F JUMP JUMPDEST DUP3 MSTORE POP POP JUMP JUMPDEST PUSH32 0x4E487B7100000000000000000000000000000000000000000000000000000000 PUSH1 0x0 MSTORE PUSH1 0x21 PUSH1 0x4 MSTORE PUSH1 0x24 PUSH1 0x0 REVERT JUMPDEST PUSH1 0x6 DUP2 LT PUSH3 0x1276 JUMPI PUSH3 0x1275 PUSH3 0x1233 JUMP JUMPDEST JUMPDEST POP JUMP JUMPDEST PUSH1 0x0 DUP2 SWAP1 POP PUSH3 0x1289 DUP3 PUSH3 0x1262 JUMP JUMPDEST SWAP2 SWAP1 POP JUMP JUMPDEST PUSH1 0x0 PUSH3 0x129B DUP3 PUSH3 0x1279 JUMP JUMPDEST SWAP1 POP SWAP2 SWAP1 POP JUMP JUMPDEST PUSH3 0x12AD DUP2 PUSH3 0x128E JUMP JUMPDEST DUP3 MSTORE POP POP JUMP JUMPDEST PUSH1 0x0 PUSH1 0x80 DUP3 ADD SWAP1 POP DUP2 DUP2 SUB PUSH1 0x0 DUP4 ADD MSTORE PUSH3 0x12CF DUP2 DUP8 PUSH3 0x11E1 JUMP JUMPDEST SWAP1 POP DUP2 DUP2 SUB PUSH1 0x20 DUP4 ADD MSTORE PUSH3 0x12E5 DUP2 DUP7 PUSH3 0x11E1 JUMP JUMPDEST SWAP1 POP PUSH3 0x12F6 PUSH1 0x40 DUP4 ADD DUP6 PUSH3 0x1222 JUMP JUMPDEST PUSH3 0x1305 PUSH1 0x60 DUP4 ADD DUP5 PUSH3 0x12A2 JUMP JUMPDEST SWAP6 SWAP5 POP POP POP POP POP JUMP JUMPDEST PUSH1 0x0 PUSH1 0x20 DUP3 ADD SWAP1 POP PUSH3 0x1325 PUSH1 0x0 DUP4 ADD DUP5 PUSH3 0x1222 JUMP JUMPDEST SWAP3 SWAP2 POP POP JUMP JUMPDEST PUSH1 0x0 DUP1 PUSH1 0x0 DUP1 PUSH1 0x80 DUP6 DUP8 SUB SLT ISZERO PUSH3 0x1348 JUMPI PUSH3 0x1347 PUSH3 0xE63 JUMP JUMPDEST JUMPDEST PUSH1 0x0 PUSH3 0x1358 DUP8 DUP3 DUP9 ADD PUSH3 0x1024 JUMP JUMPDEST SWAP5 POP POP PUSH1 0x20 DUP6 ADD CALLDATALOAD PUSH8 0xFFFFFFFFFFFFFFFF DUP2 GT ISZERO PUSH3 0x137C JUMPI PUSH3 0x137B PUSH3 0xE68 JUMP JUMPDEST JUMPDEST PUSH3 0x138A DUP8 DUP3 DUP9 ADD PUSH3 0xF9C JUMP JUMPDEST SWAP4 POP POP PUSH1 0x40 DUP6 ADD CALLDATALOAD PUSH8 0xFFFFFFFFFFFFFFFF DUP2 GT ISZERO PUSH3 0x13AE JUMPI PUSH3 0x13AD PUSH3 0xE68 JUMP JUMPDEST JUMPDEST PUSH3 0x13BC DUP8 DUP3 DUP9 ADD PUSH3 0xF9C JUMP JUMPDEST SWAP3 POP POP PUSH1 0x60 PUSH3 0x13CF DUP8 DUP3 DUP9 ADD PUSH3 0xFF3 JUMP JUMPDEST SWAP2 POP POP SWAP3 SWAP6 SWAP2 SWAP5 POP SWAP3 POP JUMP JUMPDEST PUSH1 0x0 PUSH1 0x20 DUP3 DUP5 SUB SLT ISZERO PUSH3 0x13F4 JUMPI PUSH3 0x13F3 PUSH3 0xE63 JUMP JUMPDEST JUMPDEST PUSH1 0x0 PUSH3 0x1404 DUP5 DUP3 DUP6 ADD PUSH3 0xFF3 JUMP JUMPDEST SWAP2 POP POP SWAP3 SWAP2 POP POP JUMP JUMPDEST PUSH3 0x1418 DUP2 PUSH3 0xFCF JUMP JUMPDEST DUP3 MSTORE POP POP JUMP JUMPDEST PUSH1 0x0 PUSH1 0xC0 DUP3 ADD SWAP1 POP PUSH3 0x1435 PUSH1 0x0 DUP4 ADD DUP10 PUSH3 0x1222 JUMP JUMPDEST DUP2 DUP2 SUB PUSH1 0x20 DUP4 ADD MSTORE PUSH3 0x1449 DUP2 DUP9 PUSH3 0x11E1 JUMP JUMPDEST SWAP1 POP PUSH3 0x145A PUSH1 0x40 DUP4 ADD DUP8 PUSH3 0x140D JUMP JUMPDEST PUSH3 0x1469 PUSH1 0x60 DUP4 ADD DUP7 PUSH3 0x1222 JUMP JUMPDEST PUSH3 0x1478 PUSH1 0x80 DUP4 ADD DUP6 PUSH3 0x1222 JUMP JUMPDEST DUP2 DUP2 SUB PUSH1 0xA0 DUP4 ADD MSTORE PUSH3 0x148C DUP2 DUP5 PUSH3 0x11E1 JUMP JUMPDEST SWAP1 POP SWAP8 SWAP7 POP POP POP POP POP POP POP JUMP JUMPDEST PUSH1 0x0 PUSH1 0x60 DUP3 ADD SWAP1 POP PUSH3 0x14B0 PUSH1 0x0 DUP4 ADD DUP7 PUSH3 0x1222 JUMP JUMPDEST PUSH3 0x14BF PUSH1 0x20 DUP4 ADD DUP6 PUSH3 0x140D JUMP JUMPDEST PUSH3 0x14CE PUSH1 0x40 DUP4 ADD DUP5 PUSH3 0x140D JUMP JUMPDEST SWAP5 SWAP4 POP POP POP POP JUMP JUMPDEST PUSH32 0x4E487B7100000000000000000000000000000000000000000000000000000000 PUSH1 0x0 MSTORE PUSH1 0x11 PUSH1 0x4 MSTORE PUSH1 0x24 PUSH1 0x0 REVERT JUMPDEST PUSH1 0x0 PUSH3 0x1512 DUP3 PUSH3 0xFCF JUMP JUMPDEST SWAP2 POP PUSH3 0x151F DUP4 PUSH3 0xFCF JUMP JUMPDEST SWAP3 POP DUP3 DUP3 LT ISZERO PUSH3 0x1535 JUMPI PUSH3 0x1534 PUSH3 0x14D6 JUMP JUMPDEST JUMPDEST DUP3 DUP3 SUB SWAP1 POP SWAP3 SWAP2 POP POP JUMP JUMPDEST PUSH32 0x4E487B7100000000000000000000000000000000000000000000000000000000 PUSH1 0x0 MSTORE PUSH1 0x32 PUSH1 0x4 MSTORE PUSH1 0x24 PUSH1 0x0 REVERT JUMPDEST PUSH32 0x4E487B7100000000000000000000000000000000000000000000000000000000 PUSH1 0x0 MSTORE PUSH1 0x22 PUSH1 0x4 MSTORE PUSH1 0x24 PUSH1 0x0 REVERT JUMPDEST PUSH1 0x0 PUSH1 0x2 DUP3 DIV SWAP1 POP PUSH1 0x1 DUP3 AND DUP1 PUSH3 0x15B7 JUMPI PUSH1 0x7F DUP3 AND SWAP2 POP JUMPDEST PUSH1 0x20 DUP3 LT DUP2 EQ ISZERO PUSH3 0x15CE JUMPI PUSH3 0x15CD PUSH3 0x156F JUMP JUMPDEST JUMPDEST POP SWAP2 SWAP1 POP JUMP INVALID PUSH1 0x80 PUSH1 0x40 MSTORE CALLVALUE DUP1 ISZERO PUSH3 0x11 JUMPI PUSH1 0x0 DUP1 REVERT JUMPDEST POP PUSH1 0x40 MLOAD PUSH3 0x12B5 CODESIZE SUB DUP1 PUSH3 0x12B5 DUP4 CODECOPY DUP2 DUP2 ADD PUSH1 0x40 MSTORE DUP2 ADD SWAP1 PUSH3 0x37 SWAP2 SWAP1 PUSH3 0x521 JUMP JUMPDEST DUP6 PUSH1 0x2 PUSH1 0x0 PUSH1 0x4 DUP2 LT PUSH3 0x50 JUMPI PUSH3 0x4F PUSH3 0x5FB JUMP JUMPDEST JUMPDEST ADD PUSH1 0x0 PUSH2 0x100 EXP DUP2 SLOAD DUP2 PUSH20 0xFFFFFFFFFFFFFFFFFFFFFFFFFFFFFFFFFFFFFFFF MUL NOT AND SWAP1 DUP4 PUSH20 0xFFFFFFFFFFFFFFFFFFFFFFFFFFFFFFFFFFFFFFFF AND MUL OR SWAP1 SSTORE POP DUP6 PUSH1 0x7 PUSH1 0x0 PUSH2 0x100 EXP DUP2 SLOAD DUP2 PUSH20 0xFFFFFFFFFFFFFFFFFFFFFFFFFFFFFFFFFFFFFFFF MUL NOT AND SWAP1 DUP4 PUSH20 0xFFFFFFFFFFFFFFFFFFFFFFFFFFFFFFFFFFFFFFFF AND MUL OR SWAP1 SSTORE POP DUP5 PUSH1 0x0 SWAP1 DUP1 MLOAD SWAP1 PUSH1 0x20 ADD SWAP1 PUSH3 0xE8 SWAP3 SWAP2 SWAP1 PUSH3 0x234 JUMP JUMPDEST POP DUP4 PUSH1 0x1 DUP2 SWAP1 SSTORE POP DUP3 PUSH1 0x6 PUSH1 0x0 PUSH2 0x100 EXP DUP2 SLOAD DUP2 PUSH20 0xFFFFFFFFFFFFFFFFFFFFFFFFFFFFFFFFFFFFFFFF MUL NOT AND SWAP1 DUP4 PUSH20 0xFFFFFFFFFFFFFFFFFFFFFFFFFFFFFFFFFFFFFFFF AND MUL OR SWAP1 SSTORE POP DUP2 PUSH1 0x2 PUSH1 0x1 PUSH1 0x4 DUP2 LT PUSH3 0x14A JUMPI PUSH3 0x149 PUSH3 0x5FB JUMP JUMPDEST JUMPDEST ADD PUSH1 0x0 PUSH2 0x100 EXP DUP2 SLOAD DUP2 PUSH20 0xFFFFFFFFFFFFFFFFFFFFFFFFFFFFFFFFFFFFFFFF MUL NOT AND SWAP1 DUP4 PUSH20 0xFFFFFFFFFFFFFFFFFFFFFFFFFFFFFFFFFFFFFFFF AND MUL OR SWAP1 SSTORE POP DUP1 PUSH1 0x8 SWAP1 DUP1 MLOAD SWAP1 PUSH1 0x20 ADD SWAP1 PUSH3 0x1A1 SWAP3 SWAP2 SWAP1 PUSH3 0x234 JUMP JUMPDEST POP PUSH1 0x0 PUSH1 0x7 DUP2 GT ISZERO PUSH3 0x1B9 JUMPI PUSH3 0x1B8 PUSH3 0x62A JUMP JUMPDEST JUMPDEST PUSH1 0x6 PUSH1 0x14 PUSH2 0x100 EXP DUP2 SLOAD DUP2 PUSH1 0xFF MUL NOT AND SWAP1 DUP4 PUSH1 0x7 DUP2 GT ISZERO PUSH3 0x1E0 JUMPI PUSH3 0x1DF PUSH3 0x62A JUMP JUMPDEST JUMPDEST MUL OR SWAP1 SSTORE POP PUSH1 0x0 PUSH1 0x1 DUP2 GT ISZERO PUSH3 0x1FC JUMPI PUSH3 0x1FB PUSH3 0x62A JUMP JUMPDEST JUMPDEST PUSH1 0x6 PUSH1 0x15 PUSH2 0x100 EXP DUP2 SLOAD DUP2 PUSH1 0xFF MUL NOT AND SWAP1 DUP4 PUSH1 0x1 DUP2 GT ISZERO PUSH3 0x223 JUMPI PUSH3 0x222 PUSH3 0x62A JUMP JUMPDEST JUMPDEST MUL OR SWAP1 SSTORE POP POP POP POP POP POP POP PUSH3 0x6BE JUMP JUMPDEST DUP3 DUP1 SLOAD PUSH3 0x242 SWAP1 PUSH3 0x688 JUMP JUMPDEST SWAP1 PUSH1 0x0 MSTORE PUSH1 0x20 PUSH1 0x0 KECCAK256 SWAP1 PUSH1 0x1F ADD PUSH1 0x20 SWAP1 DIV DUP2 ADD SWAP3 DUP3 PUSH3 0x266 JUMPI PUSH1 0x0 DUP6 SSTORE PUSH3 0x2B2 JUMP JUMPDEST DUP3 PUSH1 0x1F LT PUSH3 0x281 JUMPI DUP1 MLOAD PUSH1 0xFF NOT AND DUP4 DUP1 ADD OR DUP6 SSTORE PUSH3 0x2B2 JUMP JUMPDEST DUP3 DUP1 ADD PUSH1 0x1 ADD DUP6 SSTORE DUP3 ISZERO PUSH3 0x2B2 JUMPI SWAP2 DUP3 ADD JUMPDEST DUP3 DUP2 GT ISZERO PUSH3 0x2B1 JUMPI DUP3 MLOAD DUP3 SSTORE SWAP2 PUSH1 0x20 ADD SWAP2 SWAP1 PUSH1 0x1 ADD SWAP1 PUSH3 0x294 JUMP JUMPDEST JUMPDEST POP SWAP1 POP PUSH3 0x2C1 SWAP2 SWAP1 PUSH3 0x2C5 JUMP JUMPDEST POP SWAP1 JUMP JUMPDEST JUMPDEST DUP1 DUP3 GT ISZERO PUSH3 0x2E0 JUMPI PUSH1 0x0 DUP2 PUSH1 0x0 SWAP1 SSTORE POP PUSH1 0x1 ADD PUSH3 0x2C6 JUMP JUMPDEST POP SWAP1 JUMP JUMPDEST PUSH1 0x0 PUSH1 0x40 MLOAD SWAP1 POP SWAP1 JUMP JUMPDEST PUSH1 0x0 DUP1 REVERT JUMPDEST PUSH1 0x0 DUP1 REVERT JUMPDEST PUSH1 0x0 PUSH20 0xFFFFFFFFFFFFFFFFFFFFFFFFFFFFFFFFFFFFFFFF DUP3 AND SWAP1 POP SWAP2 SWAP1 POP JUMP JUMPDEST PUSH1 0x0 PUSH3 0x325 DUP3 PUSH3 0x2F8 JUMP JUMPDEST SWAP1 POP SWAP2 SWAP1 POP JUMP JUMPDEST PUSH3 0x337 DUP2 PUSH3 0x318 JUMP JUMPDEST DUP2 EQ PUSH3 0x343 JUMPI PUSH1 0x0 DUP1 REVERT JUMPDEST POP JUMP JUMPDEST PUSH1 0x0 DUP2 MLOAD SWAP1 POP PUSH3 0x357 DUP2 PUSH3 0x32C JUMP JUMPDEST SWAP3 SWAP2 POP POP JUMP JUMPDEST PUSH1 0x0 DUP1 REVERT JUMPDEST PUSH1 0x0 DUP1 REVERT JUMPDEST PUSH1 0x0 PUSH1 0x1F NOT PUSH1 0x1F DUP4 ADD AND SWAP1 POP SWAP2 SWAP1 POP JUMP JUMPDEST PUSH32 0x4E487B7100000000000000000000000000000000000000000000000000000000 PUSH1 0x0 MSTORE PUSH1 0x41 PUSH1 0x4 MSTORE PUSH1 0x24 PUSH1 0x0 REVERT JUMPDEST PUSH3 0x3B2 DUP3 PUSH3 0x367 JUMP JUMPDEST DUP2 ADD DUP2 DUP2 LT PUSH8 0xFFFFFFFFFFFFFFFF DUP3 GT OR ISZERO PUSH3 0x3D4 JUMPI PUSH3 0x3D3 PUSH3 0x378 JUMP JUMPDEST JUMPDEST DUP1 PUSH1 0x40 MSTORE POP POP POP JUMP JUMPDEST PUSH1 0x0 PUSH3 0x3E9 PUSH3 0x2E4 JUMP JUMPDEST SWAP1 POP PUSH3 0x3F7 DUP3 DUP3 PUSH3 0x3A7 JUMP JUMPDEST SWAP2 SWAP1 POP JUMP JUMPDEST PUSH1 0x0 PUSH8 0xFFFFFFFFFFFFFFFF DUP3 GT ISZERO PUSH3 0x41A JUMPI PUSH3 0x419 PUSH3 0x378 JUMP JUMPDEST JUMPDEST PUSH3 0x425 DUP3 PUSH3 0x367 JUMP JUMPDEST SWAP1 POP PUSH1 0x20 DUP2 ADD SWAP1 POP SWAP2 SWAP1 POP JUMP JUMPDEST PUSH1 0x0 JUMPDEST DUP4 DUP2 LT ISZERO PUSH3 0x452 JUMPI DUP1 DUP3 ADD MLOAD DUP2 DUP5 ADD MSTORE PUSH1 0x20 DUP2 ADD SWAP1 POP PUSH3 0x435 JUMP JUMPDEST DUP4 DUP2 GT ISZERO PUSH3 0x462 JUMPI PUSH1 0x0 DUP5 DUP5 ADD MSTORE JUMPDEST POP POP POP POP JUMP JUMPDEST PUSH1 0x0 PUSH3 0x47F PUSH3 0x479 DUP5 PUSH3 0x3FC JUMP JUMPDEST PUSH3 0x3DD JUMP JUMPDEST SWAP1 POP DUP3 DUP2 MSTORE PUSH1 0x20 DUP2 ADD DUP5 DUP5 DUP5 ADD GT ISZERO PUSH3 0x49E JUMPI PUSH3 0x49D PUSH3 0x362 JUMP JUMPDEST JUMPDEST PUSH3 0x4AB DUP5 DUP3 DUP6 PUSH3 0x432 JUMP JUMPDEST POP SWAP4 SWAP3 POP POP POP JUMP JUMPDEST PUSH1 0x0 DUP3 PUSH1 0x1F DUP4 ADD SLT PUSH3 0x4CB JUMPI PUSH3 0x4CA PUSH3 0x35D JUMP JUMPDEST JUMPDEST DUP2 MLOAD PUSH3 0x4DD DUP5 DUP3 PUSH1 0x20 DUP7 ADD PUSH3 0x468 JUMP JUMPDEST SWAP2 POP POP SWAP3 SWAP2 POP POP JUMP JUMPDEST PUSH1 0x0 DUP2 SWAP1 POP SWAP2 SWAP1 POP JUMP JUMPDEST PUSH3 0x4FB DUP2 PUSH3 0x4E6 JUMP JUMPDEST DUP2 EQ PUSH3 0x507 JUMPI PUSH1 0x0 DUP1 REVERT JUMPDEST POP JUMP JUMPDEST PUSH1 0x0 DUP2 MLOAD SWAP1 POP PUSH3 0x51B DUP2 PUSH3 0x4F0 JUMP JUMPDEST SWAP3 SWAP2 POP POP JUMP JUMPDEST PUSH1 0x0 DUP1 PUSH1 0x0 DUP1 PUSH1 0x0 DUP1 PUSH1 0xC0 DUP8 DUP10 SUB SLT ISZERO PUSH3 0x541 JUMPI PUSH3 0x540 PUSH3 0x2EE JUMP JUMPDEST JUMPDEST PUSH1 0x0 PUSH3 0x551 DUP10 DUP3 DUP11 ADD PUSH3 0x346 JUMP JUMPDEST SWAP7 POP POP PUSH1 0x20 DUP8 ADD MLOAD PUSH8 0xFFFFFFFFFFFFFFFF DUP2 GT ISZERO PUSH3 0x575 JUMPI PUSH3 0x574 PUSH3 0x2F3 JUMP JUMPDEST JUMPDEST PUSH3 0x583 DUP10 DUP3 DUP11 ADD PUSH3 0x4B3 JUMP JUMPDEST SWAP6 POP POP PUSH1 0x40 PUSH3 0x596 DUP10 DUP3 DUP11 ADD PUSH3 0x50A JUMP JUMPDEST SWAP5 POP POP PUSH1 0x60 PUSH3 0x5A9 DUP10 DUP3 DUP11 ADD PUSH3 0x346 JUMP JUMPDEST SWAP4 POP POP PUSH1 0x80 PUSH3 0x5BC DUP10 DUP3 DUP11 ADD PUSH3 0x346 JUMP JUMPDEST SWAP3 POP POP PUSH1 0xA0 DUP8 ADD MLOAD PUSH8 0xFFFFFFFFFFFFFFFF DUP2 GT ISZERO PUSH3 0x5E0 JUMPI PUSH3 0x5DF PUSH3 0x2F3 JUMP JUMPDEST JUMPDEST PUSH3 0x5EE DUP10 DUP3 DUP11 ADD PUSH3 0x4B3 JUMP JUMPDEST SWAP2 POP POP SWAP3 SWAP6 POP SWAP3 SWAP6 POP SWAP3 SWAP6 JUMP JUMPDEST PUSH32 0x4E487B7100000000000000000000000000000000000000000000000000000000 PUSH1 0x0 MSTORE PUSH1 0x32 PUSH1 0x4 MSTORE PUSH1 0x24 PUSH1 0x0 REVERT JUMPDEST PUSH32 0x4E487B7100000000000000000000000000000000000000000000000000000000 PUSH1 0x0 MSTORE PUSH1 0x21 PUSH1 0x4 MSTORE PUSH1 0x24 PUSH1 0x0 REVERT JUMPDEST PUSH32 0x4E487B7100000000000000000000000000000000000000000000000000000000 PUSH1 0x0 MSTORE PUSH1 0x22 PUSH1 0x4 MSTORE PUSH1 0x24 PUSH1 0x0 REVERT JUMPDEST PUSH1 0x0 PUSH1 0x2 DUP3 DIV SWAP1 POP PUSH1 0x1 DUP3 AND DUP1 PUSH3 0x6A1 JUMPI PUSH1 0x7F DUP3 AND SWAP2 POP JUMPDEST PUSH1 0x20 DUP3 LT DUP2 EQ ISZERO PUSH3 0x6B8 JUMPI PUSH3 0x6B7 PUSH3 0x659 JUMP JUMPDEST JUMPDEST POP SWAP2 SWAP1 POP JUMP JUMPDEST PUSH2 0xBE7 DUP1 PUSH3 0x6CE PUSH1 0x0 CODECOPY PUSH1 0x0 RETURN INVALID PUSH1 0x80 PUSH1 0x40 MSTORE CALLVALUE DUP1 ISZERO PUSH2 0x10 JUMPI PUSH1 0x0 DUP1 REVERT JUMPDEST POP PUSH1 0x4 CALLDATASIZE LT PUSH2 0x4C JUMPI PUSH1 0x0 CALLDATALOAD PUSH1 0xE0 SHR DUP1 PUSH4 0x2040A8DE EQ PUSH2 0x51 JUMPI DUP1 PUSH4 0x5A9B0B89 EQ PUSH2 0x6D JUMPI DUP1 PUSH4 0xA0C741B0 EQ PUSH2 0x8F JUMPI DUP1 PUSH4 0xD074892D EQ PUSH2 0xAB JUMPI JUMPDEST PUSH1 0x0 DUP1 REVERT JUMPDEST PUSH2 0x6B PUSH1 0x4 DUP1 CALLDATASIZE SUB DUP2 ADD SWAP1 PUSH2 0x66 SWAP2 SWAP1 PUSH2 0x791 JUMP JUMPDEST PUSH2 0xC7 JUMP JUMPDEST STOP JUMPDEST PUSH2 0x75 PUSH2 0x1BE JUMP JUMPDEST PUSH1 0x40 MLOAD PUSH2 0x86 SWAP6 SWAP5 SWAP4 SWAP3 SWAP2 SWAP1 PUSH2 0x924 JUMP JUMPDEST PUSH1 0x40 MLOAD DUP1 SWAP2 SUB SWAP1 RETURN JUMPDEST PUSH2 0xA9 PUSH1 0x4 DUP1 CALLDATASIZE SUB DUP2 ADD SWAP1 PUSH2 0xA4 SWAP2 SWAP1 PUSH2 0x97F JUMP JUMPDEST PUSH2 0x32A JUMP JUMPDEST STOP JUMPDEST PUSH2 0xC5 PUSH1 0x4 DUP1 CALLDATASIZE SUB DUP2 ADD SWAP1 PUSH2 0xC0 SWAP2 SWAP1 PUSH2 0x9D2 JUMP JUMPDEST PUSH2 0x5BD JUMP JUMPDEST STOP JUMPDEST DUP2 PUSH20 0xFFFFFFFFFFFFFFFFFFFFFFFFFFFFFFFFFFFFFFFF AND PUSH1 0x6 PUSH1 0x0 SWAP1 SLOAD SWAP1 PUSH2 0x100 EXP SWAP1 DIV PUSH20 0xFFFFFFFFFFFFFFFFFFFFFFFFFFFFFFFFFFFFFFFF AND PUSH20 0xFFFFFFFFFFFFFFFFFFFFFFFFFFFFFFFFFFFFFFFF AND EQ PUSH2 0x121 JUMPI PUSH1 0x0 DUP1 REVERT JUMPDEST DUP1 PUSH1 0x7 DUP2 GT ISZERO PUSH2 0x134 JUMPI PUSH2 0x133 PUSH2 0xA39 JUMP JUMPDEST JUMPDEST PUSH1 0x7 DUP2 GT ISZERO PUSH2 0x146 JUMPI PUSH2 0x145 PUSH2 0xA39 JUMP JUMPDEST JUMPDEST PUSH1 0x6 PUSH1 0x14 SWAP1 SLOAD SWAP1 PUSH2 0x100 EXP SWAP1 DIV PUSH1 0xFF AND PUSH1 0x7 DUP2 GT ISZERO PUSH2 0x168 JUMPI PUSH2 0x167 PUSH2 0xA39 JUMP JUMPDEST JUMPDEST EQ PUSH2 0x172 JUMPI PUSH1 0x0 DUP1 REVERT JUMPDEST PUSH1 0x5 DUP2 PUSH2 0x17F SWAP2 SWAP1 PUSH2 0xA97 JUMP JUMPDEST PUSH1 0x7 DUP2 GT ISZERO PUSH2 0x191 JUMPI PUSH2 0x190 PUSH2 0xA39 JUMP JUMPDEST JUMPDEST PUSH1 0x6 PUSH1 0x14 PUSH2 0x100 EXP DUP2 SLOAD DUP2 PUSH1 0xFF MUL NOT AND SWAP1 DUP4 PUSH1 0x7 DUP2 GT ISZERO PUSH2 0x1B5 JUMPI PUSH2 0x1B4 PUSH2 0xA39 JUMP JUMPDEST JUMPDEST MUL OR SWAP1 SSTORE POP POP POP JUMP JUMPDEST PUSH1 0x60 PUSH1 0x0 DUP1 PUSH1 0x0 PUSH2 0x1CD PUSH2 0x6D6 JUMP JUMPDEST PUSH1 0x0 PUSH1 0x1 SLOAD PUSH1 0x6 PUSH1 0x15 SWAP1 SLOAD SWAP1 PUSH2 0x100 EXP SWAP1 DIV PUSH1 0xFF AND PUSH1 0x1 DUP2 GT ISZERO PUSH2 0x1F4 JUMPI PUSH2 0x1F3 PUSH2 0xA39 JUMP JUMPDEST JUMPDEST PUSH1 0x6 PUSH1 0x14 SWAP1 SLOAD SWAP1 PUSH2 0x100 EXP SWAP1 DIV PUSH1 0xFF AND PUSH1 0x7 DUP2 GT ISZERO PUSH2 0x216 JUMPI PUSH2 0x215 PUSH2 0xA39 JUMP JUMPDEST JUMPDEST PUSH1 0x2 DUP5 DUP1 SLOAD PUSH2 0x224 SWAP1 PUSH2 0xB1C JUMP JUMPDEST DUP1 PUSH1 0x1F ADD PUSH1 0x20 DUP1 SWAP2 DIV MUL PUSH1 0x20 ADD PUSH1 0x40 MLOAD SWAP1 DUP2 ADD PUSH1 0x40 MSTORE DUP1 SWAP3 SWAP2 SWAP1 DUP2 DUP2 MSTORE PUSH1 0x20 ADD DUP3 DUP1 SLOAD PUSH2 0x250 SWAP1 PUSH2 0xB1C JUMP JUMPDEST DUP1 ISZERO PUSH2 0x29D JUMPI DUP1 PUSH1 0x1F LT PUSH2 0x272 JUMPI PUSH2 0x100 DUP1 DUP4 SLOAD DIV MUL DUP4 MSTORE SWAP2 PUSH1 0x20 ADD SWAP2 PUSH2 0x29D JUMP JUMPDEST DUP3 ADD SWAP2 SWAP1 PUSH1 0x0 MSTORE PUSH1 0x20 PUSH1 0x0 KECCAK256 SWAP1 JUMPDEST DUP2 SLOAD DUP2 MSTORE SWAP1 PUSH1 0x1 ADD SWAP1 PUSH1 0x20 ADD DUP1 DUP4 GT PUSH2 0x280 JUMPI DUP3 SWAP1 SUB PUSH1 0x1F AND DUP3 ADD SWAP2 JUMPDEST POP POP POP POP POP SWAP5 POP DUP1 PUSH1 0x4 DUP1 PUSH1 0x20 MUL PUSH1 0x40 MLOAD SWAP1 DUP2 ADD PUSH1 0x40 MSTORE DUP1 SWAP3 SWAP2 SWAP1 DUP3 PUSH1 0x4 DUP1 ISZERO PUSH2 0x312 JUMPI PUSH1 0x20 MUL DUP3 ADD SWAP2 JUMPDEST DUP2 PUSH1 0x0 SWAP1 SLOAD SWAP1 PUSH2 0x100 EXP SWAP1 DIV PUSH20 0xFFFFFFFFFFFFFFFFFFFFFFFFFFFFFFFFFFFFFFFF AND PUSH20 0xFFFFFFFFFFFFFFFFFFFFFFFFFFFFFFFFFFFFFFFF AND DUP2 MSTORE PUSH1 0x20 ADD SWAP1 PUSH1 0x1 ADD SWAP1 DUP1 DUP4 GT PUSH2 0x2C8 JUMPI JUMPDEST POP POP POP POP POP SWAP1 POP SWAP5 POP SWAP5 POP SWAP5 POP SWAP5 POP SWAP5 POP SWAP1 SWAP2 SWAP3 SWAP4 SWAP5 JUMP JUMPDEST DUP3 PUSH20 0xFFFFFFFFFFFFFFFFFFFFFFFFFFFFFFFFFFFFFFFF AND PUSH1 0x2 DUP4 PUSH1 0x4 DUP2 LT PUSH2 0x355 JUMPI PUSH2 0x354 PUSH2 0xB4E JUMP JUMPDEST JUMPDEST ADD PUSH1 0x0 SWAP1 SLOAD SWAP1 PUSH2 0x100 EXP SWAP1 DIV PUSH20 0xFFFFFFFFFFFFFFFFFFFFFFFFFFFFFFFFFFFFFFFF AND PUSH20 0xFFFFFFFFFFFFFFFFFFFFFFFFFFFFFFFFFFFFFFFF AND EQ PUSH2 0x397 JUMPI PUSH1 0x0 DUP1 REVERT JUMPDEST PUSH1 0x4 DUP3 PUSH2 0x3A4 SWAP2 SWAP1 PUSH2 0xA97 JUMP JUMPDEST PUSH1 0x7 DUP2 GT ISZERO PUSH2 0x3B6 JUMPI PUSH2 0x3B5 PUSH2 0xA39 JUMP JUMPDEST JUMPDEST PUSH1 0x7 DUP2 GT ISZERO PUSH2 0x3C8 JUMPI PUSH2 0x3C7 PUSH2 0xA39 JUMP JUMPDEST JUMPDEST PUSH1 0x6 PUSH1 0x14 SWAP1 SLOAD SWAP1 PUSH2 0x100 EXP SWAP1 DIV PUSH1 0xFF AND PUSH1 0x7 DUP2 GT ISZERO PUSH2 0x3EA JUMPI PUSH2 0x3E9 PUSH2 0xA39 JUMP JUMPDEST JUMPDEST EQ PUSH2 0x3F4 JUMPI PUSH1 0x0 DUP1 REVERT JUMPDEST PUSH1 0x0 PUSH1 0x1 DUP2 GT ISZERO PUSH2 0x408 JUMPI PUSH2 0x407 PUSH2 0xA39 JUMP JUMPDEST JUMPDEST PUSH1 0x1 DUP2 GT ISZERO PUSH2 0x41A JUMPI PUSH2 0x419 PUSH2 0xA39 JUMP JUMPDEST JUMPDEST PUSH1 0x6 PUSH1 0x15 SWAP1 SLOAD SWAP1 PUSH2 0x100 EXP SWAP1 DIV PUSH1 0xFF AND PUSH1 0x1 DUP2 GT ISZERO PUSH2 0x43C JUMPI PUSH2 0x43B PUSH2 0xA39 JUMP JUMPDEST JUMPDEST EQ DUP1 ISZERO PUSH2 0x449 JUMPI POP PUSH1 0x1 DUP2 EQ JUMPDEST ISZERO PUSH2 0x4F8 JUMPI PUSH1 0x1 PUSH1 0x6 PUSH1 0x14 SWAP1 SLOAD SWAP1 PUSH2 0x100 EXP SWAP1 DIV PUSH1 0xFF AND PUSH1 0x7 DUP2 GT ISZERO PUSH2 0x472 JUMPI PUSH2 0x471 PUSH2 0xA39 JUMP JUMPDEST JUMPDEST PUSH2 0x47C SWAP2 SWAP1 PUSH2 0xB7D JUMP JUMPDEST PUSH1 0x7 DUP2 GT ISZERO PUSH2 0x48E JUMPI PUSH2 0x48D PUSH2 0xA39 JUMP JUMPDEST JUMPDEST PUSH1 0x6 PUSH1 0x14 PUSH2 0x100 EXP DUP2 SLOAD DUP2 PUSH1 0xFF MUL NOT AND SWAP1 DUP4 PUSH1 0x7 DUP2 GT ISZERO PUSH2 0x4B2 JUMPI PUSH2 0x4B1 PUSH2 0xA39 JUMP JUMPDEST JUMPDEST MUL OR SWAP1 SSTORE POP PUSH1 0x1 DUP1 DUP2 GT ISZERO PUSH2 0x4CA JUMPI PUSH2 0x4C9 PUSH2 0xA39 JUMP JUMPDEST JUMPDEST PUSH1 0x6 PUSH1 0x15 PUSH2 0x100 EXP DUP2 SLOAD DUP2 PUSH1 0xFF MUL NOT AND SWAP1 DUP4 PUSH1 0x1 DUP2 GT ISZERO PUSH2 0x4EE JUMPI PUSH2 0x4ED PUSH2 0xA39 JUMP JUMPDEST JUMPDEST MUL OR SWAP1 SSTORE POP PUSH2 0x5B8 JUMP JUMPDEST DUP2 PUSH1 0x7 DUP2 GT ISZERO PUSH2 0x50B JUMPI PUSH2 0x50A PUSH2 0xA39 JUMP JUMPDEST JUMPDEST PUSH1 0x6 PUSH1 0x14 PUSH2 0x100 EXP DUP2 SLOAD DUP2 PUSH1 0xFF MUL NOT AND SWAP1 DUP4 PUSH1 0x7 DUP2 GT ISZERO PUSH2 0x52F JUMPI PUSH2 0x52E PUSH2 0xA39 JUMP JUMPDEST JUMPDEST MUL OR SWAP1 SSTORE POP DUP3 PUSH1 0x7 PUSH1 0x0 PUSH2 0x100 EXP DUP2 SLOAD DUP2 PUSH20 0xFFFFFFFFFFFFFFFFFFFFFFFFFFFFFFFFFFFFFFFF MUL NOT AND SWAP1 DUP4 PUSH20 0xFFFFFFFFFFFFFFFFFFFFFFFFFFFFFFFFFFFFFFFF AND MUL OR SWAP1 SSTORE POP PUSH1 0x0 PUSH1 0x6 PUSH1 0x0 PUSH2 0x100 EXP DUP2 SLOAD DUP2 PUSH20 0xFFFFFFFFFFFFFFFFFFFFFFFFFFFFFFFFFFFFFFFF MUL NOT AND SWAP1 DUP4 PUSH20 0xFFFFFFFFFFFFFFFFFFFFFFFFFFFFFFFFFFFFFFFF AND MUL OR SWAP1 SSTORE POP JUMPDEST POP POP POP JUMP JUMPDEST DUP4 PUSH20 0xFFFFFFFFFFFFFFFFFFFFFFFFFFFFFFFFFFFFFFFF AND PUSH1 0x7 PUSH1 0x0 SWAP1 SLOAD SWAP1 PUSH2 0x100 EXP SWAP1 DIV PUSH20 0xFFFFFFFFFFFFFFFFFFFFFFFFFFFFFFFFFFFFFFFF AND PUSH20 0xFFFFFFFFFFFFFFFFFFFFFFFFFFFFFFFFFFFFFFFF AND EQ PUSH2 0x617 JUMPI PUSH1 0x0 DUP1 REVERT JUMPDEST PUSH1 0x1 DUP2 EQ DUP1 PUSH2 0x626 JUMPI POP PUSH1 0x2 DUP2 EQ JUMPDEST PUSH2 0x62F JUMPI PUSH1 0x0 DUP1 REVERT JUMPDEST DUP3 PUSH1 0x6 PUSH1 0x0 PUSH2 0x100 EXP DUP2 SLOAD DUP2 PUSH20 0xFFFFFFFFFFFFFFFFFFFFFFFFFFFFFFFFFFFFFFFF MUL NOT AND SWAP1 DUP4 PUSH20 0xFFFFFFFFFFFFFFFFFFFFFFFFFFFFFFFFFFFFFFFF AND MUL OR SWAP1 SSTORE POP DUP2 PUSH1 0x2 PUSH1 0x1 DUP4 PUSH2 0x680 SWAP2 SWAP1 PUSH2 0xA97 JUMP JUMPDEST PUSH1 0x4 DUP2 LT PUSH2 0x691 JUMPI PUSH2 0x690 PUSH2 0xB4E JUMP JUMPDEST JUMPDEST ADD PUSH1 0x0 PUSH2 0x100 EXP DUP2 SLOAD DUP2 PUSH20 0xFFFFFFFFFFFFFFFFFFFFFFFFFFFFFFFFFFFFFFFF MUL NOT AND SWAP1 DUP4 PUSH20 0xFFFFFFFFFFFFFFFFFFFFFFFFFFFFFFFFFFFFFFFF AND MUL OR SWAP1 SSTORE POP POP POP POP POP JUMP JUMPDEST PUSH1 0x40 MLOAD DUP1 PUSH1 0x80 ADD PUSH1 0x40 MSTORE DUP1 PUSH1 0x4 SWAP1 PUSH1 0x20 DUP3 MUL DUP1 CALLDATASIZE DUP4 CALLDATACOPY DUP1 DUP3 ADD SWAP2 POP POP SWAP1 POP POP SWAP1 JUMP JUMPDEST PUSH1 0x0 DUP1 REVERT JUMPDEST PUSH1 0x0 PUSH20 0xFFFFFFFFFFFFFFFFFFFFFFFFFFFFFFFFFFFFFFFF DUP3 AND SWAP1 POP SWAP2 SWAP1 POP JUMP JUMPDEST PUSH1 0x0 PUSH2 0x728 DUP3 PUSH2 0x6FD JUMP JUMPDEST SWAP1 POP SWAP2 SWAP1 POP JUMP JUMPDEST PUSH2 0x738 DUP2 PUSH2 0x71D JUMP JUMPDEST DUP2 EQ PUSH2 0x743 JUMPI PUSH1 0x0 DUP1 REVERT JUMPDEST POP JUMP JUMPDEST PUSH1 0x0 DUP2 CALLDATALOAD SWAP1 POP PUSH2 0x755 DUP2 PUSH2 0x72F JUMP JUMPDEST SWAP3 SWAP2 POP POP JUMP JUMPDEST PUSH1 0x0 DUP2 SWAP1 POP SWAP2 SWAP1 POP JUMP JUMPDEST PUSH2 0x76E DUP2 PUSH2 0x75B JUMP JUMPDEST DUP2 EQ PUSH2 0x779 JUMPI PUSH1 0x0 DUP1 REVERT JUMPDEST POP JUMP JUMPDEST PUSH1 0x0 DUP2 CALLDATALOAD SWAP1 POP PUSH2 0x78B DUP2 PUSH2 0x765 JUMP JUMPDEST SWAP3 SWAP2 POP POP JUMP JUMPDEST PUSH1 0x0 DUP1 PUSH1 0x40 DUP4 DUP6 SUB SLT ISZERO PUSH2 0x7A8 JUMPI PUSH2 0x7A7 PUSH2 0x6F8 JUMP JUMPDEST JUMPDEST PUSH1 0x0 PUSH2 0x7B6 DUP6 DUP3 DUP7 ADD PUSH2 0x746 JUMP JUMPDEST SWAP3 POP POP PUSH1 0x20 PUSH2 0x7C7 DUP6 DUP3 DUP7 ADD PUSH2 0x77C JUMP JUMPDEST SWAP2 POP POP SWAP3 POP SWAP3 SWAP1 POP JUMP JUMPDEST PUSH1 0x0 DUP2 MLOAD SWAP1 POP SWAP2 SWAP1 POP JUMP JUMPDEST PUSH1 0x0 DUP3 DUP3 MSTORE PUSH1 0x20 DUP3 ADD SWAP1 POP SWAP3 SWAP2 POP POP JUMP JUMPDEST PUSH1 0x0 JUMPDEST DUP4 DUP2 LT ISZERO PUSH2 0x80B JUMPI DUP1 DUP3 ADD MLOAD DUP2 DUP5 ADD MSTORE PUSH1 0x20 DUP2 ADD SWAP1 POP PUSH2 0x7F0 JUMP JUMPDEST DUP4 DUP2 GT ISZERO PUSH2 0x81A JUMPI PUSH1 0x0 DUP5 DUP5 ADD MSTORE JUMPDEST POP POP POP POP JUMP JUMPDEST PUSH1 0x0 PUSH1 0x1F NOT PUSH1 0x1F DUP4 ADD AND SWAP1 POP SWAP2 SWAP1 POP JUMP JUMPDEST PUSH1 0x0 PUSH2 0x83C DUP3 PUSH2 0x7D1 JUMP JUMPDEST PUSH2 0x846 DUP2 DUP6 PUSH2 0x7DC JUMP JUMPDEST SWAP4 POP PUSH2 0x856 DUP2 DUP6 PUSH1 0x20 DUP7 ADD PUSH2 0x7ED JUMP JUMPDEST PUSH2 0x85F DUP2 PUSH2 0x820 JUMP JUMPDEST DUP5 ADD SWAP2 POP POP SWAP3 SWAP2 POP POP JUMP JUMPDEST PUSH2 0x873 DUP2 PUSH2 0x75B JUMP JUMPDEST DUP3 MSTORE POP POP JUMP JUMPDEST PUSH1 0x0 PUSH1 0x4 SWAP1 POP SWAP2 SWAP1 POP JUMP JUMPDEST PUSH1 0x0 DUP2 SWAP1 POP SWAP3 SWAP2 POP POP JUMP JUMPDEST PUSH1 0x0 DUP2 SWAP1 POP SWAP2 SWAP1 POP JUMP JUMPDEST PUSH2 0x8A2 DUP2 PUSH2 0x71D JUMP JUMPDEST DUP3 MSTORE POP POP JUMP JUMPDEST PUSH1 0x0 PUSH2 0x8B4 DUP4 DUP4 PUSH2 0x899 JUMP JUMPDEST PUSH1 0x20 DUP4 ADD SWAP1 POP SWAP3 SWAP2 POP POP JUMP JUMPDEST PUSH1 0x0 PUSH1 0x20 DUP3 ADD SWAP1 POP SWAP2 SWAP1 POP JUMP JUMPDEST PUSH2 0x8D6 DUP2 PUSH2 0x879 JUMP JUMPDEST PUSH2 0x8E0 DUP2 DUP5 PUSH2 0x884 JUMP JUMPDEST SWAP3 POP PUSH2 0x8EB DUP3 PUSH2 0x88F JUMP JUMPDEST DUP1 PUSH1 0x0 JUMPDEST DUP4 DUP2 LT ISZERO PUSH2 0x91C JUMPI DUP2 MLOAD PUSH2 0x903 DUP8 DUP3 PUSH2 0x8A8 JUMP JUMPDEST SWAP7 POP PUSH2 0x90E DUP4 PUSH2 0x8C0 JUMP JUMPDEST SWAP3 POP POP PUSH1 0x1 DUP2 ADD SWAP1 POP PUSH2 0x8EF JUMP JUMPDEST POP POP POP POP POP POP JUMP JUMPDEST PUSH1 0x0 PUSH2 0x100 DUP3 ADD SWAP1 POP DUP2 DUP2 SUB PUSH1 0x0 DUP4 ADD MSTORE PUSH2 0x93F DUP2 DUP9 PUSH2 0x831 JUMP JUMPDEST SWAP1 POP PUSH2 0x94E PUSH1 0x20 DUP4 ADD DUP8 PUSH2 0x86A JUMP JUMPDEST PUSH2 0x95B PUSH1 0x40 DUP4 ADD DUP7 PUSH2 0x86A JUMP JUMPDEST PUSH2 0x968 PUSH1 0x60 DUP4 ADD DUP6 PUSH2 0x86A JUMP JUMPDEST PUSH2 0x975 PUSH1 0x80 DUP4 ADD DUP5 PUSH2 0x8CD JUMP JUMPDEST SWAP7 SWAP6 POP POP POP POP POP POP JUMP JUMPDEST PUSH1 0x0 DUP1 PUSH1 0x0 PUSH1 0x60 DUP5 DUP7 SUB SLT ISZERO PUSH2 0x998 JUMPI PUSH2 0x997 PUSH2 0x6F8 JUMP JUMPDEST JUMPDEST PUSH1 0x0 PUSH2 0x9A6 DUP7 DUP3 DUP8 ADD PUSH2 0x746 JUMP JUMPDEST SWAP4 POP POP PUSH1 0x20 PUSH2 0x9B7 DUP7 DUP3 DUP8 ADD PUSH2 0x77C JUMP JUMPDEST SWAP3 POP POP PUSH1 0x40 PUSH2 0x9C8 DUP7 DUP3 DUP8 ADD PUSH2 0x77C JUMP JUMPDEST SWAP2 POP POP SWAP3 POP SWAP3 POP SWAP3 JUMP JUMPDEST PUSH1 0x0 DUP1 PUSH1 0x0 DUP1 PUSH1 0x80 DUP6 DUP8 SUB SLT ISZERO PUSH2 0x9EC JUMPI PUSH2 0x9EB PUSH2 0x6F8 JUMP JUMPDEST JUMPDEST PUSH1 0x0 PUSH2 0x9FA DUP8 DUP3 DUP9 ADD PUSH2 0x746 JUMP JUMPDEST SWAP5 POP POP PUSH1 0x20 PUSH2 0xA0B DUP8 DUP3 DUP9 ADD PUSH2 0x746 JUMP JUMPDEST SWAP4 POP POP PUSH1 0x40 PUSH2 0xA1C DUP8 DUP3 DUP9 ADD PUSH2 0x746 JUMP JUMPDEST SWAP3 POP POP PUSH1 0x60 PUSH2 0xA2D DUP8 DUP3 DUP9 ADD PUSH2 0x77C JUMP JUMPDEST SWAP2 POP POP SWAP3 SWAP6 SWAP2 SWAP5 POP SWAP3 POP JUMP JUMPDEST PUSH32 0x4E487B7100000000000000000000000000000000000000000000000000000000 PUSH1 0x0 MSTORE PUSH1 0x21 PUSH1 0x4 MSTORE PUSH1 0x24 PUSH1 0x0 REVERT JUMPDEST PUSH32 0x4E487B7100000000000000000000000000000000000000000000000000000000 PUSH1 0x0 MSTORE PUSH1 0x11 PUSH1 0x4 MSTORE PUSH1 0x24 PUSH1 0x0 REVERT JUMPDEST PUSH1 0x0 PUSH2 0xAA2 DUP3 PUSH2 0x75B JUMP JUMPDEST SWAP2 POP PUSH2 0xAAD DUP4 PUSH2 0x75B JUMP JUMPDEST SWAP3 POP DUP3 PUSH32 0xFFFFFFFFFFFFFFFFFFFFFFFFFFFFFFFFFFFFFFFFFFFFFFFFFFFFFFFFFFFFFFFF SUB DUP3 GT ISZERO PUSH2 0xAE2 JUMPI PUSH2 0xAE1 PUSH2 0xA68 JUMP JUMPDEST JUMPDEST DUP3 DUP3 ADD SWAP1 POP SWAP3 SWAP2 POP POP JUMP JUMPDEST PUSH32 0x4E487B7100000000000000000000000000000000000000000000000000000000 PUSH1 0x0 MSTORE PUSH1 0x22 PUSH1 0x4 MSTORE PUSH1 0x24 PUSH1 0x0 REVERT JUMPDEST PUSH1 0x0 PUSH1 0x2 DUP3 DIV SWAP1 POP PUSH1 0x1 DUP3 AND DUP1 PUSH2 0xB34 JUMPI PUSH1 0x7F DUP3 AND SWAP2 POP JUMPDEST PUSH1 0x20 DUP3 LT DUP2 EQ ISZERO PUSH2 0xB48 JUMPI PUSH2 0xB47 PUSH2 0xAED JUMP JUMPDEST JUMPDEST POP SWAP2 SWAP1 POP JUMP JUMPDEST PUSH32 0x4E487B7100000000000000000000000000000000000000000000000000000000 PUSH1 0x0 MSTORE PUSH1 0x32 PUSH1 0x4 MSTORE PUSH1 0x24 PUSH1 0x0 REVERT JUMPDEST PUSH1 0x0 PUSH2 0xB88 DUP3 PUSH2 0x75B JUMP JUMPDEST SWAP2 POP PUSH2 0xB93 DUP4 PUSH2 0x75B JUMP JUMPDEST SWAP3 POP DUP3 DUP3 LT ISZERO PUSH2 0xBA6 JUMPI PUSH2 0xBA5 PUSH2 0xA68 JUMP JUMPDEST JUMPDEST DUP3 DUP3 SUB SWAP1 POP SWAP3 SWAP2 POP POP JUMP INVALID LOG2 PUSH5 0x6970667358 0x22 SLT KECCAK256 0xF9 JUMP 0xCF ADDRESS PUSH7 0xFD91E1147358FD 0x5C 0xDF CHAINID 0xA7 0xBB 0xD0 PUSH11 0xD151C33C171EF00AEFF112 PUSH25 0x764736F6C634300080A0033A2646970667358221220DE2283 MOD DUP1 DUP6 DUP8 0x2A SWAP13 0xB6 PUSH25 0x45118B3932BC6B050BFB8ECA02783A162E7810CC6864736F6C PUSH4 0x4300080A STOP CALLER "
    }
  }
}